:100000000C9434000C94E9020C94E9020C94E9027B
:100010000C94E9020C94E9020C94E9020C94E902B4
:100020000C94E9020C94E9020C94E9020C94E902A4
:100030000C94E9020C94E9020C94E9020C94E90294
:100040000C94E9020C94E9020C94E9020C94E90284
:100050000C94E9020C94E9020C94E9020C94E90274
:100060000C94E9020C94E90211241FBECFEFD8E0F2
:10007000DEBFCDBFE8E6F0E040E017C0B591A59146
:1000800035912591059107FD0CC095918591EF0162
:10009000F92FE82F05900D92A217B307D9F7FE01AB
:1000A00004C01D92A217B307E1F7E836F40731F751
:0C00B0000E94EF010C94A202F894FFCF14
:1000BC003A20000D0A00536F667420526573657404
:1000CC002E2E2E0D0A00436F6E6669677572616E77
:1000DC00646F2074656D706F72697A61646F72659C
:1000EC00732079206D6F64756C6163696F6E2E2E51
:1000FC002E0D0A00526567697374726F7320636CFE
:10010C00617665206465737075657320646520691C
:10011C006E69743A0D0A0056657273696F6E52659A
:10012C0067005478436F6E74726F6C52656700543D
:10013C007841534B526567004D6F6465526567009B
:10014C00544D6F64655265670054507265736361FA
:10015C006C6572526567005452656C6F61645265D0
:10016C006748005452656C6F61645265674C00526D
:10017C0046436667526567000D0A3D3D3D20456E5E
:10018C007669616E646F2052455141203D3D3D0DB5
:10019C000A00436F6D6D49727152656720616E7410
:1001AC0065733A2000004649464F4C6576656C52A3
:1001BC00656720616E7465733A20004649464F446A
:1001CC006174615265675B6573637269746F5D3AE4
:1001DC002000436F6D6D49727152656720646573C1
:1001EC00707520733A20004649464F4C6576656C15
:1001FC0052656720646573707520733A20004572F0
:10020C00726F725265673A200054696D656F757430
:10021C0020524551412C207461726A657461206EC4
:10022C006F206465746563746164610D0A004952E2
:10023C00512061637469766164612C206C65657210
:10024C00206461746F73204649464F0D0A0046497D
:10025C00464F4C6576656C5265673A2000464946B8
:10026C004F446174615265675B6C6569646F5D3A9C
:10027C0020005461726A65746120646574656374EE
:10028C006164612120496E74656E74616E646F20C7
:10029C006C656572205549442E2E2E0D0A0054694A
:1002AC006D656F757420416E7469636F6C6C6973E6
:1002BC00696F6E0D0A00554944206C6569646F3A8C
:0402CC0020002000EE
:1002D0002FEF80E792E0215080409040E1F700C08E
:1002E000000060E080E30E94CE018FE19EE4019770
:1002F000F1F700C0000060E080E30E94CE0187E5D6
:1003000092E00197F1F700C0000060E080E30E94F6
:10031000CE0160E080E20E94CE0188E20E94C1022C
:100320008CE00E94C10286E00E94C10281E00E942E
:10033000C1028FE39FE10197F1F700C0000008952B
:100340000E944F0262ED70E080E00E9424026DE89E
:100350008AE20E943A026EE38BE20E943A026EE168
:100360008DE20E943A0260E08CE20E943A0260E470
:1003700085E10E943A026DE381E10E943A026FE753
:1003800086E20E943A0263E884E10E943A028FE129
:0C0390009EE40197F1F700C00000089502
:10039C00CF93C82FC860662311F0C82FC9600E9484
:1003AC00D4028EE40E94B7028C2F84600E94B702A4
:1003BC0085E08A95F1F700008C2F0E94B70287EC3C
:1003CC0090E00197F1F700C000000E94AD02CF91C0
:0203DC00089582
:1003DE0087E690E00E9497020E94CB020E9468017D
:1003EE000E948C020E9472020E947F022FEF81EE09
:1003FE0094E0215080409040E1F700C000000E9440
:08040E000B020E94A001FFCFC8
:1004160084B1826084B985B18D7F85B98FE39CE90B
:100426000197F1F700C0000085B1826085B99FEFA2
:1004360020E782E0915020408040E1F700C00000B4
:02044600089517
:10044800CF92DF92EF926B01E82E06C09FEFC91A98
:10045800D90AE90A0E94DC02F6018491E7FC80814E
:0C0468008111F4CFEF90DF90CF90089549
:10047400CF93C62F95B19B7F95B990E0880F991FB4
:100484008E7799270E94E3028C2F90E00E94E3026A
:0A04940085B1846085B9CF91089509
:10049E0062EC70E080E00E94240260E181E00E9444
:1004AE003A022FEF80E792E0215080409040E1F732
:0604BE0000C000000895DB
:1004C400CF93DF93C82FD62F807F0E94CE016D2F4C
:1004D4008C2F8295807F0E94CE01DF91CF91089569
:1004E4008AB180688AB98AB180648AB98BB18F77FE
:0A04F4008BB98BB18F7B8BB9089593
:1004FE008AB18F7E8AB98AB18F7D8AB98BB18061BC
:0A050E008BB98BB180628BB90895A0
:1005180084B18C6284B984B18F7E84B980E58CBD46
:0605280081E08DBD089585
:10052E009093C5008093C40088E18093C10086E05B
:06053E008093C200089545
:10054400EC010E94EE020E94ED02CE010E94EF0235
:06055400CE010E94EB0243
:10055A0084E98093BC008FE891E00197F1F700C02D
:04056A0000000895F0
:10056E008093BB0084E88093BC008091BC008823FC
:04057E00E4F7089501
:1005820060E00E9462028FE39FE10197F1F700C0F1
:0405920000000895C8
:100596001092B90088E48093B80084E08093BC0090
:0205A6000895B6
:1005A80084EA8093BC008091BC008823E4F7089516
:0E05B8009091C00095FFFCCF8093C60008957F
:0C05C6008EBD0DB407FEFDCF8EB508956C
:0405D2000C94000085
:0405D6000E945C0023
:0205DA00089582
:0205DC00089580
:0205DE0008957E
:00000001FF
