:100000000C9437000C9413160C9413160C941316BE
:100010000C9413160C9413160C9413160C941316BC
:100020000C9413160C9413160C9413160C941316AC
:100030000C9413160C9413160C9413160C9413169C
:100040000C9413160C9413160C9413160C9413168C
:100050000C9413160C9413160C9413160C9413167C
:100060000C9413160C941316010001078000112440
:100070001FBECFEFD8E0DEBFCDBFE8E6F0E040E046
:1000800017C0B591A59135912591059107FD0CC03B
:1000900095918591EF01F92FE82F05900D92A21708
:1000A000B307D9F7FE0104C01D92A217B307E1F709
:1000B000ED36F40731F70E9442070C946515F89469
:0200C000FFCF70
:1000C200303132333435363738394142434445468C
:1000D2000041434345534F205045524D49544944F2
:1000E2004F0041434345534F205045524D495449D7
:1000F200444F0D0A0041434345534F2044454E456A
:100102004741444F005461726A65746120696E769A
:10011200E16C6964610041434345534F2044454EBD
:10012200454741444F0D0A004944206120726567EA
:100132006973747261723A200020000D0A00455200
:10014200524F5200494420696E76E16C69646F0037
:100152004552524F52202D2049442064652074613B
:10016200726A65746120696E76E16C69646F0D0A6A
:10017200004E55455641205441524A455441005281
:10018200454749535452414441000D0A53452052B8
:100192004547495354524F204C41204E55455641F4
:1001A200205441524A4554410D0A000D0A494E4914
:1001B2004349414E444F20424F525241444F204402
:1001C20045205441524A4554410D0A005441524A75
:1001D20045544120424F5252414441000D0A534579
:1001E20020424F52524F204C41205441524A4554D2
:1001F200410D0A004E6F20686179206D6173207491
:1002020061726A6574617320726567697374726181
:100212006461730D0A0053495354454D41205246BF
:10022200494400496E696369616C697A616E646F01
:100232000053495354454D41204C4953544F0053A8
:10024200494E205441524A455441004163657271FE
:100252007565207461726A657461000D0A42696590
:100262006E76656E69646F20616C20736973746564
:100272006D6120524649440D0A005461726A6574E8
:1002820061207265676973747261646120656E636F
:100292006F6E747261646120656E20454550524FE5
:1002A2004D0D0A004E6F20686179207461726A6593
:1002B200746120726567697374726164610D0A000A
:1002C2000D0A53697374656D61206C6973746F2EC6
:1002D200204573706572616E646F207461726A6525
:1002E2007461730D0A0D0A004D4F444F2052454769
:1002F200495354524F000D0A4D4F444F2052454727
:10030200495354524F20414354495641444F0D0AD8
:10031200004573706572616E646F206E75657661FB
:10032200207461726A657461207061726120726505
:1003320067697374726172200D0A005449454D5009
:100342004F2041474F5441444F005469656D706FCF
:100352002061676F7461646F202D20726567697315
:1003620074726F2063616E63656C61646F0D0A0065
:100372005461726A657461206C65ED64613A000DC6
:100382000A5441524A45544120444554454354413C
:1003920044410D0A0049443A20000D0A566572692B
:1003A200666963616E646F2061636365736F0D0AD2
:1003B2000053494E205441524A4554412052454728
:1003C200005265676973747265207072696D657237
:1003D2006F000D0A41434345534F2044454E454764
:1003E20041444F3A204E4F20484159205441524AED
:1003F20045544120524547495354524144410D0A04
:1004020000494420636F7272656374610D0A00498A
:0F0412004420696E636F7272656374610D0A0036
:100421003A20000D0A00536F66742052657365749B
:100431002E2E2E0D0A00436F6E6669677572616E0E
:10044100646F2074656D706F72697A61646F726533
:10045100732079206D6F64756C6163696F6E2E2EE8
:100461002E0D0A00526567697374726F7320636C95
:1004710061766520646573707565732064652069B4
:100481006E69743A0D0A0056657273696F6E526532
:1004910067005478436F6E74726F6C5265670054D5
:1004A1007841534B526567004D6F64655265670033
:1004B100544D6F6465526567005450726573636192
:1004C1006C6572526567005452656C6F6164526568
:1004D1006748005452656C6F61645265674C005205
:1004E10046436667526567000D0A3D3D3D20456EF6
:1004F1007669616E646F2052455141203D3D3D0D4D
:100501000A00436F6D6D49727152656720616E74A7
:1005110065733A2000004649464F4C6576656C523A
:10052100656720616E7465733A20004649464F4401
:100531006174615265675B6573637269746F5D3A7B
:100541002000436F6D6D4972715265672064657358
:10055100707520733A20004649464F4C6576656CAC
:1005610052656720646573707520733A2000457287
:10057100726F725265673A200054696D656F7574C8
:1005810020524551412C207461726A657461206E5C
:100591006F206465746563746164610D0A0049527A
:1005A100512061637469766164612C206C656572A8
:1005B100206461746F73204649464F0D0A00464915
:1005C100464F4C6576656C5265673A200046494650
:1005D1004F446174615265675B6C6569646F5D3A34
:1005E10020005461726A6574612064657465637486
:1005F1006164612120496E74656E74616E646F205F
:100601006C656572205549442E2E2E0D0A005469E1
:100611006D656F757420416E7469636F6C6C69737D
:10062100696F6E0D0A00554944206C6569646F3A23
:040631002000200085
:1006350068076C094C836A9074A07AC0008068884A
:0606450000846C820081BC
:0A064B00307825303258000D0A0007
:07065500286E756C6C290092
:06065C00286E696C290004
:10066200A3EAB0E0E7E3F3E00C94A4134C015901D0
:10067200C756DF4F488359836A83C959D040212C1A
:10068200312C6E012BE8C20ED11C85E2782E260198
:1006920030E8632ECE018D569F4FC456DF4F9983AB
:1006A2008883CC59D0409C0140E8CF55DF4F288346
:1006B20039834A83C15AD040C756DF4F4881C9594E
:1006C200D040C656DF4F5881CA59D040C556DF4F79
:1006D2006881CB59D040FA01849167FD80818823DB
:1006E20009F4C9C3CF57DF4F19821882C158D040CD
:1006F2008FEF9FEFCD57DF4F99838883C358D04048
:10070200CB57DF4F19821882C558D040A1E0B0E024
:10071200AC0FBD1FC957DF4FB983A883C758D0405C
:10072200E0E8F0E0C757DF4FF983E883C958D040CB
:10073200CA01A62FE12CF12CFC012491A7FD2081F6
:1007420021111BC0E114F10401F19701C4010E94BF
:10075200E711C756DF4F88819981AA81C959D040D4
:100762008E0D9F1DA11DF7FCAA95C756DF4F8883EA
:100772009983AA83C959D04008C00196A11D253288
:1007820009F3FFEFEF1AFF0AD7CFC756DF4F888171
:100792009981AA81C959D040FC012491A7FD2081E9
:1007A200253209F056C39C014A2F2F5F3F4F4F4F0E
:1007B200C256DF4F288339834A83CE59D040C75669
:1007C200DF4F288339834A83C959D040C756DF4F48
:1007D20088819981AA81C959D040FC012491A7FD41
:1007E20020812B3241F4CF57DF4F28813981C15804
:1007F200D04024600BC02C32CCF02D3259F5CF57AB
:10080200DF4F28813981C158D0402160CF57DF4F57
:1008120039832883C158D0400196A11DC756DF4FA6
:1008220088839983AA83C959D040D0CF203241F41A
:10083200CF57DF4F28813981C158D0402860E6CF99
:10084200233291F4CF57DF4F28813981C158D040EC
:100852002061DCCF203341F4CF57DF4F288139812B
:10086200C158D0402260D2CF2A3299F50196A11DFB
:10087200C756DF4F88839983AA83C959D040D501CF
:10088200ED91FC911197CF0102968D939C938081FB
:100892009181CB57DF4F99838883C558D04097FF0A
:1008A2003EC0CF57DF4F28813981C158D040B1E0D7
:1008B2002B27CF57DF4F39832883C158D0409195DA
:1008C20081959109CB57DF4F99838883C558D040D2
:1008D20026C0BC018A2F0E94BB10CB57DF4F9983E1
:1008E2008883C558D040C756DF4F288139814A8155
:1008F200C959D040F901849147FD8081082E000C2E
:10090200990BC0970A9758F42F5F3F4F4F4FC75626
:10091200DF4F288339834A83C959D040E4CFCF5768
:10092200DF4F88819981C158D04080FF07C08D7FF9
:10093200CF57DF4F99838883C158D040C756DF4FC6
:1009420088819981AA81C959D040FC012491A7FDCF
:1009520020812E3209F058C0CD57DF4F19821882FC
:10096200C358D0409C014A2F2F5F3F4F4F4FC7566D
:10097200DF4F288339834A83C959D040F901549102
:1009820047FD50815A32D1F40296A11DC756DF4F5E
:1009920088839983AA83C959D040D501ED91FC91EE
:1009A2001197CF0102968D939C9380819181CD57AF
:1009B200DF4F99838883C358D04026C0842FB90162
:1009C2000E94BB10CD57DF4F99838883C358D04014
:1009D200C756DF4F288139814A81C959D040F90170
:1009E200849147FD8081082E000C990BC0970A97CD
:1009F20058F42F5F3F4F4F4FC756DF4F288339833D
:100A02004A83C959D040E4CFCE0187569F4F0E94F6
:100A12002310182FC756DF4F2881C959D040C65618
:100A2200DF4F8881CA59D040C556DF4F9881CB59D4
:100A3200D040E22FF82F849197FD8081082E000C80
:100A4200990B0E94D5158936910509F45AC0B4F460
:100A52008336910509F466C144F48532910509F49F
:100A6200A1C18136910529F1B3C18436910509F4FA
:100A720048C0883691050CF42DC1AAC18037910572
:100A820009F4CBC04CF48E36910509F419C18F36A6
:100A9200910509F47CC09CC18537910509F454C0C5
:100AA2008837910509F496C08337910509F090C102
:100AB20058C1612F70E0A501C6010E942913892B3C
:100AC20009F4B7C1C756DF4F88819981AA81C959F4
:100AD200D0409C014A2F2F5F3F4F4F4FC756DF4FE9
:100AE200288339834A83C959D040FC012491A7FD48
:100AF2002081A601BE016F577F4FC4010E941016CC
:100B020095C1612F70E0950141E050E0C6010E945D
:100B1200D00A892B09F48DC1C756DF4F888199818C
:100B2200AA81C959D0400196A11DC756DF4F8883BB
:100B32009983AA83C959D040A601BE016F577F4F3E
:100B4200C4010E94110A72C1612F70E0950140E058
:100B520050E0C6010E94D00A892B09F46AC1C75627
:100B6200DF4F88819981AA81C959D0400196A11D80
:100B7200C756DF4F88839983AA83C959D040A601FB
:100B8200BE016F577F4FC4010E94280F4FC1612FD2
:100B920070E0950140E050E0C6010E94D00A892B26
:100BA20009F447C1C756DF4F88819981AA81C95983
:100BB200D0400196A11DC756DF4F88839983AA832F
:100BC200C959D040A601BE016F577F4FC4010E9490
:100BD200590E2CC1612F70E0950140E050E0C60132
:100BE2000E94D00A892B09F424C1C756DF4F88819D
:100BF2009981AA81C959D0409C014A2F2F5F3F4F4A
:100C02004F4FC756DF4F288339834A83C959D04093
:100C1200FC012491A7FD20814BC0950140E050E0EA
:100C220060EF70E0C6010E94D00A892B09F401C16D
:100C3200C756DF4F88819981AA81C959D040019650
:100C4200A11DC756DF4F88839983AA83C959D04013
:100C520086E02CE536E040E0F901DE01AD56BF4FFB
:100C6200742F0E942A15D6012C9111963C9111974E
:100C720012964C91129713965C91139714966C915D
:100C8200149715967C91159716968C911697179630
:100C92009C91A0E00E94431551F400E010E0CF5572
:100CA200DF4F288139814A81C15AD040B9C028E733
:100CB200A601BE016F577F4FC4010E94D108B6C082
:100CC200612F70E09501A1014E0D5F1DC6010E94CA
:100CD200ED0DAFC0612F70E0A501C6010E9429137E
:100CE200892B09F4A6C0C756DF4F88819981AA8152
:100CF200C959D0409C014A2F2F5F3F4F4F4FC756D3
:100D0200DF4F288339834A83C959D040FC0124919B
:100D1200A7FD2081A601BE016F577F4FC4010E942B
:100D2200101684C0103809F084C0C756DF4F88817E
:100D32009981AA81C959D0400196A11DC756DF4F9A
:100D420088839983AA83C959D040D501ED91FC913A
:100D52001197CF0102968D939C938081F601808337
:100D62005BC0103809F065C0C756DF4F8881998192
:100D7200AA81C959D0400196A11DC756DF4F888369
:100D82009983AA83C959D040D501ED91FC9111975D
:100D9200CF0103968D939C9320813181428100E0A3
:100DA20010E03EC0103809F044C0C756DF4F8881BA
:100DB2009981AA81C959D0400196A11DC756DF4F1A
:100DC20088839983AA83C959D040F601708224C0CE
:100DD200D6017C92C256DF4F288139814A81CE5991
:100DE200D040C756DF4F288339834A83C959D04040
:100DF200CF57DF4F19821882C158D040CB57DF4FEF
:100E020019821882C558D0408FEF9FEFCD57DF4F20
:100E120099838883C358D04001E010E0462D9201A7
:100E2200BE016F577F4FC4010E94C30E8E0D9F1DDE
:100E320011C0C756DF4F88819981AA81C959D04014
:100E42000196A11DC756DF4F88839983AA83C9598A
:100E5200D040C7017101E80EF91EE214F3044CF40C
:100E62008FE490E090930101809300018FEF9FEF58
:100E720003C0170121CCC101CD55DF4FE2E10C9433
:020E8200DB1380
:100E8400CF93DF9300D000D00F92CDB7DEB787E6C3
:100E940090E00E945A150E9498150E9479110E94B0
:100EA4004F150E9410150E941D152FEF81EE94E03E
:100EB400215080409040E1F700C000000E94F613EA
:100EC4000E941B120E9468136DE572E080E00E948C
:100ED4003D1482E091E00E949F128093060180916C
:100EE4000601882331F06CE772E080E00E943D1433
:100EF40005C066EA72E080E00E943D140E94491336
:100F040062EC72E080E00E943D1410E000E002C058
:100F14000E2D1D2D0E94DD15E82E882341F00111B0
:100F240006C00E94C6120E9475120E9449130E94B4
:100F3400CD15D82E882309F46EC011116CC00E94FF
:100F4400C6120E948E1560E080E00E94A1156AEE30
:100F540072E080E00E94271461E080E00E94A11505
:100F64006DE472E080E00E94271468EF72E080E094
:100F74000E943D1463E173E080E00E943D1400E0B0
:100F840010E0F12C26C0CE01019625E0FC0111925F
:100F94002A95E9F70E94D10C8981882379F0CE0142
:100FA40001960E942E0CFFEF27EA81E6F1502040C3
:100FB4008040E1F700C00000FF24F3949FEFE1EECE
:100FC400F4E09150E040F040E1F700C000000F5F12
:100FD4001F4FF11003C004361105A8F2F11019C017
:100FE4000E948E1560E080E00E94A1156DE373E01D
:100FF40080E00E9427142FEF8DE399E42150804074
:101004009040E1F700C000006CE473E080E00E94CF
:101014003D140E944913CE01019625E0FC01119272
:101024002A95E9F70E94D10C8981882309F4ADC07F
:101034000E948E1560E080E00E94A11562E773E0D3
:1010440080E00E94271461E080E00E94A11510E076
:1010540011C0E1E0F0E0EC0FFD1FE10FF11D808114
:101064000E94B111133028F46BE371E080E00E9418
:1010740027141F5F143068F361E873E080E00E9476
:101084003D1467E973E080E00E943D1410E00FC056
:10109400E1E0F0E0EC0FFD1FE10FF11D80810E9403
:1010A40049126BE371E080E00E943D141F5F14302D
:1010B40078F36DE371E080E00E943D14FFEF2FE0D0
:1010C40087E2F15020408040E1F700C000006CE965
:1010D40073E080E00E943D1480910601811132C0CA
:1010E4000E948E1560E080E00E94A11563EB73E01E
:1010F40080E00E94271461E080E00E94A11563EC67
:1011040073E080E00E94271464ED73E080E00E94A5
:101114003D140E9408169FEFE1E1FAE79150E04088
:10112400F040E1F700C000000E940C160E94491331
:101134002FEF89E698E1215080409040E1F700C00C
:101144000000E6CEBE016F5F7F4F82E091E00E9417
:101154000311882341F063E074E080E00E943D14B1
:101164000E94091307C061E174E080E00E943D140D
:101174000E943E110E944913EFEFF9E628E1E15085
:10118400F0402040E1F700C000008FEF91EEE4E072
:0E11940081509040E040E1F700C00000B9CE6D
:1011A200A4E1B0E0E7EDF8E00C94A41398878F83F4
:1011B2007A8369835C8B4B8B122FDB011296ED9144
:1011C200FC91139714962D913C9115973E832D8394
:1011D200ED90FC90119716962D903C901797F7FD85
:1011E20003C0E894E1F802C0E1E0F0E0C7018071D9
:1011F20099279A878987E4FE1FC0AB89BC892C9105
:1012020011963C91119712964C91129713965C91FC
:10121200139714966C91149715967C9115971696C0
:101222008C91169717969C91A0E00E94431521F08D
:101232008D819E81029702C08D819E8197012870C7
:1012420033273C872B87E3FC0197AB89BC894C9001
:1012520011965C90119712966C90129713967C904F
:10126200139714968C90149715969C901597169632
:10127200AC9016971796BC90A981BA811896CD901A
:10128200DC901997B1E0CB1AD108D101AC0DBD1D8C
:101292001C929C838B839F01281B390B3E872D87D1
:1012A200C70182709927988B8F87812F012E000C9E
:1012B200990BDC01A154B109BA8BA98B32E0C31698
:1012C200D10434F489859A85892B09F04CC073C006
:1012D2009201A301B401C501A0E00E94431581F16E
:1012E200B1E0CB1AD108C2018F7099278A309105DB
:1012F20014F4C09602C0895A9F4FE989FA897A97F5
:1013020048F49C012062215631092A31310510F43A
:101312000E94B315F101EC0DFD1D80832B813C81F0
:10132200215031093C832B839201A301B401C501F1
:1013320004E00E94881329013A014B015C01BECFEF
:101342008D859E85AB81BC818A0F9B1F181619065D
:101352003CF21A161B060CF0B5CFEF85F889EF2B7D
:1013620009F0BECFAFCFAB89BC892C9111963C91CD
:10137200119712964C91129713965C9113971496AB
:101382006C91149715967C91159716968C911697D9
:1013920017969C91A0E00E94431569F0F101EC0DB3
:1013A200FD1D31971083B2E0CB1AD108F101EC0D8B
:1013B200FD1D80E38083EB85FC85EF2B41F0F1E09E
:1013C200CF1AD108F101EC0DFD1D80E28083A981C5
:1013D200BA8118962D913C911997215031092C19F7
:1013E2003D09C20CD31CA60160E80D811E818F81CC
:1013F20098850E94660D9C01EF81F885808191811C
:1014020090FF09C0A981BA8112968D919C91139780
:10141200821793070CF4C9016496E2E10C94DB1382
:10142200ADE0B0E0E7E1FAE00C94A4139A87898773
:101432007C836B83FA01DB011296CD90DC901397CB
:1014420014968D919C9115979E838D83ED90FC90BF
:101452001197FA82E98216960D90BC91A02DB88759
:10146200AF83208031804280538064807580868083
:1014720097808101B42DF52DE62D7B868C869D8685
:101482009101A201B301C401A0E00E9443154CF4F2
:101492000E94D5148901B42FF52FE62F7B878C8704
:1014A2009D87D7FC04C0E894E1F8FA82E9829101B1
:1014B200A201B301C401A0E0ED80FE800E944315A9
:1014C2001CF0898182FF04C081E0E81AF10805C09E
:1014D20083FF03C091E0E91AF108CE0101965C0195
:1014E2008AE0C82ED12C2B2F3F2F4E2F5B856C8587
:1014F2007D858B819C810E94890BFC019101A20157
:10150200B301C401A0E00E9443151CF0898182FF4F
:1015120012C031970F8118850E0F1F1F9101A20172
:10152200B301C401A0E00E94431514F08BE201C094
:101532008DE2D80108C083FF07C03197AF81B8851B
:10154200AE0FBF1F80E28C93E980FA80AB81BC8131
:1015520018962D913C911997215031092E1B3F0B62
:101562008F819885E80FF91FAF0160E80D811E8118
:1015720089859A850E94660D9C01A985BA858D91FF
:101582009C9190FF07C0EB81FC818281938182173D
:0E15920093070CF4C9012D96E2E10C94DB13D3
:1015A0000F931F93CF93DF93FC01D9016838710526
:1015B00031F194F461387105B1F12CF460387105A2
:1015C00009F478C09FC06238710509F459C06438C5
:1015D000710509F46FC096C0603A710509F448C0FE
:1015E0002CF46039710509F44BC08CC0603C710566
:1015F00009F476C0603F710509F472C083C0CD91D3
:10160000DC911197CE0102968D939C93452B39F076
:101610009881892F880F880B908381835BC0888194
:101620008083118268C0CD91DC911197CE01049620
:101630008D939C93452B99F088819981AA81BB81D8
:10164000AC01BD01770F440B542FBA018083918305
:10165000A283B383448345834683478328C008819C
:1016600019812A813B81008311832283338345C002
:10167000CD91DC911197CE0102968D939C9323C05E
:10168000CD91DC911197CE0108968D939C93788132
:1016900069815A814B813C812D819E818F8170832C
:1016A000618352834383348325839683878381E0D8
:1016B00090E02AC0CD91DC911197CE0102968D93D6
:1016C0009C93452BA1F099812881892F880F880B45
:1016D0002083918382838383848385838683E6CF7B
:1016E000CD91DC911197CE0102968D939C93088148
:1016F000198100831183128213821482158216824B
:101700001782D5CF80E090E0DF91CF911F910F91AC
:0217100008953A
:10171200A2E1B0E0EFE8FBE00C94A413FC010A8B19
:101722001B832C83732E642E552E462E7D83CC86EE
:10173200D886BF82AE82868197819B878A87D501B0
:101742004D915C91228133818085918501971C01A5
:1017520037FF02C021E030E0EA85FB85E80FF91F80
:1017620010824701E1E0F0E0FA83E983C9018E19B2
:101772009F099E878D87DA01A270BB27B88BAF873E
:10178200B885BB0FBB0BB98B1214130474F0A9817B
:10179200BA81AB2B09F05CC0AE81BF818D919C9167
:1017A20011978F7E8D939C9353C02A893B814C81E4
:1017B200572D662D752D842D9D81A0E00E94431525
:1017C200B1F1E1E02E1A3108FC85F987AF2EB88419
:1017D200C988DC2CEC2CFC2C0C2D1C2D2A893B817D
:1017E2004C81572D662D752D842D9D810E940215E9
:1017F200C90129839A83EA85FB85E20DF31D805D89
:10180200808381E0881A91082A893B814C81572D77
:10181200662D752D842D9D810E9404152A8B3B8394
:101822004C83752E662E572E482E9D83ADCF8D8507
:101832009E85880D991D181619061CF21814190494
:101842000CF0A5CFEF85F889EF2B09F0BACF9FCF27
:0A185200C1016296E2E10C94DB1381
:10185C000F931F93CF938C016AE271E080E00E949A
:10186C003D14C0E00CC0F801EC0FF11D80810E940A
:10187C0049126BE371E080E00E943D14CF5FC430ED
:10188C0090F36DE371E080E00E943D1480E008C0AD
:10189C00F801E80FF11D908191509E3F28F08F5F69
:1018AC008430B0F380E001C081E0811127C00E9438
:1018BC008E1560E080E00E94A11560E471E080E08C
:1018CC000E94271461E080E00E94A11566E471E09B
:1018DC0080E00E94271462E571E080E00E943D14D4
:1018EC000E9408162FEF87EA91E621508040904025
:1018FC00E1F700C000000E940C1649C0C8010E940C
:10190C00C01320E00BC0822F90E0F801E80FF91F04
:10191C003081FC01EE5FFE4F30832F5F243098F353
:10192C0081E0809306010E948E1560E080E00E94A9
:10193C00A11563E771E080E00E94271461E080E06C
:10194C000E94A11561E871E080E00E9427146CE808
:10195C0071E080E00E943D14C0E017C00E940016A8
:10196C002FEF85EA9EE0215080409040E1F700C0C7
:10197C0000000E9404162FEF85EA9EE02150804063
:10198C009040E1F700C00000CF5FC33038F3CF9137
:06199C001F910F91089558
:1019A2000F931F93CF93DF938C0185E0F80111927F
:1019B2008A95E9F767E08DE00E9469146FE784E099
:1019C2000E94691460E88AE00E946914C0E005C0C0
:1019D20066E289E00E946914CF5FCC23C9F36CE010
:1019E20081E00E94691460E88DE00E94F414C8EE60
:1019F200D3E084E00E94B4142197807311F42097FD
:101A0200C1F760E88DE00E94E514CD2B09F458C0BF
:101A12008AE00E94B414D82FC0E004C089E00E947A
:101A2200B414CF5FCD17D0F3DD2309F449C060E0D1
:101A32008DE00E9469146FE784E00E94691460E8F7
:101A42008AE00E94691463E989E00E94691460E2F5
:101A520089E00E9469146CE081E00E94691460E8E8
:101A62008DE00E94F414C8EED3E084E00E94B41426
:101A72002197807311F42097C1F760E88DE00E94EE
:101A8200E514CD2BE9F08AE00E94B4148530C1F44C
:101A9200C0E0D0E009C089E00E94B414F801EC0F64
:101AA200F11D8083D827CF5FC430A8F389E00E945C
:101AB200B414D81729F085E0F80111928A95E9F754
:0A1AC200DF91CF911F910F9108955D
:101ACC002F923F924F926F927F928F92AF92BF92D2
:101ADC00CF92DF92EF92FF920F931F93CF93DF93EE
:101AEC00CDB7DEB766970FB6F894DEBF0FBECDBF8D
:101AFC005C013A01862E6901C701817099279C8B84
:101B0C008B8BE0FC1DC020173107D4F47801EC1846
:101B1C00FD08FE8AED8AA70191E1E916F10410F0A7
:101B2C0040E150E060E270E0CE0101969A8B898B27
:101B3C000E94AA1589899A891C0120E8422E0BC0A3
:101B4C009601682DA301C5010E94E711C016D106AC
:101B5C00ECF2C60125C090E1E916F10458F020E141
:101B6C0030E0642DA101C5010E94E71180E1E81A63
:101B7C00F108F1CF2D893E892F70332789899A89F5
:101B8C00AC0160E8C5010E94E7118B899C89892B07
:101B9C0031F49601682DA301C5010E94E711C8011B
:101BAC0066960FB6F894DEBF0FBECDBFDF91CF9116
:101BBC001F910F91FF90EF90DF90CF90BF90AF905F
:0E1BCC008F907F906F904F903F902F900895D4
:101BDA00CF93DF93DC01F90164387105D9F164F41C
:101BEA006138710521F16238710509F440C0603825
:101BFA00710509F054C02EC060397105C1F184F431
:101C0A006838710509F04BC0C081D181CE010296B6
:101C1A0091838083E881F981ED93FC9340833CC0F2
:101C2A00603A7105B9F0603C7105A1F038C0C08115
:101C3A00D181CE01029691838083E881F981ED9367
:101C4A00FC93052E000C660B770B4083518362834D
:101C5A00738322C0C081D181CE0102969183808391
:101C6A00E881F981ED93FC935183408315C0C081CB
:101C7A00D181CE01029691838083E881F981ED9327
:101C8A00FC9351834083852F880F880B828383833B
:101C9A00848385838683878381E090E002C080E025
:081CAA0090E0DF91CF91089555
:101CB200A2E0B0E0EFE5FEE00C94A4131C014B019E
:101CC200FA01DB0112962D913C91139714964D90D7
:101CD2005C9015978D919C9111979A8389831696A2
:101CE2006D907C90179737FD03C08D7F9A8389830F
:101CF20000811181228133814481558166817781FE
:101D0200FE0131965F0188E0C82ED12C7201C40118
:101D12000E94890B298124FF06C00197F301E80F75
:101D2200F91F20E32083298123FF06C00197F301D5
:101D3200E80FF91F20E22083E980FA80D401189687
:101D42002D913C91199721503109281B390B860D91
:101D5200971DAC0160E88201C1010E94660D9C01E1
:101D6200F1018081918190FF08C0D40112968D917A
:101D72009C911397821793070CF4C9012296E2E112
:041D82000C94DB13CF
:101D86002F923F924F926F927F928F92AF92BF9215
:101D9600CF92DF92EF92FF920F931F93CF93DF9331
:101DA600CDB7DEB727970FB6F894DEBF0FBECDBF0F
:101DB6006C017B013901842E980185E5282E86E089
:101DC600382E80E0482E87E0F101AE014F5F5F4F6D
:101DD600DA01742D0E942A15F70102811381A4806D
:101DE600B580E080F18061147104810419F43A0130
:101DF600F0E88F2E2115310529F4882DB3010E94B4
:101E060053149C0117FD04C00217130708F4980128
:101E16008501682DA301C6010E94660D27960FB69F
:101E2600F894DEBF0FBECDBFDF91CF911F910F910A
:101E3600FF90EF90DF90CF90BF90AF908F907F9004
:0A1E46006F904F903F902F90089589
:101E5000A2E0B0E0EEE2FFE00C94A4133C014B01E1
:101E6000FA01DB0112962D913C91139714964D9037
:101E70005C9015978D919C9111979A838983169602
:101E80002D903C90179737FD03C08D7F9A838983EF
:101E9000008111812281338144815581668177815E
:101EA000FE0131965F018AE0C82ED12C7201C40177
:101EB0000E94890BE980FA80D40118962D913C91FB
:101EC000199721503109281B390B820D931DAC0144
:101ED00060E88201C3010E94660D9C01F3018081CC
:101EE000918190FF08C0D40112968D919C91139717
:101EF000821793070CF4C9012296E2E10C94DB13DC
:101F00006F927F928F92EF92FF920F931F93CF93D6
:101F1000DF93CDB7DEB761970FB6F894DEBF0FBE83
:101F2000CDBFFE01319651E1DF011D925A95E9F7CF
:101F3000A2E0B1E0BA83A9839C838B8377FF09C0B9
:101F40008FE490E090930101809300018FEF9FEF69
:101F500019C03901842E7C01615071097F836E8321
:101F60009801682DA301CF010E940F14488559855F
:101F70002E813F814217530708F49A01F701E20FBF
:101F8000F31F108261960FB6F894DEBF0FBECDBF6F
:101F9000DF91CF911F910F91FF90EF908F907F90E5
:041FA0006F900895A1
:101FA40088249924F401E401B0E49F93AA279A15A4
:101FB4008B049C04ED05FE05CF05D007A10798F41A
:101FC400AD2FDC2FCF2FFE2FE92D982C892E982FA3
:101FD400872F762F652F542F432F322F2227B85067
:101FE40031F7BF9127C01B2EBF91BB27220F331F90
:101FF400441F551F661F771F881F991F881C991C33
:10200400EE1FFF1FCC1FDD1FAA1FBB1F8A149B04DA
:10201400EC05FD05CE05DF05A007B10748F08A18D9
:102024009B08EC09FD09CE09DF09A00BB10B216067
:102034001A94E1F62EF49401AF01BE01CD01000C17
:022044000895FD
:10204600CF92DF92EF92DC0190E0292F30E0220F51
:10205600331F6901032E000CEE086E2DA6014B5CA2
:10206600594F6F4F6A01E62EFA018491E7FC808191
:1020760081110DC02F5F3F4F032E000C440B2B5CCC
:10208600394F4F4FF901849147FD808124C0CD908F
:10209600DD90EC901297F6014491E7FC40818413A1
:1020A60015C02F5F3F4F032E000C440B2B5C394F9E
:1020B6004F4FF901949147FD90815FEFC51AD50AFC
:1020C600E50ACD92DD92EC92129701C09F5F9B309C
:0E20D60008F4BBCF892FEF90DF90CF900895D4
:1020E4000F931F93CF93DF93DB012D913C911197B5
:1020F40030FF25C017964D915C91189715962D9138
:102104003C9116974217530778F41296ED91FC917F
:102114001397808312962D913C9113972F5F3F4F15
:1021240013963C932E93129717962D913C911897E2
:102134002F5F3F4F18963C932E93179715C01D960B
:10214400ED91FC911E97309719F48FEF9FEF0CC01F
:102154008B01EC010995892BC1F7F80187819085E2
:10216400019690878783CE01DF91CF911F910F91C4
:022174000895CC
:10217600CF939B01482FF901849147FD80818032DE
:10218600C9F1682F082E000C770B6950710965306C
:10219600710580F18B3249F5A0E0B0E02F5F3F4F2B
:1021A6004F4F02C0A0E0B0E080E090E0CAE0F90145
:1021B600649147FD6081062E000C770B6053710910
:1021C6006A30710560F4C89FF001C99FF00D1124B3
:1021D6002F5F3F4F4F4FCF01861B970BE8CFAB2B9F
:1021E60069F491958195910909C08D32D9F6A1E0DE
:1021F600B0E0D4CF2F5F3F4F4F4FBDCFCF91089563
:10220600CF93DC0190E051E0C1E015C0292F30E00A
:10221600FD01E20FF31F4081442321F080818F3FAF
:1022260009F0C0E0FB01E20FF31F208121502E3F91
:1022360008F450E09F5F943048F3C11115C0511166
:1022460015C080E00DC0282F30E0FD01E20FF31F1E
:102256004081FB01E20FF31F9081491309C08F5F94
:10226600843088F381E005C080E003C080E001C0CF
:0622760080E0CF91089505
:10227C00CF930E94F7150E9408160E948E1560E0FD
:10228C0080E00E94A11567EF70E080E00E942714A7
:10229C0061E080E00E94A11567E071E080E00E949F
:1022AC00271468E171E080E00E943D14C0E017C083
:1022BC000E9408162FEF83EC99E02150804090404B
:1022CC00E1F700C000000E940C162FEF83EC99E0A0
:1022DC00215080409040E1F700C00000CF5FC53036
:0622EC0038F3CF910895C4
:1022F2002FEF80E792E0215080409040E1F700C04C
:10230200000060E080E30E94E8128FE19EE4019702
:10231200F1F700C0000060E080E30E94E81287E568
:1023220092E00197F1F700C0000060E080E30E94B4
:10233200E81260E080E20E94E81288E20E948415BE
:102342008CE00E94841586E00E94841581E00E9440
:1023520084158FE39FE10197F1F700C00000089513
:102362001F93CF93DF93CDB7DEB761970FB6F89483
:10237200DEBF0FBECDBF182F22EC30E040E081E17E
:10238200F901DE011196742F0E942A15812F829580
:102392008F70E1E0F0E0EC0FFD1FE80FF11D80818E
:1023A2000E94FC151F70E1E0F0E0EC0FFD1FE10F51
:1023B200F11D80810E94FC1561960FB6F894DEBF74
:0C23C2000FBECDBFDF91CF911F91089599
:1023CE006F927F928F92CF92DF92EF920F931F9325
:1023DE00CF93DF938C016A01E62EE9013A01862E36
:1023EE00620E731E811C37FD8A94C614D704E8044E
:1023FE0079F0F6018491E7FC8081B801082E000C7B
:10240E00990B0E9472108FEFC81AD80AE80AEDCF06
:10241E00CE01DF91CF911F910F91EF90DF90CF9072
:08242E008F907F906F900895DC
:102436000E947C1467E374E080E00E943D146DE81E
:102446008AE20E9469146EE38BE20E9469146EE1CF
:102456008DE20E94691460E08CE20E94691460E4D7
:1024660085E10E9469146DE381E10E9469146FE7BA
:1024760086E20E94691463E884E10E9469148FE190
:0C2486009EE40197F1F700C000000895EB
:102492000F931F93CF93DF9300D000D000D0CDB71E
:1024A200DEB71F928F938BE496E0A0E0AF939F93E9
:1024B2008F938E010F5F1F4F1F930F930E948F14F4
:1024C200B80180E80E943D140FB6F894DEBF0FBE3B
:1024D200CDBF26960FB6F894DEBF0FBECDBFDF91FB
:0824E200CF911F910F910895A5
:1024EA006DEA71E080E00E943D141092060180E0DE
:1024FA0007C0E82FF0E0EE5FFE4F9FEF90838F5FFB
:10250A008430B8F30E94EB150E948E1560E080E0DB
:10251A000E94A1156EEC71E080E00E9427146EED16
:10252A0071E080E00E943D1466EF71E080E00E9455
:04253A003D140895AF
:10253E00FF920F931F93CF93DF938C0160E070E0B7
:10254E0080E00E94BC158A3A79F080E012C06F2DAF
:10255E0070E0E801C60FD71F6F5F7F4F80E80E94C3
:10256E00BC158883F39401C0F12C83E08F1578F7A6
:0E257E0081E0DF91CF911F910F91FF900895A2
:10258C002FEF80E792E0215080409040E1F700C0AF
:10259C00000006C08FE39CE90197F1F700C0000032
:1025AC000E94DD158111F6CF0E94CD158111F2CF5D
:1025BC009FEF20E782E0915020408040E1F700C07F
:0425CC00000008956E
:1025D000CF93C82FC860662311F0C82FC9600E942E
:1025E000C5158EE40E947A158C2F84600E947A159E
:1025F00085E08A95F1F700008C2F0E947A1587EC10
:1026000090E00197F1F700C000000E947015CF9193
:0226100008952B
:102612000E94F7150E9400160E948E1560E080E06D
:102622000E94A11563ED70E080E00E94271464EE21
:1026320070E080E00E943D142FEF8BE792E9215079
:1026420080409040E1F700C000000E940416089507
:10265200FA0160387105CCF0623871051CF06338FC
:10266200710599F4A081B1819D012C5F3F4F3183A7
:1026720020834D915D916D917C91FC01408351834A
:102682006283738381E090E0089580E090E0089592
:102692000E948E1560E080E00E94A11580910601E3
:1026A200882331F063E372E080E00E94271405C0C2
:1026B20061E472E080E00E94271461E080E00E9401
:0E26C200A1156DE472E080E00E9427140895D7
:1026D0000E948E1560E080E00E94A11568E172E022
:1026E00080E00E94271461E080E00E94A11565E26D
:1026F00072E080E00E9427142FEF87EA91E62150D4
:0C27000080409040E1F700C00000089508
:10270C0097FB10F8169400080F93083098F00850B7
:10271C00232F342F452F562F672F782F892F902D4D
:10272C00F4CF059497958795779567955795479529
:0C273C00379527950A95AAF70F9108958C
:102748002F923F924F925F926F927F928F929F92B9
:10275800AF92BF92CF92DF92EF92FF920F931F93A7
:10276800CF93DF93CDB7DEB7CA1BDB0B0FB6F89458
:08277800DEBF0FBECDBF0994C6
:102780000F931F93CF938C016AEA80E090E00E9440
:10279000A214C0E00AC08C2F90E0F801E80FF91FE6
:1027A000608101960E94A214CF5FC430A0F3CF9144
:0627B0001F910F91089536
:1027B6002A88398848885F846E847D848C849B84CB
:1027C600AA84B984C884DF80EE80FD800C811B81D9
:1027D600AA81B981CE0FD11D0FB6F894DEBF0FBE08
:0627E600CDBFED010895D6
:1027EC0084B1826084B985B18D7F85B98FE39CE912
:1027FC000197F1F700C0000085B1826085B99FEFA9
:10280C0020E782E0915020408040E1F700C00000BA
:02281C0008951D
:10281E00A2E0B0E0E5E1F4E10C94B2138C013A834E
:10282E0029839E012F5F3F4F0E943103F8012081C3
:10283E0024FF02C08FEF9FEF2296E4E00C94E91381
:10284E00CF92DF92EF926B01E82E06C09FEFC91A6E
:10285E00D90AE90A0E94FC15F6018491E7FC8081F1
:0C286E008111F4CFEF90DF90CF9008951F
:10287A00CF92DF92EF926B01E82E06C09FEFC91A42
:10288A00D90AE90A0E94E415F6018491E7FC8081DD
:0C289A008111F4CFEF90DF90CF900895F3
:1028A600CF92DF92EF926B01E82EA82FCB01FC01AD
:1028B6002491A7FD2081222319F00196A11DF7CFAF
:0C28C6008C199D09EF90DF90CF900895D1
:1028D200CF93C62F95B19B7F95B990E0880F991F32
:1028E2008E770E94F1158C2F0E94F11585B18460BC
:0628F20085B9CF910895A5
:1028F80067E274E080E00E943D1460E181E00E949C
:1029080069142FEF80E792E0215080409040E1F772
:0629180000C0000008955C
:10291E00A0E0B0E0E5E9F4E10C94B4139E01265F6B
:10292E003F4F4F81588569858D819E810E94371555
:06293E00E2E00C94EB1333
:10294400262FF999FECF92BD81BDF89A019700B464
:10295400021639F01FBA20BD0FB6F894FA9AF99A04
:042964000FBE089505
:1029680095B19B7F95B990E0880F991F8E77806805
:102978000E94F11580E00E94F11595B1946095B917
:022988000895B0
:10298A00CF93DF93C82FD62F807F0E94E8126D2F36
:10299A008C2F8295807F0E94E812DF91CF91089553
:1029AA0060957095809590953095409550952195B4
:1029BA003F4F4F4F5F4F6F4F7F4F8F4F9F4F08953E
:1029CA00CF93DF93D82FC62F0E94B414C0956C2FD3
:0E29DA0068238D2F0E946914DF91CF9108951C
:1029E800CF93DF93D82FC62F0E94B414682F6C2B77
:0C29F8008D2F0E946914DF91CF9108958B
:102A0400689401C0E8948F929F92CF93DF930E94C1
:0C2A1400D20FDF91CF919F908F9008951A
:102A20008AB180688AB98AB180648AB98BB18F779C
:0A2A30008BB98BB18F7B8BB9089531
:102A3A008AB18F7E8AB98AB18F7D8AB98BB180615A
:0A2A4A008BB98BB180628BB908953F
:102A5400992777FD05C005900D920197E1F7089538
:0A2A640001900D920197E1F708952B
:102A6E000F931F9389019A01462F6FEF7FE70E9404
:082A7E00800F1F910F910895D4
:102A86000024A7FD00942A1730054005500560056F
:082A960070058005900508950C
:102A9E0084B18C6284B984B18F7E84B980E58CBD9B
:062AAE0081E08DBD0895DA
:102AB4009093C5008093C40088E18093C10086E0B0
:062AC4008093C20008959A
:102ACA00EC010E9418160E941716CE010E941916D0
:062ADA00CE010E9415165A
:102AE00084E98093BC008FE891E00197F1F700C082
:042AF0000000089545
:102AF4008093BB0084E88093BC008091BC00882351
:042B0400E4F7089555
:102B080060E00E94C5148FE39FE10197F1F700C0D0
:042B1800000008951C
:102B1C0081E00E9484158FE39FE10197F1F700C0DB
:042B2C000000089508
:102B30001092B90088E48093B80084E08093BC00D0
:022B40000895F6
:102B4200611102C090E801C090EC890F0E948415C7
:022B52000895E4
:102B5400FC01480F591FE417F50711F06193FBCFEF
:022B64000895D2
:102B66009C01215631092A31310510F48F759927B8
:022B76000895C0
:102B7800CB01F999FECF92BD81BDF89A992780B50E
:022B88000895AE
:102B8A0084EA8093BC008091BC008823E4F708950E
:102B9A0089B182958695877091E089278170089519
:102BAA009C01215431092A31310508F480620895C3
:0E2BBA0089B182958F7091E08927817008950E
:0E2BC8009091C00095FFFCCF8093C600089549
:0C2BD6006FEF80E090E00E94A2140895D0
:0C2BE2008EBD0DB407FEFDCF8EB508952A
:0A2BEE000E9404160E940C160895C0
:082BF80061E00E94C51408957C
:082C00008BB180688BB90895C7
:082C08008BB18F778BB90895A1
:082C10008BB180648BB90895BB
:082C18008BB18F7B8BB908958D
:062C200080E090E0089541
:042C26000C9400000A
:042C2A000E945F00A5
:022C2E00089507
:022C3000089505
:022C3200089503
:00000001FF
