:100000000C9437000C94A8130C94A8130C94A81308
:100010000C94A8130C94A8130C94A8130C94A81374
:100020000C94A8130C94A8130C94A8130C94A81364
:100030000C94A8130C94A8130C94A8130C94A81354
:100040000C94A8130C94A8130C94A8130C94A81344
:100050000C94A8130C94A8130C94A8130C94A81334
:100060000C94A8130C94A81301000107800011241C
:100070001FBECFEFD8E0DEBFCDBFE8E6F0E040E046
:1000800017C0B591A59135912591059107FD0CC03B
:1000900095918591EF01F92FE82F05900D92A21708
:1000A000B307D9F7FE0104C01D92A217B307E1F709
:1000B000ED36F40731F70E94CA070C940F13F89439
:0200C000FFCF70
:1000C2003A20000D0A00536F6674205265736574FE
:1000D2002E2E2E0D0A00436F6E6669677572616E71
:1000E200646F2074656D706F72697A61646F726596
:1000F200732079206D6F64756C6163696F6E2E2E4B
:100102002E0D0A00526567697374726F7320636CF7
:100112006176652064657370756573206465206916
:100122006E69743A0D0A0056657273696F6E526594
:1001320067005478436F6E74726F6C526567005437
:100142007841534B526567004D6F64655265670095
:10015200544D6F64655265670054507265736361F4
:100162006C6572526567005452656C6F61645265CA
:100172006748005452656C6F61645265674C005267
:1001820046436667526567000D0A3D3D3D20456E58
:100192007669616E646F2052455141203D3D3D0DAF
:1001A2000A00436F6D6D49727152656720616E740A
:1001B20065733A2000004649464F4C6576656C529D
:1001C200656720616E7465733A20004649464F4464
:1001D2006174615265675B6573637269746F5D3ADE
:1001E2002000436F6D6D49727152656720646573BB
:1001F200707520733A20004649464F4C6576656C0F
:1002020052656720646573707520733A20004572E9
:10021200726F725265673A200054696D656F75742A
:1002220020524551412C207461726A657461206EBE
:100232006F206465746563746164610D0A004952DC
:10024200512061637469766164612C206C6565720A
:10025200206461746F73204649464F0D0A00464977
:10026200464F4C6576656C5265673A2000464946B2
:100272004F446174615265675B6C6569646F5D3A96
:1002820020005461726A65746120646574656374E8
:100292006164612120496E74656E74616E646F20C1
:1002A2006C656572205549442E2E2E0D0A00546944
:1002B2006D656F757420416E7469636F6C6C6973E0
:1002C200696F6E0D0A00554944206C6569646F3A86
:0402D20020002000E8
:1002D6003031323334353637383941424344454676
:1002E6000041434345534F205045524D49544944DC
:1002F6004F0041434345534F205045524D495449C1
:10030600444F0D0A0041434345534F2044454E4553
:100316004741444F005461726A65746120696E7684
:10032600E16C6964610041434345534F2044454EA7
:10033600454741444F0D0A0053495354454D41200A
:100346005246494400496E696369616C697A616E17
:10035600646F0053495354454D41204C4953544F03
:100366000053494E205441524A4554410041636569
:1003760072717565207461726A657461000D0A4256
:1003860069656E76656E69646F20616C207369734A
:1003960074656D6120524649440D0A005461726AC3
:1003A6006574612072656769737472616461206542
:1003B6006E636F6E747261646120656E2045455090
:1003C600524F4D0D0A004E6F20686179207461729C
:1003D6006A65746120726567697374726164610D20
:1003E6000A000D0A53697374656D61206C69737434
:1003F6006F2E204573706572616E646F2074617232
:100406006A657461730D0A0D0A005461726A657437
:1004160061206C65ED64613A0020000D0A5441527A
:100426004A455441204445544543544144410D0AEC
:100436000049443A20000D0A000D0A5665726966A5
:100446006963616E646F2061636365736F0D0A0093
:1004560053494E205441524A455441205245470083
:100466005265676973747265207072696D65726F23
:10047600000D0A41434345534F2044454E454741ED
:10048600444F3A204E4F20484159205441524A4544
:10049600544120524547495354524144410D0A00A4
:1004A600494420636F7272656374610D0A004944A2
:0E04B60020696E636F7272656374610D0A00D7
:1004C40068076C094C836A9074A07AC000806888BD
:0604D40000846C8200812F
:0A04DA00307825303258000D0A007A
:0704E400286E756C6C290005
:0604EB00286E696C290077
:1004F200A3EAB0E0EFE7F2E00C9477114C01590166
:10050200C756DF4F488359836A83C959D040212C8B
:10051200312C6E012BE8C20ED11C85E2782E260109
:1005220030E8632ECE018D569F4FC456DF4F99831C
:100532008883CC59D0409C0140E8CF55DF4F2883B7
:1005420039834A83C15AD040C756DF4F4881C959BF
:10055200D040C656DF4F5881CA59D040C556DF4FEA
:100562006881CB59D040FA01849167FD808188234C
:1005720009F4C9C3CF57DF4F19821882C158D0403E
:100582008FEF9FEFCD57DF4F99838883C358D040B9
:10059200CB57DF4F19821882C558D040A1E0B0E096
:1005A200AC0FBD1FC957DF4FB983A883C758D040CE
:1005B200E0E8F0E0C757DF4FF983E883C958D0403D
:1005C200CA01A62FE12CF12CFC012491A7FD208168
:1005D20021111BC0E114F10401F19701C4010E9431
:1005E2000610C756DF4F88819981AA81C959D04028
:1005F2008E0D9F1DA11DF7FCAA95C756DF4F88835C
:100602009983AA83C959D04008C00196A11D2532F9
:1006120009F3FFEFEF1AFF0AD7CFC756DF4F8881E2
:100622009981AA81C959D040FC012491A7FD20815A
:10063200253209F056C39C014A2F2F5F3F4F4F4F7F
:10064200C256DF4F288339834A83CE59D040C756DA
:10065200DF4F288339834A83C959D040C756DF4FB9
:1006620088819981AA81C959D040FC012491A7FDB2
:1006720020812B3241F4CF57DF4F28813981C15875
:10068200D04024600BC02C32CCF02D3259F5CF571C
:10069200DF4F28813981C158D0402160CF57DF4FC9
:1006A20039832883C158D0400196A11DC756DF4F18
:1006B20088839983AA83C959D040D0CF203241F48C
:1006C200CF57DF4F28813981C158D0402860E6CF0B
:1006D200233291F4CF57DF4F28813981C158D0405E
:1006E2002061DCCF203341F4CF57DF4F288139819D
:1006F200C158D0402260D2CF2A3299F50196A11D6D
:10070200C756DF4F88839983AA83C959D040D50140
:10071200ED91FC911197CF0102968D939C9380816C
:100722009181CB57DF4F99838883C558D04097FF7B
:100732003EC0CF57DF4F28813981C158D040B1E048
:100742002B27CF57DF4F39832883C158D04091954B
:1007520081959109CB57DF4F99838883C558D04043
:1007620026C0BC018A2F0E94DA0ECB57DF4F998335
:100772008883C558D040C756DF4F288139814A81C6
:10078200C959D040F901849147FD8081082E000C9F
:10079200990BC0970A9758F42F5F3F4F4F4FC75698
:1007A200DF4F288339834A83C959D040E4CFCF57DA
:1007B200DF4F88819981C158D04080FF07C08D7F6B
:1007C200CF57DF4F99838883C158D040C756DF4F38
:1007D20088819981AA81C959D040FC012491A7FD41
:1007E20020812E3209F058C0CD57DF4F198218826E
:1007F200C358D0409C014A2F2F5F3F4F4F4FC756DF
:10080200DF4F288339834A83C959D040F901549173
:1008120047FD50815A32D1F40296A11DC756DF4FCF
:1008220088839983AA83C959D040D501ED91FC915F
:100832001197CF0102968D939C9380819181CD5720
:10084200DF4F99838883C358D04026C0842FB901D3
:100852000E94DA0ECD57DF4F99838883C358D04068
:10086200C756DF4F288139814A81C959D040F901E1
:10087200849147FD8081082E000C990BC0970A973E
:1008820058F42F5F3F4F4F4FC756DF4F28833983AE
:100892004A83C959D040E4CFCE0187569F4F0E9468
:1008A200420E182FC756DF4F2881C959D040C6566D
:1008B200DF4F8881CA59D040C556DF4F9881CB5946
:1008C200D040E22FF82F849197FD8081082E000CF2
:1008D200990B0E9477138936910509F45AC0B4F432
:1008E2008336910509F466C144F48532910509F411
:1008F200A1C18136910529F1B3C18436910509F46C
:1009020048C0883691050CF42DC1AAC180379105E3
:1009120009F4CBC04CF48E36910509F419C18F3617
:10092200910509F47CC09CC18537910509F454C036
:100932008837910509F496C08337910509F090C173
:1009420058C1612F70E0A501C6010E94FC10892BDD
:1009520009F4B7C1C756DF4F88819981AA81C95965
:10096200D0409C014A2F2F5F3F4F4F4FC756DF4F5A
:10097200288339834A83C959D040FC012491A7FDB9
:100982002081A601BE016F577F4FC4010E94A513AB
:1009920095C1612F70E0950141E050E0C6010E94CF
:1009A2009209892B09F48DC1C756DF4F888199813D
:1009B200AA81C959D0400196A11DC756DF4F88832D
:1009C2009983AA83C959D040A601BE016F577F4FB0
:1009D200C4010E94D30872C1612F70E0950140E00A
:1009E20050E0C6010E949209892B09F46AC1C756D8
:1009F200DF4F88819981AA81C959D0400196A11DF2
:100A0200C756DF4F88839983AA83C959D040A6016C
:100A1200BE016F577F4FC4010E94470D4FC1612F26
:100A220070E0950140E050E0C6010E949209892BD6
:100A320009F447C1C756DF4F88819981AA81C959F4
:100A4200D0400196A11DC756DF4F88839983AA83A0
:100A5200C959D040A601BE016F577F4FC4010E9401
:100A6200780C2CC1612F70E0950140E050E0C60186
:100A72000E949209892B09F424C1C756DF4F88814D
:100A82009981AA81C959D0409C014A2F2F5F3F4FBB
:100A92004F4FC756DF4F288339834A83C959D04005
:100AA200FC012491A7FD20814BC0950140E050E05C
:100AB20060EF70E0C6010E949209892B09F401C11E
:100AC200C756DF4F88819981AA81C959D0400196C2
:100AD200A11DC756DF4F88839983AA83C959D04085
:100AE20086E02BEE34E040E0F901DE01AD56BF4F67
:100AF200742F0E94D412D6012C9111963C91119719
:100B020012964C91129713965C91139714966C91CE
:100B1200149715967C91159716968C9116971796A1
:100B22009C91A0E00E94ED1251F400E010E0CF553C
:100B3200DF4F288139814A81C15AD040B9C028E7A4
:100B4200A601BE016F577F4FC4010E948A06B6C03C
:100B5200612F70E09501A1014E0D5F1DC6010E943B
:100B62000C0CAFC0612F70E0A501C6010E94FC1001
:100B7200892B09F4A6C0C756DF4F88819981AA81C3
:100B8200C959D0409C014A2F2F5F3F4F4F4FC75644
:100B9200DF4F288339834A83C959D040FC0124910D
:100BA200A7FD2081A601BE016F577F4FC4010E949D
:100BB200A51384C0103809F084C0C756DF4F88815E
:100BC2009981AA81C959D0400196A11DC756DF4F0C
:100BD20088839983AA83C959D040D501ED91FC91AC
:100BE2001197CF0102968D939C938081F6018083A9
:100BF2005BC0103809F065C0C756DF4F8881998104
:100C0200AA81C959D0400196A11DC756DF4F8883DA
:100C12009983AA83C959D040D501ED91FC911197CE
:100C2200CF0103968D939C9320813181428100E014
:100C320010E03EC0103809F044C0C756DF4F88812B
:100C42009981AA81C959D0400196A11DC756DF4F8B
:100C520088839983AA83C959D040F601708224C03F
:100C6200D6017C92C256DF4F288139814A81CE5902
:100C7200D040C756DF4F288339834A83C959D040B1
:100C8200CF57DF4F19821882C158D040CB57DF4F60
:100C920019821882C558D0408FEF9FEFCD57DF4F92
:100CA20099838883C358D04001E010E0462D920119
:100CB200BE016F577F4FC4010E94E20C8E0D9F1D33
:100CC20011C0C756DF4F88819981AA81C959D04086
:100CD2000196A11DC756DF4F88839983AA83C959FC
:100CE200D040C7017101E80EF91EE214F3044CF47E
:100CF2008FE490E090930101809300018FEF9FEFCA
:100D020003C0170121CCC101CD55DF4FE2E10C94A4
:020D120093113B
:100D1400A4E1B0E0E0E9F6E00C94771198878F83C2
:100D24007A8369835C8B4B8B122FDB011296ED91D6
:100D3400FC91139714962D913C9115973E832D8326
:100D4400ED90FC90119716962D903C901797F7FD17
:100D540003C0E894E1F802C0E1E0F0E0C70180716B
:100D640099279A878987E4FE1FC0AB89BC892C9197
:100D740011963C91119712964C91129713965C918F
:100D8400139714966C91149715967C911597169653
:100D94008C91169717969C91A0E00E94ED1221F079
:100DA4008D819E81029702C08D819E81970128705A
:100DB40033273C872B87E3FC0197AB89BC894C9094
:100DC40011965C90119712966C90129713967C90E2
:100DD400139714968C90149715969C9015971696C5
:100DE400AC9016971796BC90A981BA811896CD90AD
:100DF400DC901997B1E0CB1AD108D101AC0DBD1D1F
:100E04001C929C838B839F01281B390B3E872D8763
:100E1400C70182709927988B8F87812F012E000C30
:100E2400990BDC01A154B109BA8BA98B32E0C3162A
:100E3400D10434F489859A85892B09F04CC073C098
:100E44009201A301B401C501A0E00E94ED1281F159
:100E5400B1E0CB1AD108C2018F7099278A3091056D
:100E640014F4C09602C0895A9F4FE989FA897A9787
:100E740048F49C012062215631092A31310510F4CD
:100E84000E945D13F101EC0DFD1D80832B813C81DB
:100E9400215031093C832B839201A301B401C50184
:100EA40004E00E945B1129013A014B015C01BECFB1
:100EB4008D859E85AB81BC818A0F9B1F18161906F0
:100EC4003CF21A161B060CF0B5CFEF85F889EF2B10
:100ED40009F0BECFAFCFAB89BC892C9111963C9160
:100EE400119712964C91129713965C91139714963E
:100EF4006C91149715967C91159716968C9116976C
:100F040017969C91A0E00E94ED1269F0F101EC0D9E
:100F1400FD1D31971083B2E0CB1AD108F101EC0D1D
:100F2400FD1D80E38083EB85FC85EF2B41F0F1E030
:100F3400CF1AD108F101EC0DFD1D80E28083A98157
:100F4400BA8118962D913C911997215031092C1989
:100F54003D09C20CD31CA60160E80D811E818F815E
:100F640098850E94850B9C01EF81F8858081918191
:100F740090FF09C0A981BA8112968D919C91139713
:100F8400821793070CF4C9016496E2E10C9493115F
:100F9400CF93DF9300D000D00F92CDB7DEB787E6B2
:100FA40090E00E9404130E9442130E94980F0E9432
:100FB400F9120E94BA120E94C7122FEF81EE94E038
:100FC400215080409040E1F700C000000E94AE1123
:100FD4000E943A100E943B1163E873E080E00E9493
:100FE400F51182E091E00E949410809306018091B3
:100FF4000601882331F062EA73E080E00E94F51173
:1010040005C06CEC73E080E00E94F5110E941C1195
:1010140068EE73E080E00E94F511CE01019625E0B0
:10102400FC0111922A95E9F70E94F00A898188232C
:1010340009F4ADC00E94381360E080E00E944B13B5
:1010440060E174E080E00E94DF1161E080E00E94D2
:101054004B1310E011C0E1E0F0E0EC0FFD1FE10FD5
:10106400F11D80810E94D00F133028F46FE174E0E9
:1010740080E00E94DF111F5F143068F361E274E0C6
:1010840080E00E94F51167E374E080E00E94F511AE
:1010940010E00FC0E1E0F0E0EC0FFD1FE10FF11DE7
:1010A40080810E9468106FE174E080E00E94F51175
:1010B4001F5F143078F36CE374E080E00E94F51154
:1010C400FFEF2FE087E2F15020408040E1F700C0BD
:1010D40000006FE374E080E00E94F5118091060146
:1010E400811132C00E94381360E080E00E944B13EB
:1010F40066E574E080E00E94DF1161E080E00E9418
:101104004B1366E674E080E00E94DF1167E774E049
:1011140080E00E94F5110E949D139FEFE1E1FAE740
:101124009150E040F040E1F700C000000E94A1139C
:101134000E941C112FEF89E698E1215080409040D5
:10114400E1F700C0000069CFBE016F5F7F4F82E00E
:1011540091E00E94220F882341F066EA74E080E067
:101164000E94F5110E94DC1007C064EB74E080E07B
:101174000E94F5110E945D0F0E941C11EFEFF9E629
:1011840028E1E150F0402040E1F700C000008FEF7B
:1011940091EEE4E081509040E040E1F700C00000AF
:0211A4003CCF3E
:1011A600ADE0B0E0E9EDF8E00C9477119A87898715
:1011B6007C836B83FA01DB011296CD90DC9013974A
:1011C60014968D919C9115979E838D83ED90FC903E
:1011D6001197FA82E98216960D90BC91A02DB887D8
:1011E600AF83208031804280538064807580868002
:1011F60097808101B42DF52DE62D7B868C869D8604
:101206009101A201B301C401A0E00E94ED124CF4C9
:101216000E947F128901B42FF52FE62F7B878C87DA
:101226009D87D7FC04C0E894E1F8FA82E98291012F
:10123600A201B301C401A0E0ED80FE800E94ED1280
:101246001CF0898182FF04C081E0E81AF10805C01C
:1012560083FF03C091E0E91AF108CE0101965C0113
:101266008AE0C82ED12C2B2F3F2F4E2F5B856C8505
:101276007D858B819C810E944B0AFC019101A20114
:10128600B301C401A0E00E94ED121CF0898182FF27
:1012960012C031970F8118850E0F1F1F9101A201F1
:1012A600B301C401A0E00E94ED1214F08BE201C06C
:1012B6008DE2D80108C083FF07C03197AF81B8859A
:1012C600AE0FBF1F80E28C93E980FA80AB81BC81B0
:1012D60018962D913C911997215031092E1B3F0BE1
:1012E6008F819885E80FF91FAF0160E80D811E8197
:1012F60089859A850E94850B9C01A985BA858D9161
:101306009C9190FF07C0EB81FC81828193818217BB
:0E13160093070CF4C9012D96E2E10C9493119B
:101324000F931F93CF93DF93FC01D90168387105A4
:1013340031F194F461387105B1F12CF46038710520
:1013440009F478C09FC06238710509F459C0643843
:10135400710509F46FC096C0603A710509F448C07C
:101364002CF46039710509F44BC08CC0603C7105E4
:1013740009F476C0603F710509F472C083C0CD9151
:10138400DC911197CE0102968D939C93452B39F0F5
:101394009881892F880F880B908381835BC0888113
:1013A4008083118268C0CD91DC911197CE0104969F
:1013B4008D939C93452B99F088819981AA81BB8157
:1013C400AC01BD01770F440B542FBA018083918384
:1013D400A283B383448345834683478328C008811B
:1013E40019812A813B81008311832283338345C081
:1013F400CD91DC911197CE0102968D939C9323C0DD
:10140400CD91DC911197CE0108968D939C937881B0
:1014140069815A814B813C812D819E818F817083AA
:10142400618352834383348325839683878381E056
:1014340090E02AC0CD91DC911197CE0102968D9354
:101444009C93452BA1F099812881892F880F880BC3
:101454002083918382838383848385838683E6CFF9
:10146400CD91DC911197CE0102968D939C930881C6
:1014740019810083118312821382148215821682C9
:101484001782D5CF80E090E0DF91CF911F910F912B
:021494000895B9
:10149600A2E1B0E0E1E5FAE00C947711FC010A8BD9
:1014A6001B832C83732E642E552E462E7D83CC866D
:1014B600D886BF82AE82868197819B878A87D5012F
:1014C6004D915C91228133818085918501971C0124
:1014D60037FF02C021E030E0EA85FB85E80FF91FFF
:1014E60010824701E1E0F0E0FA83E983C9018E1931
:1014F6009F099E878D87DA01A270BB27B88BAF87BD
:10150600B885BB0FBB0BB98B1214130474F0A981F9
:10151600BA81AB2B09F05CC0AE81BF818D919C91E5
:1015260011978F7E8D939C9353C02A893B814C8162
:10153600572D662D752D842D9D81A0E00E94ED12FC
:10154600B1F1E1E02E1A3108FC85F987AF2EB88497
:10155600C988DC2CEC2CFC2C0C2D1C2D2A893B81FB
:101566004C81572D662D752D842D9D810E94AC12C0
:10157600C90129839A83EA85FB85E20DF31D805D07
:10158600808381E0881A91082A893B814C81572DF6
:10159600662D752D842D9D810E94AE122A8B3B836C
:1015A6004C83752E662E572E482E9D83ADCF8D8586
:1015B6009E85880D991D181619061CF21814190413
:1015C6000CF0A5CFEF85F889EF2B09F0BACF9FCFA6
:0A15D600C1016296E2E10C9493114A
:1015E0000F931F93CF93DF938C0185E0F801119245
:1015F0008A95E9F767E08DE00E9421126FE784E0A9
:101600000E94211260E88AE00E942112C0E005C019
:1016100066E289E00E942112CF5FCC23C9F36CE01F
:1016200081E00E94211260E88DE00E949E12C8EEC7
:10163000D3E084E00E9436122197807311F4209742
:10164000C1F760E88DE00E948F12CD2B09F458C0DD
:101650008AE00E943612D82FC0E004C089E00E94C0
:101660003612CF5FCD17D0F3DD2309F449C060E017
:101670008DE00E9421126FE784E00E94211260E851
:101680008AE00E94211263E989E00E94211260E24F
:1016900089E00E9421126CE081E00E94211260E842
:1016A0008DE00E949E12C8EED3E084E00E943612C4
:1016B0002197807311F42097C1F760E88DE00E94B4
:1016C0008F12CD2BE9F08AE00E9436128530C1F4EA
:1016D000C0E0D0E009C089E00E943612F801EC0FAA
:1016E000F11D8083D827CF5FC430A8F389E00E9422
:1016F0003612D81729F085E0F80111928A95E9F79A
:0A170000DF91CF911F910F91089522
:10170A002F923F924F926F927F928F92AF92BF9297
:10171A00CF92DF92EF92FF920F931F93CF93DF93B3
:10172A00CDB7DEB766970FB6F894DEBF0FBECDBF52
:10173A005C013A01862E6901C701817099279C8B49
:10174A008B8BE0FC1DC020173107D4F47801EC180C
:10175A00FD08FE8AED8AA70191E1E916F10410F06D
:10176A0040E150E060E270E0CE0101969A8B898BED
:10177A000E94541389899A891C0120E8422E0BC0C1
:10178A009601682DA301C5010E940610C016D10654
:10179A00ECF2C60125C090E1E916F10458F020E107
:1017AA0030E0642DA101C5010E94061080E1E81A0B
:1017BA00F108F1CF2D893E892F70332789899A89BB
:1017CA00AC0160E8C5010E9406108B899C89892BAF
:1017DA0031F49601682DA301C5010E940610C801C3
:1017EA0066960FB6F894DEBF0FBECDBFDF91CF91DC
:1017FA001F910F91FF90EF90DF90CF90BF90AF9025
:0E180A008F907F906F904F903F902F90089599
:10181800CF93DF93DC01F90164387105D9F164F4E1
:101828006138710521F16238710509F440C06038EA
:10183800710509F054C02EC060397105C1F184F4F6
:101848006838710509F04BC0C081D181CE0102967C
:1018580091838083E881F981ED93FC9340833CC0B8
:10186800603A7105B9F0603C7105A1F038C0C081DB
:10187800D181CE01029691838083E881F981ED932D
:10188800FC93052E000C660B770B40835183628313
:10189800738322C0C081D181CE0102969183808357
:1018A800E881F981ED93FC935183408315C0C08191
:1018B800D181CE01029691838083E881F981ED93ED
:1018C800FC9351834083852F880F880B8283838301
:1018D800848385838683878381E090E002C080E0EB
:0818E80090E0DF91CF9108951B
:1018F000A2E0B0E0EEE7FCE00C9477111C014B0194
:10190000FA01DB0112962D913C91139714964D909C
:101910005C9015978D919C9111979A838983169667
:101920006D907C90179737FD03C08D7F9A838983D4
:1019300000811181228133814481558166817781C3
:10194000FE0131965F0188E0C82ED12C7201C401DE
:101950000E944B0A298124FF06C00197F301E80F7A
:10196000F91F20E32083298123FF06C00197F3019B
:10197000E80FF91F20E22083E980FA80D40118964D
:101980002D913C91199721503109281B390B860D57
:10199000971DAC0160E88201C1010E94850B9C018A
:1019A000F1018081918190FF08C0D40112968D9140
:1019B0009C911397821793070CF4C9012296E2E1D8
:0419C0000C949311DF
:1019C4002F923F924F926F927F928F92AF92BF92DB
:1019D400CF92DF92EF92FF920F931F93CF93DF93F7
:1019E400CDB7DEB727970FB6F894DEBF0FBECDBFD5
:1019F4006C017B013901842E980184EE282E84E049
:101A0400382E80E0482E87E0F101AE014F5F5F4F32
:101A1400DA01742D0E94D412F70102811381A4808B
:101A2400B580E080F18061147104810419F43A01F5
:101A3400F0E88F2E2115310529F4882DB3010E9479
:101A44000B129C0117FD04C00217130708F4980138
:101A54008501682DA301C6010E94850B27960FB648
:101A6400F894DEBF0FBECDBFDF91CF911F910F91D0
:101A7400FF90EF90DF90CF90BF90AF908F907F90CA
:0A1A84006F904F903F902F9008954F
:101A8E00A2E0B0E0EDE4FDE00C9477113C014B01D7
:101A9E00FA01DB0112962D913C91139714964D90FD
:101AAE005C9015978D919C9111979A8389831696C8
:101ABE002D903C90179737FD03C08D7F9A838983B5
:101ACE000081118122813381448155816681778124
:101ADE00FE0131965F018AE0C82ED12C7201C4013D
:101AEE000E944B0AE980FA80D40118962D913C9100
:101AFE00199721503109281B390B820D931DAC010A
:101B0E0060E88201C3010E94850B9C01F301808174
:101B1E00918190FF08C0D40112968D919C911397DC
:101B2E00821793070CF4C9012296E2E10C949311EB
:101B3E006F927F928F92EF92FF920F931F93CF939C
:101B4E00DF93CDB7DEB761970FB6F894DEBF0FBE49
:101B5E00CDBFFE01319651E1DF011D925A95E9F795
:101B6E00A2E0B1E0BA83A9839C838B8377FF09C07F
:101B7E008FE490E090930101809300018FEF9FEF2F
:101B8E0019C03901842E7C01615071097F836E83E7
:101B9E009801682DA301CF010E94C7114885598570
:101BAE002E813F814217530708F49A01F701E20F85
:101BBE00F31F108261960FB6F894DEBF0FBECDBF35
:101BCE00DF91CF911F910F91FF90EF908F907F90AB
:041BDE006F90089567
:101BE20088249924F401E401B0E49F93AA279A156A
:101BF2008B049C04ED05FE05CF05D007A10798F4E0
:101C0200AD2FDC2FCF2FFE2FE92D982C892E982F68
:101C1200872F762F652F542F432F322F2227B8502C
:101C220031F7BF9127C01B2EBF91BB27220F331F55
:101C3200441F551F661F771F881F991F881C991CF8
:101C4200EE1FFF1FCC1FDD1FAA1FBB1F8A149B04A0
:101C5200EC05FD05CE05DF05A007B10748F08A189F
:101C62009B08EC09FD09CE09DF09A00BB10B21602D
:101C72001A94E1F62EF49401AF01BE01CD01000CDD
:021C82000895C3
:101C8400CF92DF92EF92DC0190E0292F30E0220F17
:101C9400331F6901032E000CEE086E2DA6014C5370
:101CA4005B4F6F4F6A01E62EFA018491E7FC808155
:101CB40081110DC02F5F3F4F032E000C440B2C539A
:101CC4003B4F4F4FF901849147FD808124C0CD9053
:101CD400DD90EC901297F6014491E7FC4081841367
:101CE40015C02F5F3F4F032E000C440B2C533B4F6A
:101CF4004F4FF901949147FD90815FEFC51AD50AC2
:101D0400E50ACD92DD92EC92129701C09F5F9B3061
:0E1D140008F4BBCF892FEF90DF90CF90089599
:101D22000F931F93CF93DF93DB012D913C9111977A
:101D320030FF25C017964D915C91189715962D91FD
:101D42003C9116974217530778F41296ED91FC9145
:101D52001397808312962D913C9113972F5F3F4FDB
:101D620013963C932E93129717962D913C911897A8
:101D72002F5F3F4F18963C932E93179715C01D96D1
:101D8200ED91FC911E97309719F48FEF9FEF0CC0E5
:101D92008B01EC010995892BC1F7F80187819085A8
:101DA200019690878783CE01DF91CF911F910F918A
:021DB200089592
:101DB400CF939B01482FF901849147FD80818032A4
:101DC400C9F1682F082E000C770B69507109653032
:101DD400710580F18B3249F5A0E0B0E02F5F3F4FF1
:101DE4004F4F02C0A0E0B0E080E090E0CAE0F9010B
:101DF400649147FD6081062E000C770B60537109D6
:101E04006A30710560F4C89FF001C99FF00D112478
:101E14002F5F3F4F4F4FCF01861B970BE8CFAB2B64
:101E240069F491958195910909C08D32D9F6A1E0A3
:101E3400B0E0D4CF2F5F3F4F4F4FBDCFCF91089528
:101E4400CF93DC0190E051E0C1E015C0292F30E0D0
:101E5400FD01E20FF31F4081442321F080818F3F75
:101E640009F0C0E0FB01E20FF31F208121502E3F57
:101E740008F450E09F5F943048F3C11115C051112C
:101E840015C080E00DC0282F30E0FD01E20FF31FE4
:101E94004081FB01E20FF31F9081491309C08F5F5A
:101EA400843088F381E005C080E003C080E001C095
:061EB40080E0CF910895CB
:101EBA00CF930E948C130E949D130E94381360E0F6
:101ECA0080E00E944B136BE073E080E00E94DF1118
:101EDA0061E080E00E944B136BE173E080E00E94B6
:101EEA00DF116CE273E080E00E94F511C0E017C0D8
:101EFA000E949D132FEF83EC99E02150804090407F
:101F0A00E1F700C000000E94A1132FEF83EC99E0D3
:101F1A00215080409040E1F700C00000CF5FC530FB
:061F2A0038F3CF91089589
:101F30002FEF80E792E0215080409040E1F700C011
:101F4000000060E080E30E94BB108FE19EE40197F7
:101F5000F1F700C0000060E080E30E94BB1087E55D
:101F600092E00197F1F700C0000060E080E30E947A
:101F7000BB1060E080E20E94BB1088E20E942E133A
:101F80008CE00E942E1386E00E942E1381E00E94B6
:101F90002E138FE39FE10197F1F700C00000089531
:101FA0001F93CF93DF93CDB7DEB761970FB6F89449
:101FB000DEBF0FBECDBF182F26ED32E040E081E13D
:101FC000F901DE011196742F0E94D412812F82959F
:101FD0008F70E1E0F0E0EC0FFD1FE80FF11D808154
:101FE0000E9491131F70E1E0F0E0EC0FFD1FE10F84
:101FF000F11D80810E94911361960FB6F894DEBFA7
:0C2000000FBECDBFDF91CF911F9108955E
:10200C006F927F928F92CF92DF92EF920F931F93EA
:10201C00CF93DF938C016A01E62EE9013A01862EFB
:10202C00620E731E811C37FD8A94C614D704E80413
:10203C0079F0F6018491E7FC8081B801082E000C40
:10204C00990B0E94910E8FEFC81AD80AE80AEDCFAF
:10205C00CE01DF91CF911F910F91EF90DF90CF9038
:08206C008F907F906F900895A2
:102074000E94491268ED70E080E00E94F5116DE85D
:102084008AE20E9421126EE38BE20E9421126EE129
:102094008DE20E94211260E08CE20E94211260E431
:1020A40085E10E9421126DE381E10E9421126FE714
:1020B40086E20E94211263E884E10E9421128FE1EA
:0C20C4009EE40197F1F700C000000895B1
:1020D0000F931F93CF93DF9300D000D000D0CDB7E4
:1020E000DEB71F928F938AED94E0A0E0AF939F93A9
:1020F0008F938E010F5F1F4F1F930F930E945C12EF
:10210000B80180E80E94F5110FB6F894DEBF0FBE4B
:10211000CDBF26960FB6F894DEBF0FBECDBFDF91C0
:08212000CF911F910F9108956A
:10212800FF920F931F93CF93DF938C0160E070E0D1
:1021380080E00E9466138A3A79F080E012C06F2D21
:1021480070E0E801C60FD71F6F5F7F4F80E80E94DD
:1021580066138883F39401C0F12C83E08F1578F718
:0E21680081E0DF91CF911F910F91FF900895BC
:10217600CF93C82FC860662311F0C82FC9600E948C
:102186006F138EE40E9424138C2F84600E94241304
:1021960085E08A95F1F700008C2F0E94241387ECC6
:1021A60090E00197F1F700C000000E941A13CF914A
:0221B60008958A
:1021B8000E948C130E9495130E94381360E080E0FF
:1021C8000E944B1367EE72E080E00E94DF1168EF17
:1021D80072E080E00E94F5112FEF8BE792E9215021
:1021E80080409040E1F700C000000E9499130895D4
:1021F800FA0160387105CCF0623871051CF063385B
:10220800710599F4A081B1819D012C5F3F4F318305
:1022180020834D915D916D917C91FC0140835183A8
:102228006283738381E090E0089580E090E00895F0
:102238000E94381360E080E00E944B1380910601F1
:10224800882331F069E573E080E00E94DF1105C062
:1022580067E673E080E00E94DF1161E080E00E94A1
:0E2268004B1363E773E080E00E94DF110895DE
:102276000E94381360E080E00E944B136EE373E027
:1022860080E00E94DF1161E080E00E944B136BE466
:1022960073E080E00E94DF112FEF87EA91E621507C
:0C22A60080409040E1F700C00000089567
:1022B20097FB10F8169400080F93083098F0085016
:1022C200232F342F452F562F672F782F892F902DAC
:1022D200F4CF059497958795779567955795479588
:0C22E200379527950A95AAF70F910895EB
:1022EE002F923F924F925F926F927F928F929F9218
:1022FE00AF92BF92CF92DF92EF92FF920F931F9306
:10230E00CF93DF93CDB7DEB7CA1BDB0B0FB6F894B6
:08231E00DEBF0FBECDBF099424
:102326002A88398848885F846E847D848C849B845F
:10233600AA84B984C884DF80EE80FD800C811B816D
:10234600AA81B981CE0FD11D0FB6F894DEBF0FBE9C
:06235600CDBFED0108956A
:10235C0084B1826084B985B18D7F85B98FE39CE9A6
:10236C000197F1F700C0000085B1826085B99FEF3D
:10237C0020E782E0915020408040E1F700C000004F
:02238C000895B2
:10238E00A2E0B0E0EDECF1E10C9485118C013A8302
:10239E0029839E012F5F3F4F0E947902F801208111
:1023AE0024FF02C08FEF9FEF2296E4E00C94A11160
:1023BE00CF92DF92EF926B01E82E06C09FEFC91A03
:1023CE00D90AE90A0E949113F6018491E7FC8081F3
:0C23DE008111F4CFEF90DF90CF900895B4
:1023EA00CF92DF92EF926B01E82E06C09FEFC91AD7
:1023FA00D90AE90A0E947F13F6018491E7FC8081D9
:0C240A008111F4CFEF90DF90CF90089587
:10241600CF92DF92EF926B01E82EA82FCB01FC0141
:102426002491A7FD2081222319F00196A11DF7CF43
:0C2436008C199D09EF90DF90CF90089565
:10244200CF93C62F95B19B7F95B990E0880F991FC6
:102452008E7799270E9486138C2F90E00E94861314
:0A24620085B1846085B9CF9108951B
:10246C0095B19B7F95B990E0880F991F8E7799272E
:10247C0080680E94861380E090E00E94861395B1DC
:06248C00946095B908956B
:1024920068EC70E080E00E94F51160E181E00E944A
:1024A20021122FEF80E792E0215080409040E1F727
:0624B20000C000000895C7
:1024B800A0E0B0E0E2E6F2E10C9487119E01265F0D
:1024C8003F4F4F81588569858D819E810E94E11219
:0624D800E2E00C94A311E8
:1024DE00CF93DF93C82FD62F807F0E94BB106D2F16
:1024EE008C2F8295807F0E94BB10DF91CF91089533
:1024FE006095709580959095309540955095219565
:10250E003F4F4F4F5F4F6F4F7F4F8F4F9F4F0895EE
:10251E00CF93DF93D82FC62F0E943612C0956C2F03
:0E252E0068238D2F0E942112DF91CF91089516
:10253C00CF93DF93D82FC62F0E943612682F6C2BA7
:0C254C008D2F0E942112DF91CF91089585
:10255800689401C0E8948F929F92CF93DF930E9472
:0C256800F10DDF91CF919F908F900895AE
:102574008AB180688AB98AB180648AB98BB18F774D
:0A2584008BB98BB18F7B8BB90895E2
:10258E008AB18F7E8AB98AB18F7D8AB98BB180610B
:0A259E008BB98BB180628BB90895F0
:1025A800992777FD05C005900D920197E1F70895E9
:0A25B80001900D920197E1F70895DC
:1025C2000F931F9389019A01462F6FEF7FE70E94B5
:0825D2009F0D1F910F91089568
:1025DA000024A7FD00942A17300540055005600520
:0825EA007005800590050895BD
:1025F20084B18C6284B984B18F7E84B980E58CBD4C
:0626020081E08DBD08958A
:102608009093C5008093C40088E18093C10086E060
:062618008093C20008954A
:10261E00EC010E94AD130E94AC13CE010E94AE13CA
:06262E00CE010E94AA1378
:1026340084E98093BC008FE891E00197F1F700C032
:0426440000000895F5
:102648008093BB0084E88093BC008091BC00882301
:04265800E4F7089506
:10265C0060E00E946F128FE39FE10197F1F700C0D9
:04266C0000000895CD
:1026700081E00E942E138FE39FE10197F1F700C0E4
:0426800000000895B9
:102684001092B90088E48093B80084E08093BC0081
:022694000895A7
:10269600611102C090E801C090EC890F0E942E13D0
:0226A600089595
:1026A800FC01480F591FE417F50711F06193FBCFA0
:0226B800089583
:1026BA009C01215631092A31310510F48F75992769
:0226CA00089571
:1026CC00CB01F999FECF92BD81BDF89A992780B5BF
:0226DC0008955F
:1026DE0084EA8093BC008091BC008823E4F70895BF
:1026EE009C01215431092A31310508F48062089584
:0E26FE009091C00095FFFCCF8093C600089518
:0C270C008EBD0DB407FEFDCF8EB5089504
:0A2718000E9499130E94A113089576
:0827220061E00E946F120895AE
:08272A008BB180688BB90895A2
:082732008BB18F778BB908957C
:08273A008BB180648BB9089596
:082742008BB18F7B8BB9089568
:06274A0080E090E008951C
:042750000C940000E5
:042754000E945F0080
:022758000895E2
:02275A000895E0
:02275C000895DE
:00000001FF
