:100000000C9434000C94AE140C94AE140C94AE14F6
:100010000C94AE140C94AE140C94AE140C94AE1458
:100020000C94AE140C94AE140C94AE140C94AE1448
:100030000C94AE140C94AE140C94AE140C94AE1438
:100040000C94AE140C94AE140C94AE140C94AE1428
:100050000C94AE140C94AE140C94AE140C94AE1418
:100060000C94AE140C94AE1411241FBECFEFD8E044
:10007000DEBFCDBF0E94E1110C949514F894FFCF20
:100080000402100140011002400110014001100261
:100090004001100340011001400110024001100313
:1000A0008001100380011001800110038001100203
:1000B0008001100108018027201404012001400262
:1000C00020014002200140032001400220014003A2
:1000D0002001400D1001400B0801400110010401F6
:1000E00080092001800A200180071001800310018F
:1000F00080031001800210018003100180031001B1
:1001000080031001800210028001100180011001A3
:100110008001100280011001800110018001100295
:100120008001100180011002800110018001100186
:100130008001100280011001800110028001100175
:100140008001100140021001400110014002100125
:100150004001100140031001400110014002100154
:100160004001100140018001200280022001800135
:100170002001800120018001200180041001800302
:1001800010078001100840021001400110014002D8
:100190001001400110014003100140011001400214
:1001A00010014001100140031001400220014002F3
:1001B0002001400220014002200140018002200174
:1001C00080032001800320018003200180012001A1
:1001D0008003200180032001800320018001400171
:1001E00010014002100140011001400210014003C3
:1001F0002001400420014004200140022001800130
:10020000200380012003800120038001200280015F
:1002100020038001200380012003800120021001BF
:100220004001100240011003400110024001100281
:100230004001100340011002400110034001100270
:100240004001100240011002400220014002200142
:10025000400120014002200140012008100540011A
:100260001006400110014001100140011001400141
:100270001001400110014001100140011001400136
:100280001001400110014001100140011001200245
:1002900040012003400210014003100140031001FF
:1002A00040018001200180012001800120018001A6
:1002B0002001800120018001200140012001400136
:1002C00020014001200180022001800320018003E1
:1002D000200180012002800120078001200580018B
:1002E00020044003200108014004200140042001B3
:1002F000400320014004200140042001400220016D
:100300008001200380010801800120018001200379
:100310008001200380012001080140051012040122
:100320008001200180041001800A20018005100155
:1003300080011001800110038001100540011001AF
:10034000400110014004200140042001400320012D
:100350004003200140012001400120014002200211
:1003600040012001400120030802200A8005040109
:10037000400310014001100380011001800320019F
:0E038000800120034001200140040801080113
:10038E004269656E76656E69646F20616C204D659D
:10039E006E75207061726120506C6F747465720D91
:1003AE000A005175652071756965726520656C6509
:1003BE006769723F0D0A0031202D20547269616EFB
:1003CE0067756C6F0D0A0032202D204369726375BC
:1003DE006C6F0D0A0033202D204372757A0D0A00C2
:1003EE0034202D204D616E7A616E610D0A0035202C
:1003FE002D2052616E610D0A003E3E00536520684D
:10040E006120656C656769646F20547269616E67FF
:10041E00756C6F0D0A005365206861205465726D0E
:10042E00696E61646F20547269616E67756C6F0DD1
:10043E000A003E2000536520686120656C6567697F
:10044E00646F2043697263756C6F0D0A00536520EB
:10045E006861205465726D696E61646F20436972C4
:10046E0063756C6F0D0A00536520686120656C65BD
:10047E006769646F204372757A0D0A0053652068B0
:10048E0061205465726D696E61646F204372757A76
:10049E000D0A00536520686120656C656769646F9D
:1004AE00204D616E7A616E610D0A005365206861A0
:1004BE00205465726D696E61646F204D616E7A6154
:1004CE006E610D0A00536520686120656C65676971
:1004DE00646F2052616E610D0A00536520686120C1
:1004EE005465726D696E61646F2052616E610D0AA2
:1004FE0000436F6D616E646F20696E636F7272651B
:06050E0063746F0D0A008A
:100514000405800110048001100280011002800192
:10052400100280011002800110018001100180017D
:10053400100280011001800110018002100180016D
:10054400100180011001800210018002100180025C
:1005540010018002100180041001800C200180042D
:1005640020018002200180022001800220018002FB
:1005740020018001200180012001800220018001EE
:1005840020018001200280012001800120018001DE
:1005940020028001200280012002800120028001CB
:1005A40020048001200C400120044001200240016D
:1005B40020024001200240012002400120014001AC
:1005C400200140012002400120014001200140029D
:1005D400200140012001400120014002200140028D
:1005E4002001400220014002200140042001400C6F
:1005F40010014004100140021001400210014002A9
:10060400100140021001400110014001100140029C
:10061400100140011001400110024001100140018D
:10062400100140011002400110024001100240017B
:0C0634001002400110044001100F0801EA
:100640000E94201484E08BB982E390E007C08FE918
:100650009FE00197F1F700C00000C9019C01215003
:100660003109892BA1F780E48BB988EC90E007C0B1
:100670008FE99FE00197F1F700C00000C9019C01DC
:1006800021503109892BA1F780E18BB982E390E0F9
:1006900007C08FE99FE00197F1F700C00000C90192
:1006A0009C0121503109892BA1F780E48BB98EE59B
:1006B00091E007C08FE99FE00197F1F700C00000CB
:1006C000C9019C0121503109892BA1F780E18BB927
:1006D00082E390E007C08FE99FE00197F1F700C047
:1006E0000000C9019C0121503109892BA1F780E448
:1006F0008BB98CE291E007C08FE99FE00197F1F799
:1007000000C00000C9019C0121503109892BA1F7CB
:1007100080E18BB982E390E007C08FE99FE0019709
:10072000F1F700C00000C9019C0121503109892B5B
:10073000A1F780E48BB988EC90E007C08FE99FE0D7
:100740000197F1F700C00000C9019C012150310957
:10075000892BA1F780E18BB984E690E007C08FE98F
:100760009FE00197F1F700C00000C9019C012150F2
:100770003109892BA1F780E48BB984E690E007C0AA
:100780008FE99FE00197F1F700C00000C9019C01CB
:1007900021503109892BA1F780E18BB984E690E0E3
:1007A00007C08FE99FE00197F1F700C00000C90181
:1007B0009C0121503109892BA1F780E48BB982E398
:1007C00090E007C08FE99FE00197F1F700C00000BB
:1007D000C9019C0121503109892BA1F780E18BB916
:1007E00082E390E007C08FE99FE00197F1F700C036
:1007F0000000C9019C0121503109892BA1F780E437
:100800008BB984E690E007C08FE99FE00197F1F78C
:1008100000C00000C9019C0121503109892BA1F7BA
:1008200080E18BB984E690E007C08FE99FE00197F3
:10083000F1F700C00000C9019C0121503109892B4A
:10084000A1F780E48BB982E390E007C08FE99FE0D5
:100850000197F1F700C00000C9019C012150310946
:10086000892BA1F780E18BB982E390E007C08FE983
:100870009FE00197F1F700C00000C9019C012150E1
:100880003109892BA1F780E48BB982E390E007C09E
:100890008FE99FE00197F1F700C00000C9019C01BA
:1008A00021503109892BA1F780E18BB982E390E0D7
:1008B00007C08FE99FE00197F1F700C00000C90170
:1008C0009C0121503109892BA1F780E48BB982E387
:1008D00090E007C08FE99FE00197F1F700C00000AA
:1008E000C9019C0121503109892BA1F780E18BB905
:1008F00082E390E007C08FE99FE00197F1F700C025
:100900000000C9019C0121503109892BA1F780E425
:100910008BB982E390E007C08FE99FE00197F1F780
:1009200000C00000C9019C0121503109892BA1F7A9
:1009300080E28BB984E690E007C08FE99FE00197E1
:10094000F1F700C00000C9019C0121503109892B39
:10095000A1F780E48BB982E390E007C08FE99FE0C4
:100960000197F1F700C00000C9019C012150310935
:10097000892BA1F780E28BB982E390E007C08FE971
:100980009FE00197F1F700C00000C9019C012150D0
:100990003109892BA1F780E48BB982E390E007C08D
:1009A0008FE99FE00197F1F700C00000C9019C01A9
:1009B00021503109892BA1F780E28BB982E390E0C5
:1009C00007C08FE99FE00197F1F700C00000C9015F
:1009D0009C0121503109892BA1F780E48BB982E376
:1009E00090E007C08FE99FE00197F1F700C0000099
:1009F000C9019C0121503109892BA1F780E28BB9F3
:100A000084E690E007C08FE99FE00197F1F700C00E
:100A10000000C9019C0121503109892BA1F780E414
:100A20008BB982E390E007C08FE99FE00197F1F76F
:100A300000C00000C9019C0121503109892BA1F798
:100A400080E28BB982E390E007C08FE99FE00197D5
:100A5000F1F700C00000C9019C0121503109892B28
:100A6000A1F780E48BB982E390E007C08FE99FE0B3
:100A70000197F1F700C00000C9019C012150310924
:100A8000892BA1F780E28BB982E390E007C08FE960
:100A90009FE00197F1F700C00000C9019C012150BF
:100AA0003109892BA1F780E48BB982E390E007C07C
:100AB0008FE99FE00197F1F700C00000C9019C0198
:100AC00021503109892BA1F780E18BB984E690E0B0
:100AD00007C08FE99FE00197F1F700C00000C9014E
:100AE0009C0121503109892BA1F780E48BB982E365
:100AF00090E007C08FE99FE00197F1F700C0000088
:100B0000C9019C0121503109892BA1F780E18BB9E2
:100B100082E390E007C08FE99FE00197F1F700C002
:100B20000000C9019C0121503109892BA1F780E403
:100B30008BB982E390E007C08FE99FE00197F1F75E
:100B400000C00000C9019C0121503109892BA1F787
:100B500080E18BB986E990E007C08FE99FE00197BB
:100B6000F1F700C00000C9019C0121503109892B17
:100B7000A1F780E88BB982E390E007C08FE99FE09E
:100B80000197F1F700C00000C9019C012150310913
:100B9000892BA1F780E18BB986E990E007C08FE946
:100BA0009FE00197F1F700C00000C9019C012150AE
:100BB0003109892BA1F780E88BB982E390E007C067
:100BC0008FE99FE00197F1F700C00000C9019C0187
:100BD00021503109892BA1F780E18BB986E990E09A
:100BE00007C08FE99FE00197F1F700C00000C9013D
:100BF0009C0121503109892BA1F780E88BB982E350
:100C000090E007C08FE99FE00197F1F700C0000076
:100C1000C9019C0121503109892BA1F780E18BB9D1
:100C200084E690E007C08FE99FE00197F1F700C0EC
:100C30000000C9019C0121503109892BA1F780E8EE
:100C40008BB982E390E007C08FE99FE00197F1F74D
:100C500000C00000C9019C0121503109892BA1F776
:100C600080E18BB986E990E007C08FE99FE00197AA
:100C7000F1F700C00000C9019C0121503109892B06
:100C8000A1F780E88BB982E390E007C08FE99FE08D
:100C90000197F1F700C00000C9019C012150310902
:100CA000892BA1F780E18BB984E690E007C08FE93A
:100CB0009FE00197F1F700C00000C9019C0121509D
:100CC0003109892BA1F780E48BB98EE591E007C04B
:100CD0008FE99FE00197F1F700C00000C9019C0176
:100CE00021503109892BA1F780E18BB982E390E093
:100CF00007C08FE99FE00197F1F700C00000C9012C
:100D00009C0121503109892BA1F780E48BB988E53A
:100D100092E007C08FE99FE00197F1F700C0000063
:100D2000C9019C0121503109892BA1F780E18BB9C0
:100D300082E390E007C08FE99FE00197F1F700C0E0
:100D40000000C9019C0121503109892BA1F780E4E1
:100D50008BB98EE591E007C08FE99FE00197F1F72D
:100D600000C00000C9019C0121503109892BA1F765
:100D700080E18BB984E690E007C08FE99FE001979E
:100D8000F1F700C00000C9019C0121503109892BF5
:100D9000A1F780E48BB982E390E007C08FE99FE080
:100DA0000197F1F700C00000C9019C0121503109F1
:100DB000892BA1F780E18BB982E390E007C08FE92E
:100DC0009FE00197F1F700C00000C9019C0121508C
:100DD0003109892BA1F780E48BB982E390E007C049
:100DE0008FE99FE00197F1F700C00000C9019C0165
:100DF00021503109892BA1F780E18BB982E390E082
:100E000007C08FE99FE00197F1F700C00000C9011A
:100E10009C0121503109892BA1F780E48BB982E331
:100E200090E007C08FE99FE00197F1F700C0000054
:100E3000C9019C0121503109892BA1F780E18BB9AF
:100E400084E690E007C08FE99FE00197F1F700C0CA
:100E50000000C9019C0121503109892BA1F780E4D0
:100E60008BB982E390E007C08FE99FE00197F1F72B
:100E700000C00000C9019C0121503109892BA1F754
:100E800080E18BB982E390E007C08FE99FE0019792
:100E9000F1F700C00000C9019C0121503109892BE4
:100EA000A1F780E48BB982E390E007C08FE99FE06F
:100EB0000197F1F700C00000C9019C0121503109E0
:100EC000892BA1F780E18BB982E390E007C08FE91D
:100ED0009FE00197F1F700C00000C9019C0121507B
:100EE0003109892BA1F780E48BB982E390E007C038
:100EF0008FE99FE00197F1F700C00000C9019C0154
:100F000021503109892BA1F780E18BB982E390E070
:100F100007C08FE99FE00197F1F700C00000C90109
:100F20009C0121503109892BA1F780E48BB982E320
:100F300090E007C08FE99FE00197F1F700C0000043
:100F4000C9019C0121503109892BA1F780E18BB99E
:100F500084E690E007C08FE99FE00197F1F700C0B9
:100F60000000C9019C0121503109892BA1F780E4BF
:100F70008BB982E390E007C08FE99FE00197F1F71A
:100F800000C00000C9019C0121503109892BA1F743
:100F900080E18BB982E390E007C08FE99FE0019781
:100FA000F1F700C00000C9019C0121503109892BD3
:100FB000A1F780E48BB982E390E007C08FE99FE05E
:100FC0000197F1F700C00000C9019C0121503109CF
:100FD000892BA1F780E18BB988EC90E007C08FE9FD
:100FE0009FE00197F1F700C00000C9019C0121506A
:100FF0003109892BA1F780E48BB982E390E007C027
:101000008FE99FE00197F1F700C00000C9019C0142
:1010100021503109892BA1F780E18BB98CE291E055
:1010200007C08FE99FE00197F1F700C00000C901F8
:101030009C0121503109892BA1F780E48BB982E30F
:1010400090E007C08FE99FE00197F1F700C0000032
:10105000C9019C0121503109892BA1F780E18BB98D
:101060008EE591E007C08FE99FE00197F1F700C09E
:101070000000C9019C0121503109892BA1F780E4AE
:101080008BB982E390E007C08FE99FE00197F1F709
:1010900000C00000C9019C0121503109892BA1F732
:1010A00080E18BB98CE291E007C08FE99FE0019766
:1010B000F1F700C00000C9019C0121503109892BC2
:1010C000A1F780E88BB982E390E007C08FE99FE049
:1010D0000197F1F700C00000C9019C0121503109BE
:1010E000892BA1F780E18BB988EC90E007C08FE9EC
:1010F0009FE00197F1F700C00000C9019C01215059
:101100003109892BA1F780E88BB982E390E007C011
:101110008FE99FE00197F1F700C00000C9019C0131
:1011200021503109892BA1F780E18BB988EC90E03F
:1011300007C08FE99FE00197F1F700C00000C901E7
:101140009C0121503109892BA1F780E88BB982E3FA
:1011500090E007C08FE99FE00197F1F700C0000021
:10116000C9019C0121503109892BA1F780E18BB97C
:1011700088EC90E007C08FE99FE00197F1F700C08D
:101180000000C9019C0121503109892BA1F780E899
:101190008BB982E390E007C08FE99FE00197F1F7F8
:1011A00000C00000C9019C0121503109892BA1F721
:1011B00080E18BB986E990E007C08FE99FE0019755
:1011C000F1F700C00000C9019C0121503109892BB1
:1011D000A1F780E88BB982E390E007C08FE99FE038
:1011E0000197F1F700C00000C9019C0121503109AD
:1011F000892BA1F780E18BB984E690E007C08FE9E5
:101200009FE00197F1F700C00000C9019C01215047
:101210003109892BA1F780E88BB982E390E007C000
:101220008FE99FE00197F1F700C00000C9019C0120
:1012300021503109892BA1F780E18BB982E390E03D
:1012400007C08FE99FE00197F1F700C00000C901D6
:101250009C0121503109892BA1F780E88BB982E3E9
:1012600090E007C08FE99FE00197F1F700C0000010
:10127000C9019C0121503109892BA1F780E18BB96B
:1012800084E690E007C08FE99FE00197F1F700C086
:101290000000C9019C0121503109892BA1F780E888
:1012A0008BB982E390E007C08FE99FE00197F1F7E7
:1012B00000C00000C9019C0121503109892BA1F710
:1012C00080E18BB984E690E007C08FE99FE0019749
:1012D000F1F700C00000C9019C0121503109892BA0
:1012E000A1F780E88BB982E390E007C08FE99FE027
:1012F0000197F1F700C00000C9019C01215031099C
:10130000892BA1F780E18BB984E690E007C08FE9D3
:101310009FE00197F1F700C00000C9019C01215036
:101320003109892BA1F780E88BB984E690E007C0EA
:101330008FE99FE00197F1F700C00000C9019C010F
:1013400021503109892BA1F780E18BB984E690E027
:1013500007C08FE99FE00197F1F700C00000C901C5
:101360009C0121503109892BA1F780E88BB982E3D8
:1013700090E007C08FE99FE00197F1F700C00000FF
:10138000C9019C0121503109892BA1F780E18BB95A
:1013900084E690E007C08FE99FE00197F1F700C075
:1013A0000000C9019C0121503109892BA1F780E877
:1013B0008BB982E390E007C08FE99FE00197F1F7D6
:1013C00000C00000C9019C0121503109892BA1F7FF
:1013D00080E18BB982E390E007C08FE99FE001973D
:1013E000F1F700C00000C9019C0121503109892B8F
:1013F000A1F780E88BB982E390E007C08FE99FE016
:101400000197F1F700C00000C9019C01215031098A
:10141000892BA1F780E18BB984E690E007C08FE9C2
:101420009FE00197F1F700C00000C9019C01215025
:101430003109892BA1F780E88BB982E390E007C0DE
:101440008FE99FE00197F1F700C00000C9019C01FE
:1014500021503109892BA1F780E18BB982E390E01B
:1014600007C08FE99FE00197F1F700C00000C901B4
:101470009C0121503109892BA1F780E88BB982E3C7
:1014800090E007C08FE99FE00197F1F700C00000EE
:10149000C9019C0121503109892BA1F780E18BB949
:1014A00082E390E007C08FE99FE00197F1F700C069
:1014B0000000C9019C0121503109892BA1F780E866
:1014C0008BB982E390E007C08FE99FE00197F1F7C5
:1014D00000C00000C9019C0121503109892BA1F7EE
:1014E00080E18BB982E390E007C08FE99FE001972C
:1014F000F1F700C00000C9019C0121503109892B7E
:10150000A1F780E88BB984E690E007C08FE99FE0FF
:101510000197F1F700C00000C9019C012150310979
:10152000892BA1F780E18BB982E390E007C08FE9B6
:101530009FE00197F1F700C00000C9019C01215014
:101540003109892BA1F780E88BB984E690E007C0C8
:101550008FE99FE00197F1F700C00000C9019C01ED
:1015600021503109892BA1F780E18BB982E390E00A
:1015700007C08FE99FE00197F1F700C00000C901A3
:101580009C0121503109892BA1F780E88BB982E3B6
:1015900090E007C08FE99FE00197F1F700C00000DD
:1015A000C9019C0121503109892BA1F780E18BB938
:1015B00082E390E007C08FE99FE00197F1F700C058
:1015C0000000C9019C0121503109892BA1F780E855
:1015D0008BB982E390E007C08FE99FE00197F1F7B4
:1015E00000C00000C9019C0121503109892BA1F7DD
:1015F00080E18BB982E390E007C08FE99FE001971B
:10160000F1F700C00000C9019C0121503109892B6C
:10161000A1F780E88BB984E690E007C08FE99FE0EE
:101620000197F1F700C00000C9019C012150310968
:10163000892BA1F780E18BB982E390E007C08FE9A5
:101640009FE00197F1F700C00000C9019C01215003
:101650003109892BA1F780E88BB982E390E007C0BC
:101660008FE99FE00197F1F700C00000C9019C01DC
:1016700021503109892BA1F780E18BB982E390E0F9
:1016800007C08FE99FE00197F1F700C00000C90192
:101690009C0121503109892BA1F780E88BB984E6A0
:1016A00090E007C08FE99FE00197F1F700C00000CC
:1016B000C9019C0121503109892BA1F780E18BB927
:1016C00082E390E007C08FE99FE00197F1F700C047
:1016D0000000C9019C0121503109892BA1F780E844
:1016E0008BB980E293E007C08FE99FE00197F1F7A3
:1016F00000C00000C9019C0121503109892BA1F7CC
:1017000080E28BB982E390E007C08FE99FE0019708
:10171000F1F700C00000C9019C0121503109892B5B
:10172000A1F780E88BB982E593E007C08FE99FE0DD
:101730000197F1F700C00000C9019C012150310957
:10174000892BA1F780E28BB982E390E007C08FE993
:101750009FE00197F1F700C00000C9019C012150F2
:101760003109892BA1F780E88BB982E390E007C0AB
:101770008FE99FE00197F1F700C00000C9019C01CB
:1017800021503109892BA1F780E28BB982E390E0E7
:1017900007C08FE99FE00197F1F700C00000C90181
:1017A0009C0121503109892BA1F780E88BB982E394
:1017B00090E007C08FE99FE00197F1F700C00000BB
:1017C000C9019C0121503109892BA1F780E28BB915
:1017D00084E690E007C08FE99FE00197F1F700C031
:1017E0000000C9019C0121503109892BA1F780E833
:1017F0008BB984E690E007C08FE99FE00197F1F78D
:1018000000C00000C9019C0121503109892BA1F7BA
:1018100080E28BB984E690E007C08FE99FE00197F2
:10182000F1F700C00000C9019C0121503109892B4A
:10183000A1F780E88BB982E390E007C08FE99FE0D1
:101840000197F1F700C00000C9019C012150310946
:10185000892BA1F780E28BB982E390E007C08FE982
:101860009FE00197F1F700C00000C9019C012150E1
:101870003109892BA1F780E88BB982E390E007C09A
:101880008FE99FE00197F1F700C00000C9019C01BA
:1018900021503109892BA1F780E28BB982E390E0D6
:1018A00007C08FE99FE00197F1F700C00000C90170
:1018B0009C0121503109892BA1F780E88BB982E383
:1018C00090E007C08FE99FE00197F1F700C00000AA
:1018D000C9019C0121503109892BA1F780E28BB904
:1018E00082E390E007C08FE99FE00197F1F700C025
:1018F0000000C9019C0121503109892BA1F780E822
:101900008BB982E390E007C08FE99FE00197F1F780
:1019100000C00000C9019C0121503109892BA1F7A9
:1019200080E28BB982E390E007C08FE99FE00197E6
:10193000F1F700C00000C9019C0121503109892B39
:10194000A1F780E88BB982E390E007C08FE99FE0C0
:101950000197F1F700C00000C9019C012150310935
:10196000892BA1F780E28BB982E390E007C08FE971
:101970009FE00197F1F700C00000C9019C012150D0
:101980003109892BA1F780E88BB982E390E007C089
:101990008FE99FE00197F1F700C00000C9019C01A9
:1019A00021503109892BA1F780E28BB982E390E0C5
:1019B00007C08FE99FE00197F1F700C00000C9015F
:1019C0009C0121503109892BA1F780E88BB982E372
:1019D00090E007C08FE99FE00197F1F700C0000099
:1019E000C9019C0121503109892BA1F780E28BB9F3
:1019F00082E390E007C08FE99FE00197F1F700C014
:101A00000000C9019C0121503109892BA1F780E810
:101A10008BB982E390E007C08FE99FE00197F1F76F
:101A200000C00000C9019C0121503109892BA1F798
:101A300080E28BB982E390E007C08FE99FE00197D5
:101A4000F1F700C00000C9019C0121503109892B28
:101A5000A1F780E88BB982E390E007C08FE99FE0AF
:101A60000197F1F700C00000C9019C012150310924
:101A7000892BA1F780E28BB984E690E007C08FE95B
:101A80009FE00197F1F700C00000C9019C012150BF
:101A90003109892BA1F780E88BB984E690E007C073
:101AA0008FE99FE00197F1F700C00000C9019C0198
:101AB00021503109892BA1F780E28BB984E690E0AF
:101AC00007C08FE99FE00197F1F700C00000C9014E
:101AD0009C0121503109892BA1F780E88BB982E361
:101AE00090E007C08FE99FE00197F1F700C0000088
:101AF000C9019C0121503109892BA1F780E28BB9E2
:101B000082E390E007C08FE99FE00197F1F700C002
:101B10000000C9019C0121503109892BA1F780E8FF
:101B20008BB982E390E007C08FE99FE00197F1F75E
:101B300000C00000C9019C0121503109892BA1F787
:101B400080E28BB982E390E007C08FE99FE00197C4
:101B5000F1F700C00000C9019C0121503109892B17
:101B6000A1F780E88BB982E390E007C08FE99FE09E
:101B70000197F1F700C00000C9019C012150310913
:101B8000892BA1F780E28BB982E390E007C08FE94F
:101B90009FE00197F1F700C00000C9019C012150AE
:101BA0003109892BA1F780E88BB982E390E007C067
:101BB0008FE99FE00197F1F700C00000C9019C0187
:101BC00021503109892BA1F780E28BB982E390E0A3
:101BD00007C08FE99FE00197F1F700C00000C9013D
:101BE0009C0121503109892BA1F780E88BB982E350
:101BF00090E007C08FE99FE00197F1F700C0000077
:101C0000C9019C0121503109892BA1F780E28BB9D0
:101C10008AEF90E007C08FE99FE00197F1F700C0DD
:101C20000000C9019C0121503109892BA1F780E8EE
:101C30008BB982E390E007C08FE99FE00197F1F74D
:101C400000C00000C9019C0121503109892BA1F776
:101C500080E28BB98EE591E007C08FE99FE00197A4
:101C6000F1F700C00000C9019C0121503109892B06
:101C7000A1F780E88BB982E390E007C08FE99FE08D
:101C80000197F1F700C00000C9019C012150310902
:101C9000892BA1F780E28BB982EC91E007C08FE934
:101CA0009FE00197F1F700C00000C9019C0121509D
:101CB0003109892BA1F780E88BB982E390E007C056
:101CC0008FE99FE00197F1F700C00000C9019C0176
:101CD00021503109892BA1F780E28BB98EE591E083
:101CE00007C08FE99FE00197F1F700C00000C9012C
:101CF0009C0121503109892BA1F780E88BB982E33F
:101D000090E007C08FE99FE00197F1F700C0000065
:101D1000C9019C0121503109892BA1F780E28BB9BF
:101D20008CE291E007C08FE99FE00197F1F700C0D6
:101D30000000C9019C0121503109892BA1F780E4E1
:101D40008BB982E390E007C08FE99FE00197F1F73C
:101D500000C00000C9019C0121503109892BA1F765
:101D600080E28BB986E990E007C08FE99FE0019798
:101D7000F1F700C00000C9019C0121503109892BF5
:101D8000A1F780E48BB982E390E007C08FE99FE080
:101D90000197F1F700C00000C9019C0121503109F1
:101DA000892BA1F780E28BB986E990E007C08FE923
:101DB0009FE00197F1F700C00000C9019C0121508C
:101DC0003109892BA1F780E48BB982E390E007C049
:101DD0008FE99FE00197F1F700C00000C9019C0165
:101DE00021503109892BA1F780E28BB982E390E081
:101DF00007C08FE99FE00197F1F700C00000C9011B
:101E00009C0121503109892BA1F780E48BB982E331
:101E100090E007C08FE99FE00197F1F700C0000054
:101E2000C9019C0121503109892BA1F780E28BB9AE
:101E300086E990E007C08FE99FE00197F1F700C0C5
:101E40000000C9019C0121503109892BA1F780E4D0
:101E50008BB982E390E007C08FE99FE00197F1F72B
:101E600000C00000C9019C0121503109892BA1F754
:101E700080E28BB984E690E007C08FE99FE001978C
:101E8000F1F700C00000C9019C0121503109892BE4
:101E9000A1F780E48BB982E390E007C08FE99FE06F
:101EA0000197F1F700C00000C9019C0121503109E0
:101EB000892BA1F780E28BB982E390E007C08FE91C
:101EC0009FE00197F1F700C00000C9019C0121507B
:101ED0003109892BA1F780E48BB982E390E007C038
:101EE0008FE99FE00197F1F700C00000C9019C0154
:101EF00021503109892BA1F780E28BB982E390E070
:101F000007C08FE99FE00197F1F700C00000C90109
:101F10009C0121503109892BA1F780E48BB984E61B
:101F200090E007C08FE99FE00197F1F700C0000043
:101F3000C9019C0121503109892BA1F780E28BB99D
:101F400082E390E007C08FE99FE00197F1F700C0BE
:101F50000000C9019C0121503109892BA1F780E4BF
:101F60008BB984E690E007C08FE99FE00197F1F715
:101F700000C00000C9019C0121503109892BA1F743
:101F800080E28BB982E390E007C08FE99FE0019780
:101F9000F1F700C00000C9019C0121503109892BD3
:101FA000A1F780E48BB982E390E007C08FE99FE05E
:101FB0000197F1F700C00000C9019C0121503109CF
:101FC000892BA1F780E28BB982E390E007C08FE90B
:101FD0009FE00197F1F700C00000C9019C0121506A
:101FE0003109892BA1F780E48BB982E390E007C027
:101FF0008FE99FE00197F1F700C00000C9019C0143
:1020000021503109892BA1F780E28BB982E390E05E
:1020100007C08FE99FE00197F1F700C00000C901F8
:102020009C0121503109892BA1F780E48BB984E60A
:1020300090E007C08FE99FE00197F1F700C0000032
:10204000C9019C0121503109892BA1F780E28BB98C
:1020500082E390E007C08FE99FE00197F1F700C0AD
:102060000000C9019C0121503109892BA1F780E4AE
:102070008BB982E390E007C08FE99FE00197F1F709
:1020800000C00000C9019C0121503109892BA1F732
:1020900080E28BB982E390E007C08FE99FE001976F
:1020A000F1F700C00000C9019C0121503109892BC2
:1020B000A1F780E48BB984E690E007C08FE99FE048
:1020C0000197F1F700C00000C9019C0121503109BE
:1020D000892BA1F780E28BB982E390E007C08FE9FA
:1020E0009FE00197F1F700C00000C9019C01215059
:1020F0003109892BA1F780E48BB982EE94E007C007
:102100008FE99FE00197F1F700C00000C9019C0131
:1021100021503109892BA1F780E28BB984E690E048
:1021200007C08FE99FE00197F1F700C00000C901E7
:102130009C0121503109892BA1F780E88BB982E3FA
:1021400090E007C08FE99FE00197F1F700C0000021
:10215000C9019C0121503109892BA1F780E28BB97B
:1021600086E990E007C08FE99FE00197F1F700C092
:102170000000C9019C0121503109892BA1F780E899
:102180008BB988E592E007C08FE99FE00197F1F7EE
:1021900000C00000C9019C0121503109892BA1F721
:1021A00080E28BB982E390E007C08FE99FE001975E
:1021B000F1F700C00000C9019C0121503109892BB1
:1021C000A1F780E88BB984EF91E007C08FE99FE029
:1021D0000197F1F700C00000C9019C0121503109AD
:1021E000892BA1F780E28BB982E390E007C08FE9E9
:1021F0009FE00197F1F700C00000C9019C01215048
:102200003109892BA1F780E88BB982E390E007C000
:102210008FE99FE00197F1F700C00000C9019C0120
:1022200021503109892BA1F780E28BB986E990E032
:1022300007C08FE99FE00197F1F700C00000C901D6
:102240009C0121503109892BA1F780E88BB982E3E9
:1022500090E007C08FE99FE00197F1F700C0000010
:10226000C9019C0121503109892BA1F780E28BB96A
:1022700086E990E007C08FE99FE00197F1F700C081
:102280000000C9019C0121503109892BA1F780E888
:102290008BB982E390E007C08FE99FE00197F1F7E7
:1022A00000C00000C9019C0121503109892BA1F710
:1022B00080E28BB986E990E007C08FE99FE0019743
:1022C000F1F700C00000C9019C0121503109892BA0
:1022D000A1F780E88BB982E390E007C08FE99FE027
:1022E0000197F1F700C00000C9019C01215031099C
:1022F000892BA1F780E28BB986E990E007C08FE9CE
:102300009FE00197F1F700C00000C9019C01215036
:102310003109892BA1F780E88BB982E390E007C0EF
:102320008FE99FE00197F1F700C00000C9019C010F
:1023300021503109892BA1F780E28BB986E990E021
:1023400007C08FE99FE00197F1F700C00000C901C5
:102350009C0121503109892BA1F780E88BB982E3D8
:1023600090E007C08FE99FE00197F1F700C00000FF
:10237000C9019C0121503109892BA1F780E28BB959
:1023800082E390E007C08FE99FE00197F1F700C07A
:102390000000C9019C0121503109892BA1F788E077
:1023A0008BB982E390E007C08FE99FE00197F1F7D6
:1023B00000C00000C9019C0121503109892BA1F7FF
:0223C00008957E
:1023C2008AB18C6F8AB90E9487146EE873E080E04C
:1023D2000E945F1460EB73E080E00E945F1465EC82
:1023E20073E080E00E945F1465ED73E080E00E947C
:1023F2005F1463EE73E080E00E945F146EEE73E0A0
:1024020080E00E945F146CEF73E080E00E945F1432
:1024120067E074E080E00E945F140E94A7148D3090
:10242200E1F38A30D1F38333A9F128F4813351F0F7
:102432008233E1F06BC0843309F440C0853309F480
:1024420051C064C06AE074E080E00E945F1485E3DA
:1024520093E10E94751464E274E080E00E945F14CC
:1024620060E474E080E00E945F14D7CF63E474E01C
:1024720080E00E945F1484EF93E10E9475146BE583
:1024820074E080E00E945F1460E474E080E00E94E7
:102492005F14C3CF65E774E080E00E945F1482E9B5
:1024A20092E10E9475146AE874E080E00E945F1471
:1024B20060E474E080E00E945F14AFCF61EA74E0F0
:1024C20080E00E945F1480E293E00E94751469EB41
:1024D20074E080E00E945F1460E474E080E00E9497
:1024E2005F149BCF63ED74E080E00E945F1485E48B
:1024F20094E10E94751468EE74E080E00E945F141B
:1025020060E474E080E00E945F1487CF6FEF74E0B4
:1025120080E00E945F1460E474E080E00E945F1437
:022522007CCF6C
:1025240080E88BB988E00AC02FEF33ED80E32150B7
:1025340030408040E1F700C00000892F9FEF980FE2
:102544008111F2CF80E18BB983E00AC02FEF33ED24
:1025540080E3215030408040E1F700C00000892F23
:102564009FEF980F8111F2CF84E08BB982E00AC00B
:102574002FEF33ED80E3215030408040E1F700C07D
:102584000000892F9FEF980F8111F2CF80E98BB95A
:1025940085E00AC02FEF33ED80E3215030408040C6
:1025A400E1F700C00000892F9FEF980F8111F2CF4F
:1025B40088E08BB982E00AC02FEF33ED80E321502D
:1025C40030408040E1F700C00000892F9FEF980F52
:1025D4008111F2CF80E28BB985E00AC02FEF33ED91
:1025E40080E3215030408040E1F700C00000892F93
:1025F4009FEF980F8111F2CF84E08BB982E00AC07B
:102604002FEF33ED80E3215030408040E1F700C0EC
:102614000000892F9FEF980F8111F2CF80E58BB9CD
:1026240085E00AC02FEF33ED80E321503040804035
:10263400E1F700C00000892F9FEF980F8111F2CFBE
:1026440088E08BB981E00AC02FEF33ED80E321509D
:1026540030408040E1F700C00000892F9FEF980FC1
:062664008111F2CF089580
:10266A0080E88BB980E10AC02FEF33ED80E3215077
:10267A0030408040E1F700C00000892F9FEF980F9B
:10268A008111F2CF80E18BB982E00AC02FEF33EDDE
:10269A0080E3215030408040E1F700C00000892FDC
:1026AA009FEF980F8111F2CF84E08BB982E00AC0C4
:1026BA002FEF33ED80E3215030408040E1F700C036
:1026CA000000892F9FEF980F8111F2CF80E18BB91B
:1026DA0085E00AC02FEF33ED80E32150304080407F
:1026EA00E1F700C00000892F9FEF980F8111F2CF08
:1026FA0080E88BB985E00AC02FEF33ED80E32150E3
:10270A0030408040E1F700C00000892F9FEF980F0A
:10271A008111F2CF80E68BB985E00AC02FEF33ED45
:10272A0080E3215030408040E1F700C00000892F4B
:10273A009FEF980F8111F2CF88E08BB981E00AC030
:10274A002FEF33ED80E3215030408040E1F700C0A5
:0E275A000000892F9FEF980F8111F2CF089594
:102768006F927F928F92CF92DF92EF92FF92CF93E8
:10277800DF933B01882E20E030E025C0C901880F97
:10278800991FE82DE301C80FD91FE11D97FDEA95B0
:10279800CE01AE2FFE01C4900196A11DFC018491CB
:1027A800CBB8F2E38F9FC001112407C08FE99FE0E7
:1027B8000197F1F700C00000CF01FC013197892B88
:1027C800A9F72F5F3F4F24173507C0F2DF91CF914C
:1027D800FF90EF90DF90CF908F907F906F9008954B
:1027E80080E48BB987E00AC02FEF33ED80E32150F6
:1027F80030408040E1F700C00000892F9FEF980F1C
:102808008111F2CF80E18BB983E00AC02FEF33ED5D
:1028180080E3215030408040E1F700C00000892F5C
:102828009FEF980F8111F2CF46E950E064E175E01F
:0828380080E00E94B413089532
:1028400080E88BB980E10AC02FEF33ED80E321509F
:1028500030408040E1F700C00000892F9FEF980FC3
:102860008111F2CF80E18BB982E00AC02FEF33ED06
:1028700080E3215030408040E1F700C00000892F04
:0A2880009FEF980F8111F2CF089529
:10288A0080E48BB988E00AC02FEF33ED80E3215052
:10289A0030408040E1F700C00000892F9FEF980F79
:1028AA008111F2CF47E851E060E870E080E00E94D1
:0428BA00B4130895B6
:1028BE00CF92DF92EF926B01E82E06C09FEFC91AFE
:1028CE00D90AE90A0E94A014F6018491E7FC8081DE
:0C28DE008111F4CFEF90DF90CF900895AF
:1028EA002FEF33EC49E0215030404040E1F700C07F
:1028FA0000001092C1001092C000FC0109950E94CC
:04290A008714089591
:10290E001092C50087E68093C4001092C00088E143
:0C291E008093C10086E08093C200089501
:10292A00EC010E94B3140E94B214CE010E94B414A6
:06293A00CE010E94B01462
:0E2940009091C00095FFFCCF8093C6000895D3
:0E294E008091C0008823E4F78091C6000895B0
:04295C000C940000D7
:042960000E943E0093
:022964000895D4
:022966000895D2
:022968000895D0
:00000001FF
