:100000000C9437000C94BE160C94CD160C94E71685
:100010000C94E7160C94E7160C94E7160C94E7166C
:100020000C94E7160C94E7160C94E7160C94E7165C
:100030000C94E7160C94E7160C94E7160C94E7164C
:100040000C94E7160C94E7160C94E7160C94E7163C
:100050000C94E7160C94E7160C94E7160C94E7162C
:100060000C94E7160C94E71601000101800011249E
:100070001FBECFEFD8E0DEBFCDBFE8E6F0E040E046
:1000800017C0B591A59135912591059107FD0CC03B
:1000900095918591EF01F92FE82F05900D92A21708
:1000A000B307D9F7FE0104C01D92A217B307E1F709
:1000B000ED36F40731F70E9461000C94DC16F894D9
:0200C000FFCF70
:1000C20084B1886384B987B1896387B985B1806255
:1000D20085B988B1806288B988B1816088B98AB1EE
:1000E200837F8AB98BB18C608BB98AE08093690077
:1000F20083E08CBB8DBB78942FEB87E299E0215093
:1001020080409040E1F700C000006AE673E180E0C1
:100112000E94E71260E87CE080E00E94CA106AE672
:1001220073E181E00E94E71260E679E081E00E94DB
:10013200CA102FE78AE196E0215080409040E1F713
:1001420000C000000E947B1688B18E7F88B987EAC2
:1001520091E60197F1F700C000006CEB72E081E0DC
:100162000E94041588B1816088B987EA91E60197F7
:10017200F1F700C000000E947B166CEB72E081E098
:100182000E94E7120E947B1688B18E7F88B987EAA7
:1001920091E60197F1F700C000006CEB72E080E09D
:1001A2000E94041588B1816088B987EA91E60197B7
:1001B200F1F700C000000E947B169FE32DE083E070
:1001C200915020408040E1F700C0000060ED77E0F0
:1001D20080E00E94E7120E947B1688B18E7F88B968
:1001E20087EA91E60197F1F700C0000060E273E050
:1001F20081E00E94CA1060E273E081E00E94E7128F
:1002020060E273E080E00E94CA1060E273E080E086
:100212000E94E71288B1816088B987EA91E6019766
:10022200F1F700C000000E947B169FE32DE083E0FF
:10023200915020408040E1F700C0000068EE73E07A
:1002420080E00E94E7120E947B1688B18E7F88B9F7
:1002520087EA91E60197F1F700C0000060E273E0DF
:1002620081E00E94CA1060E273E080E00E94E7121F
:100272006EE373E082E00E94041588B1816088B960
:1002820087EA91E60197F1F700C000000E947B1611
:100292009FE32DE083E0915020408040E1F700C0D1
:1002A200000068EE73E080E00E94CA100E947B1694
:1002B20088B18E7F88B987EA91E60197F1F700C08D
:1002C20000006FE070E080E00E94CA106CE370E012
:1002D20081E00E94E7126FE070E080E00E94CA10A5
:1002E2006EE170E081E00E94E7126FE070E080E072
:1002F2000E94CA106EE170E081E00E94E7126FE096
:1003020070E080E00E94CA106EE170E081E00E941D
:10031200E7126FE070E080E00E94CA106EE170E0C8
:1003220081E00E94E7126FE070E080E00E94CA1054
:100332006FE070E081E00E94E7126FE070E080E021
:100342000E94CA106FE070E081E00E94E7126FE045
:1003520070E080E00E94CA106EE170E081E00E94CD
:10036200E7126FE070E080E00E94CA106FE070E078
:1003720081E00E94E7126FE070E080E00E94CA1004
:100382006FE070E081E00E94E7126EE170E080E0D1
:100392000E94CA106FE070E081E00E94E7126FE0F5
:1003A20070E080E00E94CA106FE070E081E00E947D
:1003B200E7126FE070E080E00E94CA106FE070E028
:1003C20081E00E94E7126EE170E080E00E94CA10B4
:1003D2006FE070E081E00E94E7126EE170E080E081
:1003E2000E94CA106FE070E081E00E94E7126EE1A5
:1003F20070E080E00E94CA106FE070E081E00E942D
:10040200E7126EE170E080E00E94CA106FE070E0D7
:1004120081E00E94E7126CE370E080E00E94CA1063
:100422006FE070E081E00E94E71264EB70E080E030
:100432000E94CA106FE070E080E00E94E7126CE355
:1004420070E080E00E94CA106FE070E080E00E94DD
:10045200E7126EE170E080E00E94CA106FE070E087
:1004620080E00E94E7126EE170E080E00E94CA1014
:100472006FE070E080E00E94E7126EE170E080E0E1
:100482000E94CA106FE070E080E00E94E7126EE105
:1004920070E080E00E94CA106FE070E080E00E948D
:1004A200E7126FE070E080E00E94CA106FE070E037
:1004B20080E00E94E7126FE070E080E00E94CA10C4
:1004C2006FE070E080E00E94E7126EE170E080E091
:1004D2000E94CA106FE070E080E00E94E7126FE0B5
:1004E20070E080E00E94CA106FE070E080E00E943D
:1004F200E7126FE070E080E00E94CA106EE170E0E7
:1005020080E00E94E7126FE070E080E00E94CA1073
:100512006FE070E080E00E94E7126FE070E080E040
:100522000E94CA106FE070E080E00E94E7126FE064
:1005320070E080E00E94CA106EE170E080E00E94EC
:10054200E7126FE070E080E00E94CA106EE170E096
:1005520080E00E94E7126FE070E080E00E94CA1023
:100562006EE170E080E00E94E7126FE070E080E0F0
:100572000E94CA106EE170E080E00E94E7126FE014
:1005820070E080E00E94CA106CE370E080E00E949C
:10059200E7126FE070E080E00E94CA1064EB70E046
:1005A20080E00E94E7126FE070E081E00E94CA10D2
:1005B2006CE370E080E00E94E7126FE070E081E09F
:1005C2000E94CA106EE170E080E00E94E7126FE0C4
:1005D20070E081E00E94CA106EE170E080E00E944B
:1005E200E7126FE070E081E00E94CA106EE170E0F5
:1005F20080E00E94E7126FE070E081E00E94CA1082
:100602006EE170E080E00E94E7126FE070E081E04E
:100612000E94CA106FE070E080E00E94E7126FE073
:1006220070E081E00E94CA106FE070E080E00E94FA
:10063200E7126FE070E081E00E94CA106EE170E0A4
:1006420080E00E94E7126FE070E081E00E94CA1031
:100652006FE070E080E00E94E7126FE070E081E0FE
:100662000E94CA106FE070E080E00E94E7126EE123
:1006720070E081E00E94CA106FE070E080E00E94AA
:10068200E7126FE070E081E00E94CA106FE070E054
:1006920080E00E94E7126FE070E081E00E94CA10E1
:1006A2006FE070E080E00E94E7126EE170E081E0AE
:1006B2000E94CA106FE070E080E00E94E7126EE1D3
:1006C20070E081E00E94CA106FE070E080E00E945A
:1006D200E7126EE170E081E00E94CA106FE070E004
:1006E20080E00E94E7126EE170E081E00E94CA1091
:1006F2006FE070E080E00E94E7126CE370E081E05E
:100702000E94CA106FE070E080E00E94E71263EC82
:1007120070E081E00E94CA106FE070E081E00E9408
:10072200E7126CE370E081E00E94CA106FE070E0B3
:1007320081E00E94E7126EE170E081E00E94CA103F
:100742006FE070E081E00E94E7126EE170E081E00C
:100752000E94CA106FE070E081E00E94E7126EE131
:1007620070E081E00E94CA106FE070E081E00E94B8
:10077200E7126EE170E081E00E94CA106FE070E063
:1007820081E00E94E7126FE070E081E00E94CA10EF
:100792006FE070E081E00E94E7126FE070E081E0BC
:1007A2000E94CA106FE070E081E00E94E7126EE1E1
:1007B20070E081E00E94CA106FE070E081E00E9468
:1007C200E7126FE070E081E00E94CA106FE070E013
:1007D20081E00E94E7126FE070E081E00E94CA109F
:1007E2006EE170E081E00E94E7126FE070E081E06C
:1007F2000E94CA106FE070E081E00E94E7126FE091
:1008020070E081E00E94CA106FE070E081E00E9417
:10081200E7126FE070E081E00E94CA106EE170E0C2
:1008220081E00E94E7126FE070E081E00E94CA104E
:100832006EE170E081E00E94E7126FE070E081E01B
:100842000E94CA106EE170E081E00E94E7126FE040
:1008520070E081E00E94CA106EE170E081E00E94C7
:10086200E7126FE070E081E00E94CA106CE370E072
:1008720081E00E94E7126FE070E081E00E94CA10FE
:1008820061EE70E081E00E94E71288B1816088B970
:1008920087EA91E60197F1F700C000000E947B16FB
:1008A2009FE32DE083E0915020408040E1F700C0BB
:1008B200000068EE73E081E00E94E7120E947B165E
:1008C20088B18E7F88B987EA91E60197F1F700C077
:1008D20000006AE070E081E00E94E7126AE070E0E6
:1008E20081E00E94CA1064E170E081E00E94E71298
:1008F2006AE070E081E00E94CA106AE070E081E084
:100902000E94E7126AE070E081E00E94CA1064E18E
:1009120070E081E00E94E7126AE070E081E00E94EC
:10092200CA106EE170E081E00E94E7126AE070E0B6
:1009320081E00E94CA106AE070E081E00E94E71242
:100942006AE070E081E00E94CA1064E170E081E038
:100952000E94E7126AE070E081E00E94CA106EE134
:1009620070E081E00E94E7126AE070E080E00E949D
:10097200CA106EE170E081E00E94E7126AE070E066
:1009820080E00E94CA106AE070E081E00E94E712F3
:100992006AE070E080E00E94CA106EE170E081E0DF
:1009A2000E94E7126AE070E080E00E94CA1064E1EF
:1009B20070E081E00E94E7126AE070E080E00E944D
:1009C200CA106AE070E081E00E94E71288B181609B
:1009D20088B987EA91E60197F1F700C000000E940A
:1009E2007B1666E871E080E00E94CA1068EC70E055
:1009F20080E00E94E7120E947B1688B18E7F88B940
:100A020087EA91E60197F1F700C000006AE070E022
:100A120080E00E94E71264E170E081E00E94CA1067
:100A22006AE070E080E00E94E71264E170E081E039
:100A32000E94CA106AE070E080E00E94E7126EE154
:100A420070E081E00E94CA106AE070E080E00E94DB
:100A5200E71264E170E081E00E94CA106AE070E08F
:100A620080E00E94E7126EE170E081E00E94CA100D
:100A72006AE070E080E00E94E71262E870E081E0E4
:100A82000E94CA106AE070E081E00E94E7126EE6FE
:100A920070E081E00E94CA1088B1816088B987EA5B
:100AA20091E60197F1F700C000000E947B166AE010
:100AB20070E081E00E94CA106AE070E081E00E946A
:100AC200E7120E947B1688B18E7F88B987EA91E689
:100AD2000197F1F700C000006AE570E080E00E9433
:100AE200CA106AE070E080E00E94E71264E670E0FB
:100AF20080E00E94CA106AE070E080E00E94E71283
:100B020066E470E080E00E94CA106AE070E081E072
:100B12000E94E7126EE170E080E00E94CA106AE073
:100B220070E081E00E94E7126EE170E080E00E94D6
:100B3200CA106AE070E081E00E94E71264E170E0AE
:100B420080E00E94CA106AE070E081E00E94E71231
:100B52006EE170E080E00E94CA106AE070E081E01D
:100B62000E94E7126EE170E080E00E94CA106AE023
:100B720070E081E00E94E7126EE170E080E00E9486
:100B8200CA106AE070E081E00E94E71264E170E05E
:100B920080E00E94CA1064E170E081E00E94E712E6
:100BA2006AE070E080E00E94CA106AE070E081E0D2
:100BB2000E94E7126AE070E080E00E94CA106AE0D8
:100BC20070E081E00E94E7126AE070E080E00E943B
:100BD200CA1064E170E081E00E94E7126AE070E00E
:100BE20080E00E94CA106AE070E081E00E94E71291
:100BF2006AE070E080E00E94CA106AE070E081E082
:100C02000E94E7126AE070E080E00E94CA1064E18C
:100C120070E081E00E94E7126AE070E080E00E94EA
:100C2200CA106AE070E081E00E94E7126AE070E0B8
:100C320080E00E94CA1064E170E081E00E94E71245
:100C42006AE070E080E00E94CA106AE070E081E031
:100C52000E94E7126AE070E080E00E94CA106AE037
:100C620070E081E00E94E7126AE070E080E00E949A
:100C7200CA1064E170E081E00E94E7126AE070E06D
:100C820080E00E94CA106AE070E081E00E94E712F0
:100C92006AE070E080E00E94CA1064E170E081E0E6
:100CA2000E94E7126AE070E080E00E94CA106AE0E7
:100CB20070E081E00E94E7126AE070E080E00E944A
:100CC200CA106AE070E081E00E94E71264E170E01D
:100CD20081E00E94CA106AE070E081E00E94E7129F
:100CE2006AE070E081E00E94CA106AE070E081E090
:100CF2000E94E71264E170E081E00E94CA106AE09B
:100D020070E081E00E94E7126AE070E081E00E94F8
:100D1200CA106AE070E081E00E94E7126EE170E0C2
:100D220081E00E94CA106AE070E081E00E94E7124E
:100D32006AE070E081E00E94CA106AE070E081E03F
:100D42000E94E71264E170E081E00E94CA106AE04A
:100D520070E081E00E94E7126AE070E081E00E94A8
:100D6200CA106AE070E081E00E94E7126AE070E077
:100D720081E00E94CA106AE070E080E00E94CA101E
:100D820064E170E080E00E94E71264E170E080E0DC
:100D92000E94CA106AE070E080E00E94E7126AE0F6
:100DA20070E080E00E94CA106AE070E080E00E9479
:100DB200E7126AE070E080E00E94CA106AE070E028
:100DC20080E00E94E7126AE070E080E00E94CA10B0
:100DD2006AE070E080E00E94E71268E270E080E082
:100DE2000E94CA106AE070E081E00E94E7126EE1A0
:100DF20070E080E00E94CA1066E470E081E00E9428
:100E0200E7126AE070E080E00E94CA1060E570E0DC
:100E120081E00E94E71264E170E081E00E94CA1062
:100E22006AE070E081E00E94E7126AE070E081E02F
:100E32000E94CA106AE070E081E00E94E71264E159
:100E420070E081E00E94CA106AE070E081E00E94D6
:100E5200E7126AE070E081E00E94CA106AE070E086
:100E620081E00E94E7126EE170E081E00E94CA1008
:100E72006AE070E081E00E94E7126AE070E081E0DF
:100E82000E94CA106AE070E081E00E94E71264E109
:100E920070E081E00E94CA106AE070E081E00E9486
:100EA200E7126AE070E081E00E94CA106AE070E036
:100EB20081E00E94E7126EE170E081E00E94CA10B8
:100EC2006AE070E081E00E94E71264E170E081E094
:100ED2000E94CA106AE070E080E00E94E71264E1BA
:100EE20070E081E00E94CA106AE070E080E00E9437
:100EF200E71264E170E081E00E94CA106AE070E0EB
:100F020080E00E94E71264E170E081E00E94CA1072
:100F12006AE070E080E00E94E7126AE070E081E03F
:100F22000E94CA1064E170E080E00E94CA106AE088
:100F320070E080E00E94E7126EE170E080E00E94C3
:100F4200CA106AE070E080E00E94E7126EE170E091
:100F520080E00E94CA106AE070E080E00E94E7121E
:100F62006EE170E080E00E94CA106AE070E080E00A
:100F72000E94E7126AE070E080E00E94CA106AE014
:100F820070E080E00E94E7126EE170E080E00E9473
:100F9200CA106AE070E080E00E94E7126EE170E041
:100FA20080E00E94CA106AE070E080E00E94E712CE
:100FB2006EE170E080E00E94CA106AE070E080E0BA
:100FC2000E94E7126AE070E080E00E94CA106AE0C4
:100FD20070E081E00E94CA106AE070E081E00E9445
:100FE200E71264E170E081E00E94CA106AE070E0FA
:100FF20081E00E94E7126AE070E081E00E94CA107C
:101002006AE070E081E00E94E71264E170E081E052
:101012000E94CA106AE070E081E00E94E7126EE16D
:1010220070E081E00E94CA106AE070E080E00E94F5
:10103200E71268E270E081E00E94CA106AE070E0A4
:1010420080E00E94E71268E270E081E00E94CA102C
:101052006AE070E080E00E94E71264E170E081E003
:101062000E94CA106AE070E080E00E94E7126AE023
:1010720070E080E00E94CA106EE170E080E00E94A1
:10108200E7126AE070E080E00E94CA106EE170E050
:1010920080E00E94E7126AE070E080E00E94CA10DD
:1010A2006EE170E080E00E94E7126AE070E080E0AA
:1010B2000E94CA1064E170E080E00E94E7126AE0D8
:1010C20070E080E00E94CA106EE170E080E00E9451
:1010D200E7126AE070E080E00E94CA106EE170E000
:1010E20080E00E94E7126AE070E080E00E94CA108D
:1010F2006EE170E080E00E94E7126AE070E080E05A
:101102000E94CA1064E170E080E00E94E7126AE087
:1011120070E081E00E94E7126AE070E081E00E94E4
:10112200CA1064E170E081E00E94E7126AE070E0B8
:1011320081E00E94CA106EE170E081E00E94E71235
:101142006AE070E081E00E94CA1064E170E081E030
:101152000E94E7126AE070E081E00E94CA1064E136
:1011620070E081E00E94E7126AE070E081E00E9494
:10117200CA106EE170E081E00E94E7126AE070E05E
:1011820081E00E94CA1064E170E081E00E94E712EF
:101192006AE070E081E00E94CA106EE170E081E0D6
:1011A2000E94E7126AE070E081E00E94CA1064E1E6
:1011B20070E081E00E94E7126AE070E081E00E9444
:1011C200CA1064E170E081E00E94E7126AE070E018
:1011D20081E00E94CA1064E170E081E00E94E7129F
:1011E20064E170E081E00E94CA106AE070E080E091
:1011F2000E94E71264E170E081E00E94CA106AE096
:1012020070E080E00E94E7126AE070E081E00E94F4
:10121200CA106AE070E080E00E94E71264E170E0C8
:1012220081E00E94CA106AE070E080E00E94E7124A
:101232006AE070E081E00E94CA1060E570E080E040
:101242000E94E71262E370E081E00E94E7126AE026
:1012520070E081E00E94CA106CE370E081E00E94BD
:10126200E7126AE070E081E00E94CA106AE070E072
:1012720081E00E94E7126AE070E081E00E94CA10F9
:101282006AE070E081E00E94E7126AE070E081E0CB
:101292000E94CA106AE070E081E00E94E7126AE0F0
:1012A20070E081E00E94CA106AE070E081E00E9472
:1012B200E7126AE070E081E00E94CA106AE070E022
:1012C20081E00E94E7126AE070E081E00E94CA10A9
:1012D2006AE070E081E00E94E7126AE070E081E07B
:1012E2000E94CA106AE070E081E00E94E7126AE0A0
:1012F20070E081E00E94CA106AE070E081E00E9422
:10130200E7126AE070E081E00E94CA106AE070E0D1
:1013120081E00E94E7126AE070E081E00E94CA1058
:101322006AE070E081E00E94E7126AE070E081E02A
:101332000E94CA106AE070E081E00E94E71264E154
:1013420070E080E00E94E7126AE070E081E00E94B3
:10135200CA106EE170E080E00E94E71264E170E082
:1013620081E00E94CA106AE070E081E00E94E71208
:101372006EE170E081E00E94CA106AE070E081E0F4
:101382000E94E7126EE170E081E00E94CA106AE0FA
:1013920070E081E00E94E7126AE070E081E00E9462
:1013A200CA106AE070E080E00E94CA106AE070E051
:1013B20080E00E94E7126AE070E080E00E94CA10BA
:1013C2006AE070E080E00E94E7126AE070E080E08C
:1013D2000E94CA106AE070E080E00E94E7126AE0B0
:1013E20070E080E00E94CA106AE070E080E00E9433
:1013F200E7126AE070E080E00E94CA106AE070E0E2
:1014020080E00E94E7126AE070E080E00E94CA1069
:101412006AE070E080E00E94E7126AE070E081E03A
:101422000E94CA106AE070E080E00E94E7126AE05F
:1014320070E081E00E94CA106AE070E080E00E94E1
:10144200E7126AE070E081E00E94CA106AE070E090
:1014520080E00E94E71264E170E080E00E94CA101E
:101462006AE070E080E00E94E7126EE170E080E0E6
:101472000E94CA106AE070E080E00E94E7126EE10A
:1014820070E080E00E94CA106AE070E080E00E9492
:10149200E7126AE070E080E00E94CA1064E170E046
:1014A20080E00E94E7126AE070E080E00E94CA10C9
:1014B20066E470E080E00E94E7126AE070E080E09B
:1014C2000E94CA1062E370E080E00E94E7126AE0C4
:1014D20070E080E00E94CA1068E270E080E00E9442
:1014E200E7126EE170E081E00E94CA106AE070E0EB
:1014F20080E00E94E71288B1816088B987EA91E6AC
:101502000197F1F700C000000E947B1668E270E0CC
:1015120081E00E94CA106AE070E080E00E94E71257
:1015220068E270E081E00E94CA106AE070E080E048
:101532000E94E7126EE170E081E00E94CA106AE048
:1015420070E080E00E94E71268E270E081E00E94B1
:10155200CA106AE070E080E00E94E71268E270E080
:1015620081E00E94CA106AE070E080E00E94E71207
:1015720064E170E081E00E94CA106AE070E080E0FD
:101582000E94E7126AE070E080E00E94CA106EE1F9
:1015920070E080E00E94E7126AE070E080E00E9462
:1015A200CA1088B1816088B987EA91E60197F1F79C
:1015B20000C000000E947B166AE070E080E00E949A
:1015C200CA106AE070E080E00E94E7126AE070E010
:1015D20080E00E94CA106EE170E080E00E94E71293
:1015E2006AE070E080E00E94CA106EE170E080E084
:1015F2000E94E7126AE070E080E00E94CA106AE08E
:1016020070E080E00E94E71288B1816088B987EAC1
:1016120091E60197F1F700C000000E947B1662E399
:1016220070E081E00E94CA1064EB70E081E00E94E9
:10163200E7120E947B1688B18E7F88B987EA91E60D
:101642000197F1F700C000006AE070E080E00E94BC
:10165200CA106AE070E080E00E94E71268E270E07F
:1016620080E00E94CA106AE070E081E00E94E71206
:1016720064E670E080E00E94CA106AE070E080E0F8
:101682000E94E71262E370E080E00E94CA106AE002
:1016920070E081E00E94E7126AE070E080E00E9460
:1016A200CA106AE070E081E00E94E7126AE070E02E
:1016B20080E00E94CA106EE170E081E00E94E712B1
:1016C2006AE070E080E00E94CA1062E370E081E0AC
:1016D2000E94E7126AE070E081E00E94CA106AE0AC
:1016E20070E081E00E94E7126AE070E081E00E940F
:1016F200CA106AE070E081E00E94E71268E270E0DE
:1017020081E00E94CA106AE070E080E00E94E71265
:1017120068E270E081E00E94CA106AE070E080E056
:101722000E94E7126EE170E081E00E94CA106AE056
:1017320070E080E00E94E7126EE170E081E00E94BA
:10174200CA106AE070E080E00E94E7126AE070E08E
:1017520081E00E94CA106AE070E080E00E94E71215
:101762006AE070E081E00E94CA106AE070E080E006
:101772000E94E71264E170E081E00E94CA1064E115
:1017820070E080E00E94E7126AE070E081E00E946F
:10179200CA106AE070E080E00E94E7126AE070E03E
:1017A20081E00E94CA106EE170E080E00E94E712C0
:1017B20088B1816088B987EA91E60197F1F700C0A4
:1017C20000000E947B1664E670E080E00E94E7124F
:1017D20062E370E080E00E94CA100E947B1688B12A
:1017E2008E7F88B987EA91E60197F1F700C0000081
:1017F2006EE170E081E00E94CA106AE070E081E070
:101802000E94E7126AE070E081E00E94CA106EE175
:1018120070E081E00E94E7126AE070E080E00E94DE
:10182200CA106AE070E081E00E94E7126EE170E0A7
:1018320080E00E94CA106AE070E080E00E94E71235
:101842006AE070E080E00E94CA106EE170E080E021
:101852000E94E7126AE070E081E00E94CA106AE02A
:1018620070E080E00E94E71268E270E081E00E948E
:10187200CA1088B1816088B987EA91E60197F1F7C9
:1018820000C000000E947B169FED22E282E0915090
:1018920020408040E1F700C0000068EE73E081E084
:1018A2000E94E7120E947B1688B18E7F88B987EA70
:1018B20091E60197F1F700C0000068E270E081E074
:1018C2000E94CA106AE070E081E00E94E71266E4BA
:1018D20070E081E00E94CA106AE070E081E00E943C
:1018E200E7126CE370E081E00E94CA106AE070E0E7
:1018F20081E00E94E71268E270E081E00E94CA1073
:1019020064E170E081E00E94E71264E170E081E04E
:101912000E94CA1064E170E081E00E94E7126AE06E
:1019220070E081E00E94CA106AE070E081E00E94EB
:10193200E71264E170E081E00E94CA1064E170E0A5
:1019420081E00E94E7126AE070E081E00E94CA1022
:101952006AE070E081E00E94E7126AE070E081E0F4
:101962000E94CA106AE070E081E00E94E7126AE019
:1019720070E081E00E94CA106AE070E081E00E949B
:10198200E7126AE070E081E00E94CA1064E170E050
:1019920080E00E94E7126AE070E081E00E94CA10D3
:1019A2006AE070E080E00E94E7126AE070E081E0A5
:1019B2000E94CA106AE070E080E00E94E7126AE0CA
:1019C20070E081E00E94CA1064E170E080E00E9451
:1019D200E7126AE070E081E00E94CA106AE070E0FB
:1019E20080E00E94E7126AE070E081E00E94CA1083
:1019F2006AE070E080E00E94E7126AE070E081E055
:101A02000E94CA1064E170E081E00E94E7126AE07D
:101A120070E081E00E94CA106AE070E081E00E94FA
:101A2200E7126AE070E081E00E94CA106EE170E0A5
:101A320081E00E94E7126AE070E080E00E94CA1032
:101A42006EE170E081E00E94E7126AE070E080E0FF
:101A52000E94CA106EE170E081E00E94E7126AE023
:101A620070E080E00E94CA1064E170E081E00E94B0
:101A7200E7126AE070E080E00E94CA106EE170E056
:101A820081E00E94E7126AE070E080E00E94CA10E2
:101A920064E170E081E00E94E71266E470E081E0B8
:101AA2000E94CA106AE070E081E00E94E71268E7D3
:101AB20070E081E00E94CA106AE070E081E00E945A
:101AC200E71266E470E081E00E94CA1064E170E00F
:101AD20081E00E94E7126AE070E081E00E94CA1091
:101AE2006AE070E081E00E94E7126AE070E081E063
:101AF2000E94CA106AE070E081E00E94E7126AE088
:101B020070E081E00E94CA1064E170E081E00E940E
:101B1200E7126AE070E081E00E94CA106AE070E0B9
:101B220081E00E94E7126AE070E081E00E94CA1040
:101B32006AE070E081E00E94E7126AE070E081E012
:101B42000E94CA106AE070E081E00E94E7126AE037
:101B520070E081E00E94CA1064E170E081E00E94BE
:101B6200E7126AE070E081E00E94CA106AE070E069
:101B720081E00E94E7126AE070E081E00E94CA10F0
:101B820068E270E081E00E94E7126AE070E081E0C2
:101B92000E94CA106CE370E081E00E94E7126AE0E2
:101BA20070E081E00E94CA1066E470E081E00E9469
:101BB200E7126AE070E081E00E94CA106CE370E014
:101BC20081E00E94E7126AE070E080E00E94CA10A1
:101BD20068E270E081E00E94E7126AE070E080E073
:101BE2000E94CA1068E270E081E00E94E7126AE097
:101BF20070E080E00E94CA1068E270E081E00E941A
:101C0200E7126AE070E080E00E94CA106EE170E0C4
:101C120081E00E94E7126AE070E080E00E94CA1050
:101C220064E170E081E00E94E7126AE070E080E027
:101C32000E94CA106AE070E081E00E94E7126AE046
:101C420070E080E00E94CA1064E170E081E00E94CE
:101C5200E7126AE070E080E00E94CA1064E170E07E
:101C620081E00E94E7126AE070E080E00E94CA1000
:101C720064E170E081E00E94E71264E170E080E0DC
:101C82000E94CA1064E170E081E00E94E7126AE0FB
:101C920070E080E00E94CA1064E170E081E00E947E
:101CA200E7126AE070E080E00E94CA106AE070E029
:101CB20081E00E94E7126AE070E080E00E94CA10B0
:101CC20064E170E081E00E94E7126AE070E080E087
:101CD2000E94CA106AE070E081E00E94E7126AE0A6
:101CE20070E080E00E94CA106AE070E081E00E9429
:101CF200E7126AE070E080E00E94CA106AE070E0D9
:101D020081E00E94E71264E170E080E00E94CA1064
:101D12006AE070E081E00E94E71264E170E080E036
:101D22000E94CA106AE070E081E00E94E7126AE055
:101D320070E080E00E94CA106AE070E081E00E94D8
:101D4200E7126AE070E080E00E94CA106AE070E088
:101D520081E00E94E71264E170E080E00E94CA1014
:101D62006AE070E081E00E94E7126AE070E080E0E1
:101D72000E94CA106AE070E081E00E94E71264E10A
:101D820070E080E00E94CA106AE070E081E00E9488
:101D9200E71260EA70E080E00E94CA106AE070E038
:101DA20080E00E94E7126AEA70E080E00E94CA10B6
:101DB2006AE070E080E00E94E7126AE070E080E092
:101DC2000E94CA106AE070E080E00E94E7126AE0B6
:101DD20070E080E00E94CA1064E170E080E00E943E
:101DE200E71264E170E080E00E94CA1064E170E0F2
:101DF20080E00E94E7126AE070E080E00E94CA1070
:101E02006AE070E080E00E94E7126AE070E080E041
:101E12000E94CA106AE070E080E00E94E7126AE065
:101E220070E080E00E94CA106AE070E080E00E94E8
:101E3200E7126AE070E080E00E94CA106AE070E097
:101E420080E00E94E7126AE070E080E00E94CA101F
:101E52006AE070E080E00E94E7126AE070E080E0F1
:101E62000E94CA106AE070E080E00E94E7126AE015
:101E720070E080E00E94CA106AE070E080E00E9498
:101E8200E7126AE070E080E00E94CA106AE070E047
:101E920080E00E94E7126AE070E080E00E94CA10CF
:101EA20064E170E080E00E94E71264E170E080E0AB
:101EB2000E94CA1064E170E080E00E94E7126AE0CA
:101EC20070E080E00E94CA106AE070E080E00E9448
:101ED200E7126AE070E080E00E94CA106AE070E0F7
:101EE20080E00E94E7126AE070E080E00E94CA107F
:101EF2006AE070E080E00E94E7126AE070E080E051
:101F02000E94CA106AE070E080E00E94E7126AE074
:101F120070E080E00E94CA1062E370E080E00E94FC
:101F2200E7126AE070E080E00E94CA1066E470E0A6
:101F320080E00E94E7126AE070E080E00E94CA102E
:101F42006AE570E080E00E94E7126AE070E080E0FB
:101F52000E94CA1066E470E080E00E94E7126AE024
:101F620070E080E00E94CA106CE370E080E00E94A2
:101F7200E7126AE070E081E00E94CA106EE170E050
:101F820080E00E94E7126AE070E081E00E94CA10DD
:101F92006EE170E080E00E94E7126AE070E081E0AA
:101FA2000E94CA106AE070E080E00E94E7126AE0D4
:101FB20070E081E00E94CA106EE170E080E00E9451
:101FC200E7126AE070E081E00E94CA1064E170E00A
:101FD20080E00E94E7126AE070E081E00E94CA108D
:101FE2006AE070E080E00E94E7126AE070E081E05F
:101FF2000E94CA106AE070E080E00E94E71264E189
:1020020070E081E00E94CA106AE070E080E00E9405
:10201200E71264E170E081E00E94CA106AE070E0B9
:1020220080E00E94E7126AE070E081E00E94CA103C
:102032006AE070E080E00E94E7126AE070E081E00E
:102042000E94CA106AE070E080E00E94E71264E138
:1020520070E081E00E94CA106AE070E080E00E94B5
:10206200E7126AE070E081E00E94CA106AE070E064
:1020720080E00E94E71264E170E081E00E94CA10F1
:102082006AE070E080E00E94E7126AEF70E081E0AF
:102092000E94CA1064E170E080E00E94E7126AE0E8
:1020A20070E080E00E94CA106EE170E080E00E9461
:1020B200E71268E770E080E00E94CA106AE070E010
:1020C20080E00E94E71264E670E080E00E94CA109D
:1020D2006AE070E080E00E94E7126AE070E080E06F
:1020E2000E94CA106EE170E080E00E94E7126AE08E
:1020F20070E080E00E94CA106EE170E080E00E9411
:10210200E7126AE070E080E00E94CA106EE170E0BF
:1021120080E00E94E7126AE070E080E00E94CA104C
:102122006EE170E080E00E94E7126AE070E080E019
:102132000E94CA106EE170E080E00E94E7126AE03D
:1021420070E080E00E94CA1060E570E080E00E94CA
:10215200E71288B1816088B987EA91E60197F1F7C1
:1021620000C000000E947B1668E57BE181E00E94CE
:10217200E7129FE32DE083E0915020408040E1F799
:1021820000C0000085B18F7D85B988B18F7D88B987
:02219200FFCF7D
:1021940090910001992309F495C088B1816088B9B0
:1021A40087EA91E60197F1F700C0000080910001F1
:1021B400882309F47FC088B1816088B987EA91E6F1
:1021C4000197F1F700C0000080910001882309F411
:1021D40069C088B1816088B987EA91E60197F1F70F
:1021E40000C0000080910001882309F453C088B125
:1021F400816088B987EA91E60197F1F700C0000091
:1022040080910001882309F43DC088B1816088B9B8
:1022140087EA91E60197F1F700C000008091000180
:10222400882341F188B1816088B987EA91E60197F2
:10223400F1F700C0000080910001882399F088B173
:10224400816088B987EA91E60197F1F700C0000040
:102254000E947B1685B18F7D85B988B18F7D88B941
:10226400F894FFCF85B18F7D85B988B18F7D88B90A
:10227400F894FFCF85B18F7D85B988B18F7D88B9FA
:10228400F894FFCF85B18F7D85B988B18F7D88B9EA
:10229400F894FFCF85B18F7D85B988B18F7D88B9DA
:1022A400F894FFCF85B18F7D85B988B18F7D88B9CA
:1022B400F894FFCF85B18F7D85B988B18F7D88B9BA
:1022C400F894FFCF90910001992309F495C088B147
:1022D400816088B987EA91E60197F1F700C00000B0
:1022E40080910001882309F47FC088B1816088B996
:1022F40087EA91E60197F1F700C0000080910001A0
:10230400882309F469C088B1816088B987EA91E6B5
:102314000197F1F700C0000080910001882309F4BF
:1023240053C088B1816088B987EA91E60197F1F7D3
:1023340000C0000080910001882309F43DC088B1E9
:10234400816088B987EA91E60197F1F700C000003F
:1023540080910001882341F188B1816088B987EABE
:1023640091E60197F1F700C00000809100018823F5
:1023740099F088B1816088B987EA91E60197F1F70D
:1023840000C000000E947B1685B18F7D85B988B19D
:102394008F7D88B9F894FFCF85B18F7D85B988B1D9
:1023A4008F7D88B9F894FFCF85B18F7D85B988B1C9
:1023B4008F7D88B9F894FFCF85B18F7D85B988B1B9
:1023C4008F7D88B9F894FFCF85B18F7D85B988B1A9
:1023D4008F7D88B9F894FFCF85B18F7D85B988B199
:1023E4008F7D88B9F894FFCF85B18F7D85B988B189
:1023F4008F7D88B9F894FFCF882321F085B180615F
:1024040085B903C085B18F7E85B982E390E00197D9
:10241400F1F7D4C080910001882309F4C1C088B1C8
:10242400816088B987EA91E60197F1F700C000005E
:1024340080910001882309F4ABC088B1816088B918
:1024440087EA91E60197F1F700C00000809100014E
:10245400882309F495C088B1816088B987EA91E638
:102464000197F1F700C0000080910001882309F46E
:102474007FC088B1816088B987EA91E60197F1F756
:1024840000C0000080910001882309F469C088B16C
:10249400816088B987EA91E60197F1F700C00000EE
:1024A40080910001882309F453C088B1816088B900
:1024B40087EA91E60197F1F700C0000080910001DE
:1024C400882309F43DC088B1816088B987EA91E620
:1024D4000197F1F700C0000080910001882341F1C9
:1024E40088B1816088B987EA91E60197F1F700C065
:1024F400000080910001882399F088B1816088B937
:1025040087EA91E60197F1F700C000000E947B166C
:1025140085B18F7D85B988B18F7D88B9F894FFCF57
:1025240085B18F7D85B988B18F7D88B9F894FFCF47
:1025340085B18F7D85B988B18F7D88B9F894FFCF37
:1025440085B18F7D85B988B18F7D88B9F894FFCF27
:1025540085B18F7D85B988B18F7D88B9F894FFCF17
:1025640085B18F7D85B988B18F7D88B9F894FFCF07
:1025740085B18F7D85B988B18F7D88B9F894FFCFF7
:1025840085B18F7D85B988B18F7D88B9F894FFCFE7
:1025940085B18F7D85B988B18F7D88B9F894FFCFD7
:1025A40085B1886085B98CE291E0FC013197F1F73F
:1025B40025B1277F25B90197F1F7BA01AB01415045
:0A25C4005109672B09F026CF089596
:1025CE0090910001992309F495C088B1816088B972
:1025DE0087EA91E60197F1F700C0000080910001B3
:1025EE00882309F47FC088B1816088B987EA91E6B3
:1025FE000197F1F700C0000080910001882309F4D3
:10260E0069C088B1816088B987EA91E60197F1F7D0
:10261E0000C0000080910001882309F453C088B1E6
:10262E00816088B987EA91E60197F1F700C0000052
:10263E0080910001882309F43DC088B1816088B97A
:10264E0087EA91E60197F1F700C000008091000142
:10265E00882341F188B1816088B987EA91E60197B4
:10266E00F1F700C0000080910001882399F088B135
:10267E00816088B987EA91E60197F1F700C0000002
:10268E000E947B1685B18F7D85B988B18F7D88B903
:10269E00F894FFCF85B18F7D85B988B18F7D88B9CC
:1026AE00F894FFCF85B18F7D85B988B18F7D88B9BC
:1026BE00F894FFCF85B18F7D85B988B18F7D88B9AC
:1026CE00F894FFCF85B18F7D85B988B18F7D88B99C
:1026DE00F894FFCF85B18F7D85B988B18F7D88B98C
:1026EE00F894FFCF85B18F7D85B988B18F7D88B97C
:1026FE00F894FFCF90910001992309F495C088B109
:10270E00816088B987EA91E60197F1F700C0000071
:10271E0080910001882309F47FC088B1816088B957
:10272E0087EA91E60197F1F700C000008091000161
:10273E00882309F469C088B1816088B987EA91E677
:10274E000197F1F700C0000080910001882309F481
:10275E0053C088B1816088B987EA91E60197F1F795
:10276E0000C0000080910001882309F43DC088B1AB
:10277E00816088B987EA91E60197F1F700C0000001
:10278E0080910001882341F188B1816088B987EA80
:10279E0091E60197F1F700C00000809100018823B7
:1027AE0099F088B1816088B987EA91E60197F1F7CF
:1027BE0000C000000E947B1685B18F7D85B988B15F
:1027CE008F7D88B9F894FFCF85B18F7D85B988B19B
:1027DE008F7D88B9F894FFCF85B18F7D85B988B18B
:1027EE008F7D88B9F894FFCF85B18F7D85B988B17B
:1027FE008F7D88B9F894FFCF85B18F7D85B988B16B
:10280E008F7D88B9F894FFCF85B18F7D85B988B15A
:10281E008F7D88B9F894FFCF85B18F7D85B988B14A
:10282E008F7D88B9F894FFCF882321F088B180611D
:10283E0088B903C088B18F7E88B982E390E0019792
:10284E00F1F7D4C080910001882309F4C1C088B18A
:10285E00816088B987EA91E60197F1F700C0000020
:10286E0080910001882309F4ABC088B1816088B9DA
:10287E0087EA91E60197F1F700C000008091000110
:10288E00882309F495C088B1816088B987EA91E6FA
:10289E000197F1F700C0000080910001882309F430
:1028AE007FC088B1816088B987EA91E60197F1F718
:1028BE0000C0000080910001882309F469C088B12E
:1028CE00816088B987EA91E60197F1F700C00000B0
:1028DE0080910001882309F453C088B1816088B9C2
:1028EE0087EA91E60197F1F700C0000080910001A0
:1028FE00882309F43DC088B1816088B987EA91E6E2
:10290E000197F1F700C0000080910001882341F18A
:10291E0088B1816088B987EA91E60197F1F700C026
:10292E00000080910001882399F088B1816088B9F8
:10293E0087EA91E60197F1F700C000000E947B162E
:10294E0085B18F7D85B988B18F7D88B9F894FFCF19
:10295E0085B18F7D85B988B18F7D88B9F894FFCF09
:10296E0085B18F7D85B988B18F7D88B9F894FFCFF9
:10297E0085B18F7D85B988B18F7D88B9F894FFCFE9
:10298E0085B18F7D85B988B18F7D88B9F894FFCFD9
:10299E0085B18F7D85B988B18F7D88B9F894FFCFC9
:1029AE0085B18F7D85B988B18F7D88B9F894FFCFB9
:1029BE0085B18F7D85B988B18F7D88B9F894FFCFA9
:1029CE0085B18F7D85B988B18F7D88B9F894FFCF99
:1029DE0088B1886088B98CE291E0FC013197F1F7FB
:1029EE0028B1277F28B90197F1F7BA01AB01415001
:0A29FE005109672B09F026CF089558
:102A080090910001992309F47FC088B1816088B949
:102A180087EA91E60197F1F700C000008091000174
:102A2800882309F469C088B1816088B987EA91E68A
:102A38000197F1F700C0000080910001882309F494
:102A480053C088B1816088B987EA91E60197F1F7A8
:102A580000C0000080910001882309F43DC088B1BE
:102A6800816088B987EA91E60197F1F700C0000014
:102A780080910001882341F188B1816088B987EA93
:102A880091E60197F1F700C00000809100018823CA
:102A980099F088B1816088B987EA91E60197F1F7E2
:102AA80000C000000E947B1685B18F7D85B988B172
:102AB8008F7D88B9F894FFCF85B18F7D85B988B1AE
:102AC8008F7D88B9F894FFCF85B18F7D85B988B19E
:102AD8008F7D88B9F894FFCF85B18F7D85B988B18E
:102AE8008F7D88B9F894FFCF85B18F7D85B988B17E
:102AF8008F7D88B9F894FFCF85B18F7D85B988B16E
:102B08008F7D88B9F894FFCF813069F018F0823052
:102B180021F006C080E090E008C081E090E005C0A8
:102B280081E091E002C080E091E0992321F095B125
:102B3800906195B903C095B19F7E95B9882321F01E
:102B480088B1806188B903C088B18F7E88B982E373
:102B580090E00197F1F7C4C080910001882309F43F
:102B6800ABC088B1816088B987EA91E60197F1F72F
:102B780000C0000080910001882309F495C088B145
:102B8800816088B987EA91E60197F1F700C00000F3
:102B980080910001882309F47FC088B1816088B9D9
:102BA80087EA91E60197F1F700C0000080910001E3
:102BB800882309F469C088B1816088B987EA91E6F9
:102BC8000197F1F700C0000080910001882309F403
:102BD80053C088B1816088B987EA91E60197F1F717
:102BE80000C0000080910001882309F43DC088B12D
:102BF800816088B987EA91E60197F1F700C0000083
:102C080080910001882341F188B1816088B987EA01
:102C180091E60197F1F700C0000080910001882338
:102C280099F088B1816088B987EA91E60197F1F750
:102C380000C000000E947B1685B18F7D85B988B1E0
:102C48008F7D88B9F894FFCF85B18F7D85B988B11C
:102C58008F7D88B9F894FFCF85B18F7D85B988B10C
:102C68008F7D88B9F894FFCF85B18F7D85B988B1FC
:102C78008F7D88B9F894FFCF85B18F7D85B988B1EC
:102C88008F7D88B9F894FFCF85B18F7D85B988B1DC
:102C98008F7D88B9F894FFCF85B18F7D85B988B1CC
:102CA8008F7D88B9F894FFCF85B18F7D85B988B1BC
:102CB8008F7D88B9F894FFCF85B1886085B988B1D0
:102CC800886088B98CE291E0FC013197F1F725B171
:102CD800277F25B928B1277F28B90197F1F7BA01CD
:0E2CE800AB0141505109672B09F036CF08951A
:102CF60080910001882309F43DC088B1816088B9BC
:102D060087EA91E60197F1F700C000008091000183
:102D1600882341F188B1816088B987EA91E60197F5
:102D2600F1F700C0000080910001882399F088B176
:102D3600816088B987EA91E60197F1F700C0000043
:102D46000E947B1685B18F7D85B988B18F7D88B944
:102D5600F894FFCF85B18F7D85B988B18F7D88B90D
:102D6600F894FFCF85B18F7D85B988B18F7D88B9FD
:062D7600F894FFCF089560
:102D7C001F920F920FB60F9211248F9381E08093C4
:0E2D8C0000018F910F900FBE0F901F901895B1
:102D9A001F920F920FB60F9211248F9381E08093A6
:0E2DAA0000018F910F900FBE0F901F90189593
:102DB800EC010E94EC160E94EB16CE010E94ED1663
:062DC800CE010E94E91695
:042DCE000C94000061
:042DD2000E945F00FC
:022DD60008955E
:022DD80008955C
:022DDA0008955A
:00000001FF
