:100000000C9437000C943E010C943E010C943E017C
:100010000C943E010C943E010C943E010C943E0164
:100020000C943E010C943E010C943E010C943E0154
:100030000C943E010C943E010C943E010C943E0144
:100040000C943E010C943E010C943E010C943E0134
:100050000C943E010C943E010C943E010C943E0124
:100060000C943E010C943E01010001028000112419
:100070001FBECFEFD8E0DEBFCDBFE8E6F0E040E046
:1000800017C0B591A59135912591059107FD0CC03B
:1000900095918591EF01F92FE82F05900D92A21708
:1000A000B307D9F7FE0104C01D92A217B307E1F709
:1000B000ED36F40731F70E94DC000C943301F8941C
:0200C000FFCF70
:1000C200CF92DF92EF92FF920F931F93CF93DF9322
:1000D2008C016A017B0160C086E0C816D104E1048C
:1000E200F10410F4E60102C0C5E0D0E0CE010E94A6
:1000F2002501CC1ADD0AE108F10893B121E0392F7C
:10010200327091FD20E081E089278170281709F47F
:100112003FC08091000190910101C80FD91FD09377
:100122000101C0930001C837D105B0F1109201015D
:100132001092000131111FC0F80180819181A281CA
:10014200B3814697A105B10560F080819181A281BA
:10015200B3814497A109B10980839183A283B383B8
:100162001BC081E090E0A0E0B0E0F80180839183C1
:10017200A283B38311C0F80180819181A281B381EE
:100182004496A11DB11D80839183A283B38304C0D1
:100192001092010110920001C114D104E104F10492
:1001A20009F09ACFDF91CF911F910F91FF90EF90BD
:0601B200DF90CF900895DC
:1001B800CF93DF9300D000D0CDB7DEB784EF91E0C6
:1001C800A0E0B0E089839A83AB83BC838FEF8AB9C0
:1001D8001BB884B18C7F84B985B1836085B907E089
:1001E800F12C10E0F1100FC0112349F01F3F41F02E
:1001F800812F90E0880F991F182F116001C011E01E
:100208001F3FA9F40EC081E090E0002E02C0880FC5
:10021800991F0A94E2F780951823101634F40150B8
:1002280006C007E0FF24F39402C0F12C10E01BB9CC
:1002380049815A816B817C81CE0101960E946100BF
:02024800D1CF14
:10024A0007C08FEC97E00197F1F700C00000C901E1
:0C025A009C0121503109892BA1F7089567
:10026600EC010E9443010E944201CE010E9444011A
:06027600CE010E944001D0
:04027C000C940000DE
:040280000E945F0079
:020284000895DB
:020286000895D9
:020288000895D7
:00000001FF
