:100000000C9437000C94A0040C94A0040C94A0044D
:100010000C94A0040C94A0040C94A0040C94A004D0
:100020000C94A0040C94A0040C94A0040C94A004C0
:100030000C94A0040C94A0040C94A0040C94A004B0
:100040000C94A0040C94A0040C94B0020C94A00492
:100050000C94A0040C94A0040C94A0040C94A00490
:100060000C94A0040C94A0040100012A8000112427
:100070001FBECFEFD8E0DEBFCDBFE8E6F0E040E046
:1000800017C0B591A59135912591059107FD0CC03B
:1000900095918591EF01F92FE82F05900D92A21708
:1000A000B307D9F7FE0104C01D92A217B307E1F709
:1000B000ED36F40731F70E9464010C945A04F89469
:0200C000FFCF70
:1000C200494420726563696269646F3A20000D0ACF
:1000D2000041636365736F205045524D4954494452
:1000E2004F0D0A0041636365736F205065726D693D
:1000F2007469646F0041636365736F2044454E45C4
:100102004741444F0D0A0041636365736F204465A4
:100112006E656761646F0041636572717565207415
:1001220061726A657461004D4F444F20424F5252D2
:1001320041444F3A20494420456C696D696E6164BF
:100142006F2E0D0A005461726A65746120426F72EB
:100152007261646100004D4F444F20414354554148
:100162004C495A41523A2041636572717565206E5D
:1001720075657661207461726A6574610D0A004169
:10018200636572717565206E756576610074617262
:100192006A657461004E7565766F20494420726508
:1001A200676973747261646F3A200053697374658E
:1001B2006D61205246494420496E69636961646FEA
:0E01C2000D0A004269656E76656E69646F0015
:1001D000CF92DF92EF9262EC70E080E00E94D50354
:1001E00084E191E06C0120E8E22E8E2DB6010E94A0
:1001F000D50360ED70E080E00E94D50320E031E09F
:1002000040E8F901849147FD8081882331F18E2DEA
:10021000B6010E946A03892B01F563ED70E080E06E
:100220000E94D5030E946F0460E080E00E94790480
:1002300066EE70E080E00E94BF038BB180688BB9EE
:100240008FEF97EA21E6815090402040E1F700C00F
:1002500000008BB18F778BB91FC067EF70E080E033
:100260000E94D5030E946F0460E080E00E94790440
:1002700069E071E080E00E94BF038BB180648BB9BC
:100280008FEF97EA21E6815090402040E1F700C0CF
:1002900000008BB18F7B8BB98FEF99E628E18150FD
:1002A00090402040E1F700C000000E946F0460E031
:1002B00080E00E94790469E171E080E00E94BF0360
:0802C000EF90DF90CF9008954C
:1002C8008AB180648AB98AB180688AB98AB18F7E16
:1002D8008AB98AB18F7D8AB98BB180618BB98BB1AC
:1002E80080628BB987E690E00E944F040E941B024F
:1002F80078940E9443046DEA71E080E00E94D5037F
:100308000E946F0460E080E00E94790465EC71E06F
:1003180080E00E94BF0361E080E00E94790469E107
:1003280071E080E00E94BF0380912801882321F0BA
:100338000E94E800109228014C990FC02FEF80E727
:1003480092E0215080409040E1F700C000004C99B5
:1003580004C00E94E7024C9BFECF4D99E5CF2FEFDA
:1003680080E792E0215080409040E1F700C0000013
:0E0378004D99DACF0E94C3014D9BFECFD5CF29
:10038600CF92DF92EF9268E571E080E00E94D5039C
:100396000E946F0460E080E00E94790461E871E0E9
:1003A60080E00E94BF0361E080E00E9479046FE86C
:1003B60071E080E00E94BF0310922801809128011D
:1003C6008823E1F384E191E06C0120E8E22E8E2D92
:1003D600B6010E941A036E2DA60180E091E00E94EC
:1003E600270467E971E080E00E94D50360E071E0D0
:1003F60080E80E94D50360ED70E080E00E94D5039E
:100406008FEF97EA21E6815090402040E1F700C047
:1004160000000E946F0460E080E00E94790469E1B8
:1004260071E080E00E94BF03EF90DF90CF900895C7
:100436000E9491042FEF80E792E021508040904087
:10044600E1F700C0000083E00E94EB038FE19EE429
:100456000197F1F700C0000083E00E94EB038FE8EC
:1004660091E00197F1F700C0000083E00E94EB03E2
:100476008FE39FE10197F1F700C0000082E00E9440
:10048600EB038FE39FE10197F1F700C0000088E2DC
:100496000E94EB038FE99FE00197F1F700C000008F
:1004A6008CE00E94EB038FE99FE00197F1F700C013
:1004B600000086E00E94EB038FE99FE00197F1F7C9
:1004C60000C000000E946F048FE39FE10197F1F7DF
:0604D60000C000000895C3
:1004DC000F931F93CF93DF93982F907F20E1829FF0
:1004EC00E001112411E0611101C010E0D92FD12BD2
:1004FC000D2F0860802F0E9465048D2F8C600E9448
:10050C00650485E08A95F1F70000802F0E94650450
:10051C0087EC90E00197F1F700C00000C12BDC2FB5
:10052C00D8608D2F0E9465048C2F8C600E9465040E
:10053C0095E09A95F1F700008D2F0E94650487ECE9
:10054C0090E00197F1F700C00000DF91CF911F916F
:04055C000F9108955E
:100560001F920F920FB60F9211248F939F93EF93C8
:10057000FF938091C6008D3031F08A3021F0909148
:100580002901933180F080912901882349F0E0917D
:100590002901F0E0EC5EFE4F108281E0809328019B
:1005A000109229010BC0E0912901F0E0EC5EFE4FB2
:1005B0008083809129018F5F80932901FF91EF91C2
:0E05C0009F918F910F900FBE0F901F90189576
:1005CE0069E271E080E00E94D5030E946F0460E052
:1005DE0080E00E94790467E471E080E00E94BF032E
:1005EE0067E571E080E00E941A0321E030E047E504
:1005FE0051E060E080E091E00E94A6032FEF8DE3D2
:10060E0099E4215080409040E1F700C000000E9424
:10061E006F0460E080E00E94790469E171E080E09F
:06062E000E94BF030895C5
:100634000F931F93CF93DF93CDB7DEB764970FB6B5
:10064400F894DEBF0FBECDBFAB01682F23E130E0CD
:100654008E010F5F1F4FC8010E9444031C8AB8011A
:1006640080E824E130E040E050E00E948B0364968F
:100674000FB6F894DEBF0FBECDBFDF91CF911F91AF
:040684000F91089535
:10068800CF92DF92EF926A01E62EAC012115310577
:10069800C9F0215031094F5F5F4FF6016491E7FCC3
:1006A8006081FA01319760837FEFC71AD70AE70A9A
:1006B8006111ECCFFA01240F351F2E173F0711F0F7
:0C06C8001192FBCFEF90DF90CF900895CF
:1006D400CF92DF92EF926B01E82EF6018491E7FC52
:1006E4008081F901549147FD508185130BC0882303
:1006F40041F08FEFC81AD80AE80A2F5F3F4F4F4FD7
:10070400ECCF582F90E0851B9109EF90DF90CF90AC
:02071400089546
:10071600CF92DF92EF926B01E82ECA01422F732F20
:100726000BC0F6015E2D0E949704262F0E94360408
:100736003FEFC31AD30AE30A4150704090F7EF9097
:06074600DF90CF90089542
:10074C00CF92DF92EF926A01E62EDC01280F391F5F
:10075C00A217B30751F0F6014491E7FC40814D9389
:10076C004FEFC41AD40AE40AF3CFEF90DF90CF9086
:02077C000895DE
:10077E00CF92DF92EF926B01E82E06C09FEFC91A5F
:10078E00D90AE90A0E940004F6018491E7FC8081EF
:0C079E008111F4CFEF90DF90CF90089510
:1007AA00CF92DF92EF926B01E82E06C09FEFC91A33
:1007BA00D90AE90A0E948A04F6018491E7FC808139
:0C07CA008111F4CFEF90DF90CF900895E4
:1007D600CF93C82F0E94820480E40E94650460E0E3
:1007E6008C2F0E946E020E949C0487EC90E0019779
:0A07F600F1F700C00000CF91089554
:10080000CF93C82F0E94820480E40E94650461E0B7
:100810008C2F0E946E020E949C0487EC90E001974E
:0A082000F1F700C00000CF91089529
:10082A00BA01A901DC01CB01FC01F999FECF06C08E
:10083A00F2BDE1BDF89A319600B40D924150504094
:04084A00B8F708955E
:10084E009A01462FDC01F901549147FD50815D93C9
:0C085E002F5F3F4F4F4F5111F6CF089510
:10086A00262FF999FECF1FBA92BD81BD20BD0FB6C2
:0C087A00F894FA9AF99A0FBE01960895BE
:1008860024E130E040E050E060E080E091E00E944A
:080896001504109213010895EE
:10089E009093C5008093C40088E98093C10086E0E0
:0608AE008093C2000895D2
:1008B400EC010E94A5040E94A404CE010E94A60497
:0608C400CE010E94A20417
:1008CA008093BB0084E88093BC008091BC0088239D
:0408DA00E4F70895A2
:1008DE0081E00E94EB038FE19EE40197F1F700C0E7
:0408EE000000089569
:1008F200611102C090E801C090EC890F0E94EB03E5
:02090200089556
:1009040084EA8093BC008091BC008823E4F70895B6
:0E0914009091C00095FFFCCF8093C60008951F
:0C0922001092B90088E48093B80008959A
:0A092E0057FD608157FF64910895A2
:0809380084E98093BC000895DE
:040940000C94000013
:040944000E945F00AE
:02094800089510
:02094A0008950E
:02094C0008950C
:00000001FF
