:100000000C9438000C94B5010C94B5010C94B50116
:100010000C94B5010C94B5010C94B5010C94B50188
:100020000C94B5010C94B5010C94B5010C94B50178
:100030000C94B5010C94B5010C94B5010C94B50168
:100040000C94B5010C94B5010C94B5010C94B50158
:100050000C94B5010C94B5010C94B5010C94B50148
:100060000C94B5010C94B501010001100003780057
:1000700011241FBECFEFD8E0DEBFCDBFE8E6F0E031
:1000800040E017C0B591A59135912591059107FDE7
:100090000CC095918591EF01F92FE82F05900D92F5
:1000A000A217B307D9F7FE0104C01D92A217B30728
:1000B000E1F7EF36F40731F70E9498010C947A01CA
:0400C000F894FFCFE2
:1000C40040E063C0642F70E081E090E0042E02C041
:1000D400880F991F0A94E2F78095982F9F708BB12F
:1000E400807F892B8BB92AE12A95F1F700C093B15F
:1000F40090959F7009F044C047C0E82FF0E0292F85
:1001040030E0082E02C0359527950A94E2F720FFC7
:1001140035C03FE758E321E0315050402040E1F73B
:1001240000C0000023B130E020953095082E02C0B5
:10013400359527950A94E2F720FF20C006C08FE189
:100144009EE40197F1F700C0000083B190E0809530
:1001540090950E2E02C0959587950A94E2F780FD3E
:10016400EECF8BB18F608BB9660F771F660F771F49
:1001740060507F4FE60FF71F808108958F5F01C0A5
:1001840080E0843008F4B9CF4F5F443008F49ACF4C
:0A0194008BB18F608BB980E00895F5
:10019E002FEF80E792E0215080409040E1F700C0C1
:1001AE0000000E94A1018EE40E9485018CE30E9452
:1001BE00850125E02A95F1F7000088E30E9485016C
:1001CE008FE19EE40197F1F700C000008CE30E94DE
:1001DE00850195E09A95F1F7000088E30E9485016C
:1001EE008FE891E00197F1F700C000008CE30E94C8
:1001FE00850195E09A95F1F7000088E30E9485014C
:10020E008FE891E00197F1F700C000008CE20E94A8
:10021E00850195E09A95F1F7000088E20E9485012C
:10022E008FE891E00197F1F700C000000E94B10144
:10023E0060E088E20E94360160E08CE00E943601A8
:10024E0060E086E00E94360160E081E00E943601A7
:0E025E008FE39FE10197F1F700C000000895C3
:10026C001F93CF93DF9300D000D0CDB7DEB7282FEC
:10027C00207F30E1839FC0011124922F962B292FD0
:10028C002C60298398609A83862B982F9C609B8383
:10029C0088608C830E94A1018EE40E94850110E08D
:1002AC000AC0E1E0F0E0EC0FFD1FE10FF11D8081D1
:1002BC000E9485011F5F1430A0F30E94B1010F90C2
:0E02CC000F900F900F90DF91CF911F9108952A
:1002DA008AB18F608AB98BB18F608BB984B1807F04
:0A02EA0084B985B18F6085B90895CD
:1002F400EC010E94BA010E94B901CE010E94BB0127
:06030400CE010E94B701CA
:10030A008093BB0084E88093BC008091BC00882362
:04031A00E4F7089567
:10031E001092B90088E48093B80084E08093BC000A
:02032E00089530
:100330000E946D010E948F010E94CF000E94A901BE
:02034000FDCFEF
:1003420084EA8093BC008091BC008823E4F708957E
:100352000E9462008823E1F361E00E943601089561
:0803620084E98093BC000895BA
:04036A000C940000EF
:04036E000E94600089
:020372000895EC
:020374000895EA
:020376000895E8
:100378003132334134353642373839432A30234411
:00000001FF
