:100000000C9437000C948B030C948B030C948B038F
:100010000C948B030C948B030C948B030C948B0328
:100020000C948B030C948B030C948B030C948B0318
:100030000C948B030C948B030C948B030C948B0308
:100040000C948B030C948B030C948B030C948B03F8
:100050000C948B030C948B030C948B030C948B03E8
:100060000C948B030C948B0301000102800011247B
:100070001FBECFEFD8E0DEBFCDBFE8E6F0E040E046
:1000800017C0B591A59135912591059107FD0CC03B
:1000900095918591EF01F92FE82F05900D92A21708
:1000A000B307D9F7FE0104C01D92A217B307E1F709
:1000B000ED36F40731F70E9429020C946903F89495
:0200C000FFCF70
:1000C20052616E676F3A20302D0052616E676F3A4F
:1000D200200052616E676F3A203E3D200054656DEC
:1000E20070657261747572613A2000B043207C20A1
:1000F20056656E74696C61646F723A2000415041BA
:100102004741444F0042414A4F004D4544494F0048
:10011200414C544F00207C2043616C6566616374DE
:100122006F723A2000454E43454E4449444F0020E9
:100132007C20000D0A0043616C65666163746F7216
:1001420020454E43454E4449444F0D0A0043616CDD
:1001520065666163746F72204150414741444F0D9F
:100162000A00436F6D616E646F733A20453D4361CF
:100172006C65666163746F7220454E43454E444917
:10018200444F2C20413D43616C65666163746F721C
:10019200204150414741444F0D0A00536973746531
:1001A2006D6120646520636F6E74726F6C2064658C
:1001B2002074656D706572617475726120696E6913
:1001C200636961646F2E0D0A00436F6D616E646F27
:1001D200733A202745272043616C65666163746F1B
:1001E2007220454E43454E4449444F2C2027412717
:1001F2002043616C65666163746F722041504147B0
:0702020041444F2E0D0A00DC
:10020A00EF92FF921F93CF93DF93EC01162F7A019F
:10021A006FED70E080E00E94E7029E01ADECBCEC5D
:10022A000E944D03AC0156954795569547955695AC
:10023A0047959A01220F331FCA01880F991F880F09
:10024A00991F880F991F820F931FC81BD90BCA01C8
:10025A000E947F018EE20E947D03CE010E947F01EF
:10026A006DEE70E080E00E94E702113061F028F044
:10027A00123079F0133099F017C06FEF70E080E018
:10028A000E94E70211C067E071E080E00E94E70285
:10029A000BC06CE071E080E00E94E70205C062E1F9
:1002AA0071E080E00E94E70267E171E080E00E946D
:1002BA00E70288B5882331F067E271E080E00E94A6
:1002CA00E70205C06FEF70E080E00E94E70261E399
:1002DA0071E080E00E94E702C7010E94D70165E34E
:1002EA0071E080E00E94E702DF91CF911F91FF90B9
:0402FA00EF900895E4
:1002FE001F93CF93DF9300D000D000D0CDB7DEB7E1
:10030E00AC01892B91F580E30E947D033FC09A01D9
:10031E00ADECBCEC0E944D0396958795969587950E
:10032E00969587959C01220F331F880F991F880F72
:10033E00991F880F991F820F931F9A01281B390B43
:10034E00C901E1E0F0E0EC0FFD1FE10FF11D805D52
:10035E0080839A010E944D03AC01569547955695A0
:10036E004795569547951F5F01C010E04115510501
:10037E0071F60AC01150E1E0F0E0EC0FFD1FE10F45
:10038E00F11D80810E947D031111F4CF26960FB6C8
:10039E00F894DEBF0FBECDBFDF91CF911F910895B0
:1003AE008731910550F462EC70E080E00E94E70224
:1003BE0086E190E00E947F0108958F31910588F4C7
:1003CE006CEC70E080E00E94E70287E190E00E9412
:1003DE007F018DE20E947D038EE190E00E947F01FD
:1003EE0008958932910588F46CEC70E080E00E94EB
:1003FE00E7028FE190E00E947F018DE20E947D0373
:10040E0088E290E00E947F010895C39788F46CEC17
:10041E0070E080E00E94E70289E290E00E947F0196
:10042E008DE20E947D0382E390E00E947F01089599
:10043E0064ED70E080E00E94E70283E390E00E94AA
:04044E007F0108958D
:1004520060E875E280E090E00E9413030E9484034A
:100462000E9474030E94FD026DE971E080E00E9427
:10047200E7026BEC71E080E00E94E7020E949702C3
:100482000E945C03EC010E943D038C01CE010E949C
:10049200680290910101913021F49091000198BD80
:1004A20007C0C731D10518F49AEF98BD01C018BC36
:1004B200AE01682FC8010E9405012FEF83ED90E382
:0E04C200215080409040E1F700C00000D7CFED
:1004D0008731910530F410928B0010928A0080E0F1
:1004E00008958F31910530F410928B0010928A009C
:1004F00080E008958932910540F485E590E090937D
:100500008B0080938A0081E00895C39740F48AEAC3
:1005100090E090938B0080938A0082E008958FEFA3
:0E05200090E090938B0080938A0083E0089512
:10052E0028C08091C600853479F481E08093010162
:10053E008AEF809300018091000188BD68E371E02D
:10054E0080E00E94E70215C0813471F481E080934F
:10055E000101109200018091000188BD6FE471E0ED
:10056E0080E00E94E70205C064E671E080E00E9430
:0C057E00E7028091C0008823A4F20895D9
:10058A00A1E21A2EAA1BBB1BFD010DC0AA1FBB1F8D
:10059A00EE1FFF1FA217B307E407F50720F0A21BFF
:1005AA00B30BE40BF50B661F771F881F991F1A946C
:1005BA0069F760957095809590959B01AC01BD0196
:0405CA00CF010895C0
:1005CE00CF92DF92EF926B01E82E06C09FEFC91A11
:1005DE00D90AE90A0E947D03F6018491E7FC808125
:0C05EE008111F4CFEF90DF90CF900895C2
:1005FA0084B1846084B9A0E8B0E081E08C93E1E83A
:10060A00F0E088E080838C9180628C9380818360A3
:0C061A00808310928B0010928A000895DB
:100626009B01AC0160E472E48FE090E00E94C50299
:10063600215031093093C5002093C40088E180938E
:0A064600C10086E08093C200089511
:10065000ECE7F0E09081907F8F70892B8083EAE750
:10066000F0E080818064808380917A0086FDFCCFF9
:0A06700080917800909179000895C0
:10067A0080E00E9428039C01A8EEB1E00E944D038D
:10068A0024E630E040E050E00E94C502C901089526
:10069A00A29FB001B39FC001A39F700D811D1124B9
:0E06AA00911DB29F700D811D1124911D0895A8
:1006B80080E00E9428039C01ADE7B0E00E944D0352
:0A06C800BB27A92F982F872F089554
:1006D200EC010E9490030E948F03CE010E949103BD
:0606E200CE010E948D0311
:1006E8008AB180628AB983E284BD83E085BD18BC83
:0206F800089563
:0E06FA009091C00095FFFCCF8093C60008953C
:0E07080080E480937C0087E880937A00089557
:040716000C9400003F
:04071A000E945F00DA
:02071E0008953C
:0207200008953A
:02072200089538
:00000001FF
