:100000000C9434000C94C0010C94C0010C94C001F9
:100010000C94C0010C94C0010C94C0010C94C0015C
:100020000C94C0010C94C0010C94C0010C94C0014C
:100030000C94C0010C94C0010C94C0010C94C0013C
:100040000C94C0010C94C0010C94C0010C94C0012C
:100050000C94C0010C94C0010C94C0010C94C0011C
:100060000C94C0010C94C00111241FBECFEFD8E046
:10007000DEBFCDBF0E9445000C94A101F894FFCFD4
:0A0080000D264059738CA6BFD9F27B
:10008A0084B1816084B98AB18F778AB90E94AC0140
:10009A000E94B6010F2EFDE09F2EF02DA12CB12C4F
:1000AA0000E010E0C12CD12CEE24EA94FE2CC0E032
:1000BA00412C512C3201D0E012C00E9422018F3F04
:1000CA002FEF920729F0480E591E611C711CDF5F41
:1000DA008FE59AEE0197F1F700C00000CF5FC430B8
:1000EA0060F3DD2309F451C02D2F30E040E050E0E9
:1000FA00C301B2010E947F01DA01C90140E1A416DD
:10010A00B10420F0003941E0140780F02E153F05B4
:10011A0008F47C01C216D30608F46C012FEFA21A68
:10012A00B20A003941E0140778F419C0AC014F5FF4
:10013A005F4F4E155F0508F47C01A6014F5F5F4FC4
:10014A004217530758F00BC0A12CB12C00E010E065
:10015A00C12CD12CEE24EA94FE2C01C06C01EC14C3
:10016A00FD0420F067012FEFC21AD20AA601B701D7
:10017A000E94D40090E0A0E080589F4FAF4FFC014E
:10018A009490A7FD908097BC01C097BC0F5F1F4F4A
:0E019A008FE39CE90197F1F700C0000088CFC9
:1001A800CF92DF92EF92FF920F931F938F3F2FEF23
:1001B8009207D1F19B012F5F3F4F24173507B0F508
:1001C8008617970708F4CB014817590708F4CA019E
:1001D8009A01261B370B890120E030E0861B970B1C
:1001E800A0E0B0E0880F991FAA1FBB1F6C017D011A
:1001F800CC0CDD1CEE1CFF1CCC0CDD1CEE1CFF1C0B
:10020800BC01CD016C0D7D1D8E1D9F1DA90198019E
:100218002F5F3F4F4F4F5F4F0E947F012A3008F0FA
:1002280029E089E0821B03C080E001C080E01F91C3
:0C0238000F91FF90EF90DF90CF900895A1
:1002440085B18E7F85B98FE193E00197F1F700C006
:10025400000085B1816085B995E39A95F1F70000B6
:1002640085B18E7F85B920E23EE441E060E889E211
:1002740090E00E945801882399F010928500109212
:10028400840020E63AEE40E060E889E290E00E94D3
:100294005801882341F0809184009091850008954D
:0C02A4008FEF9FEF08958FEF9FEF0895FC
:1002B0000F931F93CF93DF93EC0100918400109173
:1002C000850009C0E0918400F0918500E01BF10BEE
:1002D0002E173F0770F098819623E1E0F0E011F4CB
:1002E000E0E0F0E0A42FB0E0EA17FB0759F781E067
:0E02F00001C080E0DF91CF911F910F91089522
:1002FE00A1E21A2EAA1BBB1BFD010DC0AA1FBB1F1C
:10030E00EE1FFF1FA217B307E407F50720F0A21B8D
:10031E00B30BE40BF50B661F771F881F991F1A94FA
:10032E0069F760957095809590959B01AC01BD0124
:04033E00CF0108954E
:10034200EC010E94C5010E94C401CE010E94C601B7
:06035200CE010E94C20171
:100358008AB180648AB983E884BD83E085BD8DE075
:0403680087BD0895B0
:10036C001092800082E080938100109285001092A0
:04037C00840008955C
:040380000C940000D9
:040384000E943E0095
:020388000895D6
:02038A000895D4
:02038C000895D2
:00000001FF
