:020000020000FC
:020000000EC030
:10001C001AC008E00EBF0FEF0DBF0FEF0AB900E0DA
:10002C000BB90EE10093B30002E00093B00002E0C4
:10003C0007BB02E00093700002E00093B100E6E61B
:10004C00F0E07894FFCF25912BB906E611E0E0178C
:10005C00F10710F0E6E6F0E01895FFFEFDFCFBFA68
:10006C00F9F8F7F6F5F4F3F2F1F0EFEEEDECEBEA6C
:10007C00E9E8E7E6E5E4E3E2E1E0DFDEDDDCDBDA5C
:10008C00D9D8D7D6D5D4D3D2D1D0CFCECDCCCBCA4C
:10009C00C9C8C7C6C5C4C3C2C1C0BFBEBDBCBBBA3C
:1000AC00B9B8B7B6B5B4B3B2B1B0AFAEADACABAA2C
:1000BC00A9A8A7A6A5A4A3A2A1A09F9E9D9C9B9A1C
:1000CC00999897969594939291908F8E8D8C8B8A0C
:1000DC00898887868584838281807F7E7D7C7B7AFC
:1000EC00797877767574737271706F6E6D6C6B6AEC
:1000FC00696867666564636261605F5E5D5C5B5ADC
:10010C00595857565554535251504F4E4D4C4B4ACB
:10011C00494847464544434241403F3E3D3C3B3ABB
:10012C00393837363534333231302F2E2D2C2B2AAB
:10013C00292827262524232221201F1E1D1C1B1A9B
:10014C00191817161514131211100F0E0D0C0B0A8B
:0A015C00090807060504030201006C
:00000001FF
