:100000000C9438000C948E010C948E010C948E018B
:100010000C948E010C948E010C948E010C948E0124
:100020000C948E010C948E010C948E010C948E0114
:100030000C948E010C948E010C948E010C948E0104
:100040000C948E010C948E010C948E010C948E01F4
:100050000C948E010C948E010C948E010C948E01E4
:100060000C948E010C948E010100012000032A00E3
:1000700011241FBECFEFD8E0DEBFCDBFE8E6F0E031
:1000800040E017C0B591A59135912591059107FDE7
:100090000CC095918591EF01F92FE82F05900D92F5
:1000A000A217B307D9F7FE0104C01D92A217B30728
:1000B000E1F7EF36F40731F70E946A000C94720101
:0400C000F894FFCFE2
:1000C4003132334134353642373839432A302344C8
:1000D4000E9456010E947D012FEF81EE94E0215091
:1000E40080409040E1F700C00000C0E0C12CD12C5A
:1000F40076010DC00E946401C80ED91EE11CF11CDA
:100104008FE99FE00197F1F700C00000CF5FC03492
:1001140088F3689415F8F694E794D794C7941694E2
:10012400D1F78601E12CBB24BA9488E00E94EA004E
:10013400EC01C816D90620F48C199D096C0102C083
:10014400C81AD90A94E0C916D10428F42FEFE2168C
:1001540019F0E39401C0E12CCE010E940F01F82EA6
:100164000C171D0720F4CE01801B910B03C0C8019E
:100174008C1B9D0B449710F4FF24FA9484E08E1595
:10018400C0F4FF209CF09FEFB91212C08F2D0F2CEA
:10019400000C990BAA0B8C539F4FAF4FFC01849119
:1001A400A7FD80810E948701BF2C03C0BF2C01C022
:1001B400BF2CFF202CF48FEFB81611F0BB24BA9497
:1001C4008FE097E20197F1F700C000006E01ADCF18
:1001D400CF92DF92EF92FF92CF93DF93D82FC0E0BC
:1001E400C12CD12C760107C00E946401C80ED91E0F
:1001F400E11CF11CCF5FCD17B8F32D2F30E040E0A8
:1002040050E0C701B6010E943401C901DF91CF91CA
:0A021400FF90EF90DF90CF90089567
:10021E00AC0190E06FEF7FEF8FEF18C0E92FF0E0A9
:10022E00EE0FFF1FE050FF4F20813181241735075D
:10023E0028F4FA01E21BF30B9F0102C0241B350BBD
:10024E002617370710F4892FB9019F5F903130F3CD
:0A025E006F31710508F08FEF08956D
:10026800A1E21A2EAA1BBB1BFD010DC0AA1FBB1FB2
:10027800EE1FFF1FA217B307E407F50720F0A21B24
:10028800B30BE40BF50B661F771F881F991F1A9491
:1002980069F760957095809590959B01AC01BD01BB
:0402A800CF010895E5
:1002AC001092C50083E38093C4001092C00088E0D4
:0C02BC008093C10086E08093C20008958A
:1002C800EAE7F0E080818064808380917A0086FD8F
:0C02D800FCCF809178009091790008958F
:1002E400EC010E9493010E949201CE010E949401AC
:0602F400CE010E94900102
:1002FA0080E480937C0087E880937A0081E0809391
:04030A007E000895D4
:0E030E009091C00095FFFCCF8093C60008952B
:04031C000C9400003D
:040320000E946000D7
:0203240008953A
:02032600089538
:02032800089536
:10032A000C0342039103CA034A036A03A003CE03E0
:10033A005E037803A603D0036C038203AA03D103E6
:00000001FF
