:100000000C943A000C948B020C948B020C948B028F
:100010000C948B020C948B020C948B020C948B022C
:100020000C948B020C948B020C948B020C948B021C
:100030000C948B020C948B020C948B020C948B020C
:100040000C948B020C948B020C948B020C948B02FC
:100050000C948B020C948B020C948B020C948B02EC
:100060000C948B020C948B02010001C18001C10130
:10007000C300052411241FBECFEFD8E0DEBFCDBFE3
:10008000E8E6F0E040E017C0B591A59135912591E3
:10009000059107FD0CC095918591EF01F92FE82F8F
:1000A00005900D92A217B307D9F7FE0104C01D9267
:1000B000A217B307E1F7E437F40731F70E946D00A8
:0800C0000C944702F894FFCFF5
:1000C80000FF00FF00000000FFFFFF00FF00FF80AF
:0200D800FF0027
:1000DA00CF93DF9300D000D000D0CDB7DEB70E9417
:1000EA0010020E947A022FEF81EE94E021508040A4
:1000FA009040E1F700C000000E94AD012FEF81EEB1
:10010A0094E0215080409040E1F700C000000E9436
:10011A002F028091C0011091C101B091C20190E0FB
:10012A009C01220F331F820F931F092E000CAA0B6A
:10013A0088539F4FAF4FFC015A2F0E9470029B01B8
:10014A00482F612F8B2F0E94D7010E94F80100E0EF
:10015A00AE014B5F5F4FBE016D5F7F4FCE010196CF
:10016A000E94ED00882351F00F5F023038F06B8156
:10017A007C8189819A810E94810100E00E942F027C
:10018A008091C0011091C101B091C20190E09C011F
:10019A00220F331F820F931F092E000CAA0B8853BC
:1001AA009F4FAF4FFC015A2F0E9470029B01482FAC
:1001BA00612F8B2F0E94D7010E94F8012FEF86E74B
:1001CA0091E0215080409040E1F700C00000C0CF8C
:1001DA008F929F92AF92BF92CF92DF92EF92FF924D
:1001EA000F931F93CF93DF935C017B018A010E94D7
:1001FA00830280ED0E942202883121F00E9452027D
:10020A0080E03BC08BE30E942202883221F00E94E8
:10021A00520280E032C00E94830281ED0E942202D3
:10022A000E945C02982E0E945C02882E0E945C0248
:10023A00D82F0E945C02C82E0E945C02C82F0E941E
:10024A006602D82E0E945202892D90E0982F8827A4
:10025A008829F501918380838D2F90E0982F882734
:10026A008C29F701918380838C2F90E0982F88271F
:10027A008D29F8019183808381E0DF91CF911F91CD
:10028A000F91FF90EF90DF90CF90BF90AF909F902B
:04029A008F900895A4
:10029E00F89490E02AC08823A4F425B1216025B9F2
:1002AE000000000000000000000000000000000040
:1002BE000000000025B12E7F25B9000000000000CF
:1002CE0012C025B1216025B900000000000025B143
:1002DE002E7F25B900000000000000000000000085
:1002EE00000000000000880F9F5F983008F4D3CF05
:0402FE007894089553
:100302003091C2012091C101919581959109613B82
:1003120044E0740714F03F5F04C060357B4F0CF477
:100322003150813B44E0940714F02F5F04C08035C4
:100332009B4F0CF4215033230CF430E038300CF096
:1003420037E022230CF420E028300CF027E0309331
:08035200C2012093C1010895CE
:10035A000E94830280ED0E9422028BE60E94220202
:10036A0080E00E9422020E9452022FEF81EE94E066
:10037A00215080409040E1F700C000000E948302B3
:10038A0080ED0E9422028CE10E94220288E00E94F3
:10039A0022020E9452028FE39CE90197F1F700C002
:0403AA0000000895B2
:1003AE001F93CF93DF938830C0F46830B0F4142FCE
:1003BE00C32FD22F0E943B029C01220F331F820FAC
:1003CE00931FFC01E050FF4FD083FC01EF5FFE4F07
:1003DE00C083FC01EE5FFE4F1083DF91CF911F9122
:0203EE00089570
:1003F000CF93DF93C0E0D0E007C0FE01E050FF4F95
:1004000080810E944F012196C03CD105B0F38FEE50
:1004100090E00197F1F700C00000DF91CF910895BF
:1004200084B1816084B985B18E7F85B980E090E028
:1004300005C0FC01E050FF4F10820196803C910501
:04044000C0F3089568
:100444008093BB0084E88093BC008091BC00882327
:0A045400E4F78091B900887F089555
:10045E0080E090E005C0FC01E050FF4F1082019655
:08046E00803C9105C0F30895E4
:1004760070E0660F771F660F771F660F771F9B0169
:08048600280F311DC901089582
:10048E00EC010E9490020E948F02CE010E94910206
:06049E00CE010E948D0258
:1004A40084E98093BC008FE891E00197F1F700C0E4
:0404B40000000895A7
:1004B80084EC8093BC008091BC008823E4F7809191
:0404C800BB000895D8
:1004CC0084E88093BC008091BC008823E4F7809181
:0404DC00BB000895C4
:1004E00057FD04C065917591859108956191719151
:0404F0008191089559
:1004F4001092B90088E48093B80084E08093BC0033
:02050400089558
:1005060084EA8093BC008091BC008823E4F70895B8
:040516000C94000041
:04051A000E946200D9
:02051E0008953E
:0205200008953C
:0205220008953A
:0105240003D3
:0105250003D2
:00000001FF
