:100000000C9434000C94DD000C94DD000C94DD00A5
:100010000C94DD000C94DD000C94DD000C94DD00EC
:100020000C94DD000C94DD000C94DD000C94DD00DC
:100030000C94DD000C94DD000C94DD000C94DD00CC
:100040000C94DD000C94DD000C94DD000C94DD00BC
:100050000C94DD000C94DD000C94DD000C94DD00AC
:100060000C94DD000C94DD0011241FBECFEFD8E00E
:10007000DEBFCDBF0E9440000C94A600F894FFCFD5
:100080000E9494000E94BB000E94B10083E00E9485
:100090007B00EC0184E00E947B00C81BD90BCE01E1
:1000A0000E964D9718F40E94D0001BC01C161D061A
:1000B0001CF40E94C90002C00E94C200CE01DD23D0
:1000C00024F4882799278C1B9D0B8639910510F401
:1000D00086E990E08B3A910510F08AEA90E00E9460
:1000E000D7002FEF80E792E0215080409040E1F769
:0600F00000C00000CBCFB0
:1000F600ECE7F0E09081907F8F70892B80838AE116
:100106008A95F1F700C0EAE7F0E080818064808399
:1001160080917A0086FDFCCF8091780090917900DD
:0201260008953A
:1001280080E480937C00EAE7F0E087E8808388E158
:1001380080937E0080818064808380917A0086FD30
:04014800FCCF08954B
:10014C00EC010E94E2000E94E100CE010E94E3005B
:06015C00CE010E94DF004D
:1001620084B1826084B981E8809380008AE08093C0
:04017200810008956B
:0E0176008AB18C608AB98BB1837F8BB90895F2
:0E0184008BB184608BB98BB1877F8BB90895E6
:0E0192008BB18B7F8BB98BB188608BB90895D0
:0E01A0008BB1837F8BB980E00E94D700089559
:0C01AE0090E090938900809388000895F1
:0401BA000C940000A1
:0401BE000E943E005D
:0201C20008959E
:0201C40008959C
:0201C60008959A
:00000001FF
