:100000000C9437000C9485020C9485020C948502A4
:100010000C9485020C9485020C9485020C94850244
:100020000C9485020C9485020C9485020C94850234
:100030000C9485020C9485020C9485020C94850224
:100040000C9485020C9485020C943C010C9485025E
:100050000C9485020C9485020C9485020C94850204
:100060000C9485020C948502010001C080001124CB
:100070001FBECFEFD8E0DEBFCDBFE8E6F0E040E046
:1000800017C0B591A59135912591059107FD0CC03B
:1000900095918591EF01F92FE82F05900D92A21708
:1000A000B307D9F7FE0104C01D92A217B307E1F709
:1000B000ED36F40731F70E94D2010C946C02F894EB
:0200C000FFCF70
:1000C2000D0A496E696369616E646F2070727565AD
:1000D200626120646520636F6C6F7265730D0A0044
:1000E200436F6C6F723A20524F4A4F0D0A00436FB2
:1000F2006C6F723A2056455244450D0A00436F6CAC
:100102006F723A20415A554C0D0A00507275656261
:100112006120646520636F6C6F72657320636F6D1D
:10012200706C65746164610D0A0D0A004573706537
:1001320072616E646F20636F6D616E646F730D0A1E
:10014200004552524F523A20436F6D616E646F20E8
:10015200696E76616C69646F0D0A00436F6D616E42
:10016200646F20646973706F6E69626C653A2043D4
:100172000D0A0053697374656D61206465204D61D9
:100182007472697A204C454420524742202D2056F1
:10019200657273696F6E20310D0A00436F6D616E77
:1001A200646F7320646973706F6E69626C65733A11
:1001B2000D0A00202043202D2050727565626120B7
:1001C200646520636F6C6F7265732028526F6A6F6B
:1001D2002C2056657264652C20417A756C290D0AB3
:1001E200004573706572616E646F20636F6D616E3E
:0801F200646F730D0A0D0A0091
:1001FA0062EC70E080E00E94F90162EE70E080E05B
:10020A000E94F9010E940F022FEF83ED90E3215023
:10021A0080409040E1F700C0000060EF70E080E0AD
:10022A000E94F9010E9424022FEF83ED90E32150EE
:10023A0080409040E1F700C000006FEF70E080E07E
:10024A000E94F9010E9439022FEF83ED90E32150B9
:10025A0080409040E1F700C000000E944E020E94D8
:0E026A00A9016DE071E080E00E94F9010895A5
:100278001F920F920FB60F9211242F933F934F9313
:100288005F936F937F938F939F93AF93BF93EF93F6
:10029800FF938091C600833411F0833641F40E94A5
:1002A800FD006EE271E080E00E94F9010AC063E49B
:1002B80071E080E00E94F9016DE571E080E00E9444
:1002C800F901FF91EF91BF91AF919F918F917F912C
:1002D8006F915F914F913F912F910F900FBE0F90AB
:0402E8001F901895B6
:1002EC0090E02DC08823ACF425B1216025B9000025
:1002FC0000000000000000000000000000000000F2
:10030C00000025B12E7F25B9000000000000000080
:10031C0014C025B1216025B90000000000000000C8
:10032C0025B12E7F25B90000000000000000000060
:10033C0000000000000000000000880F9F5F983054
:06034C0008F4D0CF089573
:100352000F931F93CF93DF93F89400E010E012C045
:10036200E801CC0FDD1FC00FD11FC050DF4F8881C5
:100372000E94760189810E9476018A810E9476011B
:100382000F5F1F4F0034110558F378948FEE90E001
:100392000197F1F700C00000DF91CF911F910F91FB
:0203A2000895BC
:1003A4000E947E020E94600278940E944E020E9483
:1003B400A90165E771E080E00E94F9016DE971E04F
:1003C40080E00E94F90165EB71E080E00E94F90190
:1003D40063EE71E080E00E94F9012FEF81EE94E07A
:0E03E400215080409040E1F700C00000F6CFAD
:1003F200CF92DF92EF926B01E82E06C09FEFC91AEF
:10040200D90AE90A0E947702F6018491E7FC808109
:0C0412008111F4CFEF90DF90CF9008959F
:10041E0080E090E00CC0FC01EE0FFF1FE80FF91F0B
:10042E00E050FF4F10822FEF21831282019680340D
:0A043E00910588F30E94A9010895BA
:1004480080E090E00CC0FC01EE0FFF1FE80FF91FE1
:10045800E050FF4F2FEF20831182128201968034E3
:0A046800910588F30E94A901089590
:1004720080E090E00CC0FC01EE0FFF1FE80FF91FB7
:10048200E050FF4F108211822FEF228301968034B9
:0A049200910588F30E94A901089566
:10049C0080E090E00BC0FC01EE0FFF1FE80FF91F8E
:1004AC00E050FF4F11821082128201968034910528
:0404BC0090F308951C
:1004C0001092C50087E68093C40088E98093C1003C
:0804D00086E08093C20008954C
:1004D800EC010E948A020E948902CE010E948B02CE
:0604E800CE010E94870214
:0E04EE009091C00095FFFCCF8093C60008954A
:0E04FC0084B1816084B985B18E7F85B9089581
:04050A000C9400004D
:04050E000E945F00E8
:0205120008954A
:02051400089548
:02051600089546
:00000001FF
