:100000000C9440000C9454160C9454160C945416F2
:100010000C9454160C9454160C9454160C945416B8
:100020000C9454160C9454160C9454160C945416A8
:100030000C9454160C9454160C9454160C94541698
:100040000C9454160C9454160C946A150C94541673
:100050000C9454160C9454160C9454160C94541678
:100060000C9454160C9454160100010880010801E8
:100070001D002CB6011D011E001D5B011E0121800B
:1000800011241FBECFEFD8E0DEBFCDBFE8E6F0E021
:1000900040E017C0B591A59135912591059107FDD7
:1000A0000CC095918591EF01F92FE82F05900D92E5
:1000B000A217B307D9F7FE0104C01D92A217B30718
:1000C000E1F7E038F40731F70E944E130C943A162A
:0400D000F894FFCFD2
:1000D400AF007B000800AF007B00080006017B0036
:1000E4000800AF007B000800AF007B000800AF00F1
:1000F4007B0008009C007B0008009C007B0008003B
:100104008B007B0008008B007B0008008B007B00C9
:1001140008008B007B00080083007B00080083003C
:100124007B00080083007B00080083007B0008003C
:10013400AF007B000800AF007B000800AF007B002D
:100144000800AF007B000800C4007B000800C40066
:100154007B000800C4007B000800C4007B0008008A
:10016400D0007B000800D0007B000800D0007B009A
:100174000800D0007B000800C4007B000800C40015
:100184007B000800C4007B000800C4007B0008005A
:100194008B007B0008008B007B000800E9007B00DB
:1001A40008008B007B0008008B007B0008008B009C
:1001B4007B000800E9007B0008008B007B0008003E
:1001C4008B007B0008008B007B000800AF007B00E5
:1001D40008008B007B0008008B007B0008008B006C
:1001E4007B000800D0007B0008008B007B00080027
:1001F4008300F70018028300F7000E008300F70065
:1002040091008300F7000E0083007B000800930038
:100214007B000800A5007B0008005D01F7000E00CC
:100224000601F7000E00D000F7000E00AF00F70043
:100234009100F7007B000800E900F7000E00E900D8
:100244007B000800D0007B000800A5007B000800AC
:10025400AF007B008A0006017B000800E9007B00F8
:100264000800D0007B000800E9007B0008000601BC
:100274007B000800A5007B000800AF007B0008009D
:10028400D0007B000800AF007B000800A5007B00C5
:1002940008005D017B008A0037017B00080006012D
:1002A4003D000400E9003D000400D0007B0008008C
:1002B400AF00F7001301C400F7001301D000F700EA
:1002C4001301E900F70013018300F7000E00750025
:1002D400F7000E00AF00F7000E008300F7000E00D9
:1002E400A500F7000E008B00F7000E0083007B00D2
:1002F400080083007B00080093007B000800A50031
:100304007B000800AF007B000800AF007B00080002
:1003140006017B000800AF007B000800AF007B00F3
:100324000800AF007B0008009C007B0008009C00D4
:100334007B0008008B007B0008008B007B0008001A
:100344008B007B0008008B007B00080083007B008F
:10035400080083007B00080083007B000800830002
:100364007B000800AF007B000800AF007B000800A2
:10037400AF007B000800AF007B000800C4007B00D6
:100384000800C4007B000800C4007B000800C4000F
:100394007B000800D0007B000800D0007B00080030
:1003A400D0007B000800D0007B000800C4007B0064
:1003B4000800C4007B000800C4007B000800C400DF
:1003C4007B0008008B007B0008008B007B0008008A
:1003D400E9007B0008008B007B0008008B007B0099
:1003E40008008B007B000800E9007B0008008B00FC
:1003F4007B0008008B007B0008008B007B0008005A
:10040400AF007B0008008B007B0008008B007B00A2
:1004140008008B007B000800D0007B0008008B00E4
:100424007B0008008300F70018028300F7000E0029
:100434008300F70091008300F7000E0083007B0027
:10044400080093007B000800A5007B0008005D0104
:10045400F7000E000601F7000E00D000F7000E00B2
:10046400AF00F7009100F7007B000800E900F700F7
:100474000E00E9007B000800D0007B000800A50006
:100484007B000800AF007B008A0006017B000800A7
:10049400E9007B000800D0007B000800E9007B0035
:1004A400080006017B000800A5007B000800AF00DF
:1004B4007B000800D0007B000800AF007B00080030
:1004C400A5007B0008005D017B008A0037017B00EA
:1004D400080006013D000400E9003D000400D000CE
:1004E4007B000800AF00F7001301C400F7001301FC
:1004F400D000F7001301E900F70013015700F700DB
:100504000E008300F7000E00AF00F7000E0083001A
:10051400F7000E00A500F7000E008B00F7000E0098
:1005240083007B0008008B007B00080083007B00B5
:1005340008008B007B00080057007B000800830044
:100544007B0008008B007B00080083007B00080010
:1005540057007B00080083007B000800AF007B008D
:10056400080083007B00080075007B000800AF00D2
:100574007B000800D0007B000800AF007B0008006F
:1005840075007B000800AF007B000800C4007B00FE
:100594000800AF007B0008008B007B000800AF0060
:1005A4007B000800D0007B000800AF007B0008003F
:1005B4008B007B000800AF007B000800C4007B00B8
:1005C4000800AF007B00080083007B000800AF0038
:1005D4007B000800D0007B000800AF007B0008000F
:1005E40083007B000800AF007B000800C4007B0090
:1005F4000800AF007B00080057007B000800830060
:100604007B0008008B007B00080083007B0008004F
:1006140057007B00080083007B000800AF007B00CC
:10062400080083007B00080075007B000800AF0011
:100634007B000800D0007B000800AF007B000800AE
:1006440075007B000800AF007B000800C4007B003D
:100654000800AF007B0008008B007B000800AF009F
:100664007B000800D0007B000800AF007B0008007E
:100674008B007B000800AF007B000800C4007B00F7
:100684000800AF007B00080083007B000800AF0077
:100694007B000800D0007B000800AF007B0008004E
:1006A40083007B000800AF007B000800C4007B00CF
:1006B4000800AF007B00080057007B00080083009F
:1006C4007B0008008B007B00080083007B0008008F
:1006D40057007B00080083007B000800AF007B000C
:1006E400080083007B0008005C007B0008008B008E
:1006F4007B00080093007B0008008B007B0008004F
:100704005C007B0008008B007B00080093007B00EA
:1007140008008B007B0008008B007B000800AF0002
:100724007B000800D0007B000800AF007B000800BD
:1007340083007B000800A5007B000800B9007B0053
:100744000800A5007B0008008B007B000800D00097
:100754007B00080083007B000800C4007B000800C5
:10076400AF00EF011B0057007B00080083007B00F3
:1007740008008B007B00080083007B000800570002
:100784007B00080083007B000800AF007B000800AA
:1007940083007B00080075007B000800AF007B002D
:1007A4000800D0007B000800AF007B000800750043
:1007B4007B000800AF007B000800C4007B00080039
:1007C400AF007B0008008B007B000800AF007B00BB
:1007D4000800D0007B000800AF007B0008008B00FD
:1007E4007B000800AF007B000800C4007B00080009
:1007F400AF007B00080083007B000800AF007B0093
:100804000800D0007B000800AF007B0008008300D4
:100814007B000800AF007B000800C4007B000800D8
:10082400AF007B00080057007B00080083007B00BA
:1008340008008B007B00080083007B000800570041
:100844007B00080083007B000800AF007B000800E9
:1008540083007B00080075007B000800AF007B006C
:100864000800D0007B000800AF007B000800750082
:100874007B000800AF007B000800C4007B00080078
:10088400AF007B0008008B007B000800AF007B00FA
:100894000800D0007B000800AF007B0008008B003C
:1008A4007B000800AF007B000800C4007B00080048
:1008B400AF007B00080083007B000800AF007B00D2
:1008C4000800D0007B000800AF007B000800830014
:1008D4007B000800AF007B000800C4007B00080018
:1008E400AF007B000800AF007B00080083007B00A2
:1008F40008008B007B00080083007B000800570081
:100904007B00080083007B000800AF007B00080028
:1009140083007B0008005C007B0008008B007B00E8
:10092400080093007B0008008B007B0008005C003B
:100934007B0008008B007B00080093007B0008000C
:100944008B007B0008008B007B000800AF007B005D
:100954000800D0007B000800AF007B000800830083
:100964007B000800A5007B000800B9007B0008009C
:10097400A5007B0008008B007B000800D0007B00F2
:10098400080083007B000800C4007B000800AF005F
:10099400EF011B0015017B0008009F017B0008008C
:1009A400D2017B0008009F017B00080015017B0039
:1009B40008009F017B000800D2017B0008009F0112
:1009C4007B00080015017B0008009F017B000800E4
:1009D400D2017B0008009F017B00080015017B0009
:1009E40008009F017B000800D2017B0008009F01E2
:1009F4007B0008005D017B0008000B027B000800FF
:100A04002A027B0008000B027B0008005D017B00CA
:100A140008000B027B0008002A027B0008000B027E
:100A24007B0008005D017B0008000B027B000800CE
:100A34002A027B0008000B027B0008005D017B009A
:100A440008000B027B0008002A027B0008000B024E
:100A54007B00080015017B0008009F017B00080053
:100A6400D2017B0008009F017B00080015017B0078
:100A740008009F017B000800D2017B0008009F0151
:100A84007B00080015017B0008009F017B00080023
:100A9400D2017B0008009F017B00080015017B0048
:100AA40008009F017B000800D2017B0008009F0121
:100AB4007B0008005D017B0008000B027B0008003E
:100AC4002A027B0008000B027B0008005D017B000A
:100AD40008000B027B0008002A027B0008000B02BE
:100AE4007B0008005D017B0008000B027B0008000E
:100AF4002A027B0008000B027B0008005D017B00DA
:100B040008000B027B0008002A027B0008000B028D
:100B14007B00080045007B00080068007B0008009B
:100B240075007B00080068007B00080045007B001E
:100B3400080068007B00080075007B00080068005E
:100B44007B00080045007B00080068007B0008006B
:100B540075007B00080068007B00080045007B00EE
:100B6400080068007B00080075007B00080068002E
:100B74007B00080057007B00080083007B0008000E
:100B84008B007B00080083007B00080057007B007B
:100B9400080083007B0008008B007B0008008300B2
:100BA4007B00080057007B00080083007B000800DE
:100BB4008B007B00080083007B00080057007B004B
:100BC400080083007B0008008B007B000800830082
:100BD4007B00080045007B00080068007B000800DB
:100BE40075007B00080068007B00080045007B005E
:100BF400080068007B00080075007B00080068009E
:100C04007B00080045007B00080068007B000800AA
:100C140075007B00080068007B00080045007B002D
:100C2400080068007B00080075007B00080068006D
:100C34007B00080057007B00080083007B0008004D
:100C44008B007B00080083007B00080057007B00BA
:100C5400080083007B0008008B007B0008008300F1
:100C64007B00080057007B00080083007B0008001D
:100C74008B007B00080083007B00080057007B008A
:100C8400080083007B0008008B007B0008008300C1
:100C94007B0008008300F7000E008300F7000E00BD
:100CA400A5007B0008008300F7000E0075007B00A0
:100CB4000800830073011500A5003D000400AF0087
:100CC4003D000400C400EF011B005700F7001D03A2
:100CD4007500F7001D038B00F7001D038300F70068
:100CE40013018300F7000E005200F7000E005700B6
:100CF400F7001D037500F7001D038B00F7001301B7
:100D04008300F70013018300F7000E005200F70080
:080D14000E005700CE0500009F
:100D1C00BA02F7000E000B02F7000E009F01F7005D
:100D2C000E005D01F7009100EE017B000800D2017E
:100D3C00F7000E00D2017B0008009F017B00080029
:100D4C004A017B0008005D017B008A000B027B00DE
:100D5C000800D2017B0008009F017B000800D20133
:100D6C007B0008000B027B0008004A017B00080096
:100D7C005D017B0008009F017B0008005D017B008A
:100D8C0008004A017B000800BA027B008A006E0250
:100D9C007B0008000B023D000400D2013D00040062
:100DAC009F017B0008005D01F7000E001501F700A4
:100DBC000E008801F7000E001501F7000E009F01D0
:100DCC00F7000E001501F7000E00D201F7000E001F
:100DDC001501F7000E000B02F7000E00D201F70010
:100DEC000E00BA02F7000E000B02F7000E00930281
:100DFC00F7000E002A02F7000E000B02F700130199
:100E0C00BA027B00080017047B000800A4037B00D7
:100E1C00080017047B000800BA027B0008001704C6
:100E2C007B000800A4037B00080017047B0008006B
:100E3C002A027B000800DC037B000800A4037B0073
:100E4C000800DC037B0008006E027B00080017041E
:100E5C007B00080010037B000800A4037B00080043
:100E6C00BA027B00080017047B000800A4037B0077
:100E7C00080017047B00080010037B00080017040F
:100E8C007B000800A4037B00080017047B0008000B
:100E9C003F037B00080017047B000800A4037B00C1
:100EAC00080017047B000800A4037B00080055040D
:100EBC007B00080017047B00080055047B00080029
:100ECC002A027B0008003F037B00080010037B0014
:100EDC0008003F037B0008006E027B000800A4039F
:100EEC007B0008003F037B000800A4037B00080084
:100EFC006E027B00080017047B000800A4037B0033
:100F0C00080017047B0008006E027B0008005504E3
:100F1C007B00080017047B00080055047B000800C8
:100F2C000B02F7000E00D201F7000E00BA02F70018
:100F3C000E000B02F7000E009302F7000E002A02BF
:100F4C00F7000E000B02EF011B00BA02F7000E00B7
:100F5C000B02F7000E009F01F7000E005D01F70079
:100F6C009100EE017B000800D201F7000E00D201C7
:100F7C007B0008009F017B0008004A017B000800F1
:100F8C005D017B008A000B027B000800D2017B0014
:100F9C0008009F017B000800D2017B0008000B02B7
:100FAC007B0008004A017B0008005D017B00080003
:100FBC009F017B0008005D017B0008004A017B005B
:100FCC000800BA027B008A006E027B0008000B024C
:100FDC003D000400D2013D0004009F017B0008008D
:100FEC005D01F7000E001501F7000E008801F700F7
:100FFC000E001501F7000E009F01F7000E00150101
:10100C00F7000E00D201F7000E001501F7000E00DC
:10101C000B02F7000E00D201F7000E00BA02F70027
:10102C000E000B02F7000E009302F7000E002A02CE
:10103C00F7000E000B02F7001301BA027B00080048
:10104C0017047B000800A4037B00080017047B0036
:10105C000800BA027B00080017047B000800A403F8
:10106C007B00080017047B0008002A027B000800A4
:10107C00DC037B000800A4037B000800DC037B007E
:10108C0008006E027B00080017047B0008001003A8
:10109C007B000800A4037B000800BA027B00080058
:1010AC0017047B000800A4037B00080017047B00D6
:1010BC00080010037B00080017047B000800A40341
:1010CC007B00080017047B0008003F037B0008002E
:1010DC0017047B000800A4037B00080017047B00A6
:1010EC000800A4037B00080055047B0008001704CB
:1010FC007B00080055047B0008001704F7000E0065
:10110C00A403F7000E007505F7000E001704F70096
:10111C000E002705F7000E005504F7000E0017040B
:10112C007B00080055047B00080017047B000800B6
:10113C0055047B0008001704F7000E003F03F7006E
:10114C000E00BA02F7000E000B02F7000E003F0370
:10115C00F7000E00BA027B000800100373011A019D
:10116C003F03F7000E00BA027B0008001003730166
:10117C001A013F03F7000E00BA027B0008001003AF
:10118C00F7000E0055047B00080017047B000800D4
:10119C0055047B0008001704F7000E003F03F7000E
:1011AC000E00BA02F7000E000B02F7000E003F0310
:1011BC00F7000E00A4037B000800100373011A0152
:1011CC003F03F7000E00A4037B000800100373011B
:1011DC001A013F03F7000E00A4037B00080017045C
:1011EC00F7000E0055047B00080017047B00080074
:1011FC0055047B0008001704F7000E003F03F700AE
:10120C000E00BA02F7000E000B02F7000E003F03AF
:10121C00F7000E00BA027B000800100373011A01DC
:10122C003F03F7000E00BA027B00080010037301A5
:10123C001A013F03F7000E00BA027B0008001003EE
:10124C00F7000E0055047B00080017047B00080013
:10125C0055047B0008001704F7000E007505F70015
:10126C000E00A403F7000E003F03F7000E00A403CA
:10127C007B0008003F03F7000E00A4037301150068
:10128C003F037B000800A4037B000800DC037B0009
:10129C000800A4037B0008003F03F7000E00930234
:1012AC00F7000E000B02F7000E002A0281008400EA
:1012BC00930281008400BA02EF011B001704F700AF
:1012CC000E003F03F7000E00BA02F7000E00D20129
:1012DC007B0008000B027B0008003F03F7000E00A8
:1012EC00BA02F7000E002A02F7000E009F01F70069
:1012FC000E002A027B0008009F017B0008003F03C0
:10130C007B0008009F017B00080010037B00080095
:10131C003F037B000800BA02F7000E0093027B002B
:10132C000800BA027B00080093027B000800BA0296
:10133C007B00080010037B00080093027B00080070
:10134C00BA027B00080010037B000800BA027B0085
:10135C0008000B027B000800BA027B000800100397
:10136C007B0008003F037B00080010037B00080093
:10137C003F037B000800A4037B00080017047B00DC
:10138C000800A4037B0008003F037B000800100347
:10139C007B0008003F037B00080010037B00080063
:1013AC00BA027B00080010037B000800BA027B0025
:1013BC0008003F037B000800DD047B000800BA0234
:1013CC007B00080055047B000800DD047B0008004E
:1013DC0017047B00080055047B000800A4037B0065
:1013EC00080017047B0008003F037B000800A403DF
:1013FC007B0008001704EF011B001704F7000E0018
:10140C003F03F7000E00BA02F7000E000B02F700C4
:10141C000E003F03F7000E00BA027B000800100319
:10142C0073011A013F03F7000E00BA027B0008009B
:10143C00100373011A013F03F7000E00BA027B0080
:10144C0008001003F7000E0055047B000800170479
:10145C007B00080055047B0008001704F7000E0001
:10146C007505F7000E00A403F7000E003F03F7000C
:10147C000E00A4037B0008003F03F7000E00A4033A
:10148C00730115003F037B000800A4037B000800D8
:10149C00DC037B000800A4037B0008003F03F7007B
:1014AC000E009302F7000E000B02F7000E004B0229
:1014BC0081008400930281008400BA02CE050000F2
:1014CC002601DA011A005D01DA011A00B801DA010D
:1014DC001A005D01DA011A000601DA011A004A014C
:1014EC00DA011A008801DA011A004A01DA011A003D
:1014FC00E900DA011A002601DA011A005D01B503D0
:10150C003300E900DA011A002601DA011A005D0144
:10151C00B50333002601DA011A005D01DA011A0065
:10152C00B801DA011A005D01DA011A000601DA01CC
:10153C001A004A01DA011A008801DA011A004A017C
:10154C00DA011A00E900DA011A002601DA011A00A0
:10155C005D01B5033300E900DA011A002601DA0156
:10156C001A005D01B5033300C400DA011A00E9006A
:10157C00DA011A002601DA011A00E900DA011A0070
:10158C00AF00DA011A00DC00DA011A000601DA01F8
:10159C001A00DC00DA011A00A500D70EC9006E0093
:1015AC00DA011A008B00DA011A00A500DA011A0020
:1015BC00DC00DA011A001501DA01961593006301BB
:1015CC001400930063011400930063011400930052
:1015DC006301140093006301140093006301140071
:1015EC0093006301140093006301140093006301E2
:1015FC001400930063011400930063011400930022
:10160C006301140093006301140093006301140040
:10161C009300630114009300B1000A009300B10021
:10162C000A009300630114009300630114009300FB
:10163C006301140093006301140093006301140010
:10164C009300630114009300630114009300630181
:10165C0014009300630114009300630114009300C1
:10166C0063011400930063011400930063011400E0
:10167C009300630114009300B1000A009300B100C1
:10168C000A0093006301140093006301140093009B
:10169C0063011400930063011400930063011400B0
:1016AC009300630114009300630114009300630121
:1016BC001400930063011400930063011400930061
:1016CC006301140093006301140093006301140080
:1016DC009300630114009300B1000A009300B10061
:1016EC000A0093006301140093006301140093003B
:1016FC006301140093006301140093006301140050
:10170C0093006301140093006301140093006301C0
:10171C001400930063011400930063011400930000
:10172C00630114009300630114009300630114001F
:10173C009300630114009300B1000A009300B10000
:10174C000A009300630114009300630114009300DA
:10175C0063011400930063011400930063011400EF
:10176C009300630114009300630114009300630160
:10177C0014009300630114009300630114009300A0
:10178C0063011400930063011400930063011400BF
:10179C009300630114009300B1000A009300B100A0
:1017AC000A0093006301140093006301140093007A
:1017BC00630114009300630114009300630114008F
:1017CC009300630114009300630114009300630100
:1017DC001400930063011400930063011400930040
:1017EC00630114009300630114009300630114005F
:1017FC009300630114009300B1000A009300B10040
:10180C000A00930063011400930063011400930019
:10181C00630114009300630114009300630114002E
:10182C00930063011400930063011400930063019F
:10183C0014009300630114009300630114009300DF
:10184C0063011400930063011400930063011400FE
:10185C009300630114009300B1000A009300B100DF
:08186C000A0093009005000042
:101874007003DA011A00BA02DA011A004B02DA0123
:101884001A007003DA011A001003DA011A00930235
:10189400DA011A000B02DA011A001003DA011A0045
:1018A4007003DA011A00BA02DA011A004B02B50316
:1018B4001B041704EC000E00A403EC000E007003DC
:1018C400EC000E001003EC000E007003DA011A00A5
:1018D400BA02DA011A004B02DA011A007003DA01C3
:1018E4001A001003DA011A009302DA011A000B023B
:1018F400DA011A001003DA011A007003DA011A007F
:10190400BA02DA011A004B02B50303084B02DA01EA
:101914001A00D201DA011A008801DA011A004B0216
:10192400DA011A000B02B5032702D201EC000E0003
:10193400B801EC000E0088016B074D04B801DA0110
:101944001A00D201DA011A002A026B0759024A016D
:10195400DA011A00B801DA011A00EE01DA011A00FC
:101964002A026B07033ABA0263017904BA026301DB
:101974007904BA0263017904BA0263017904BA02F0
:1019840063017904BA0263017904BA026301790438
:10199400D20163018B014B02C8022600BA02C802BD
:1019A4001403BA02C8022600BA02C8022600BA0208
:1019B400C8021403BA02C80226004B02C802260059
:1019C400BA02C8021403BA02C8022600D201900562
:1019D4004C00880190054C004B02C8022600BA0254
:1019E400C8021403BA02C8022600BA02C8022600BA
:1019F400BA02C8021403BA02C80226004B02C80283
:101A04002600BA02C8021403BA02C8022600D20190
:101A140090054C00880190054C004B02C80226003A
:101A2400BA02C8021403BA02C8022600BA02C802E3
:101A34002600BA02C8022600BA02630114004B024F
:101A4400630114007003B1000A001003B1000A001E
:101A5400BA02B1000A009302B1000A004B02C802A4
:101A64002600BA02C8021403BA0263011400BA02BF
:101A740063011400D20190054C0088012C04390044
:101A84005D01B1000A00B801B1000A004B02C802AE
:101A94002600BA02C8021403BA02C8022600BA0217
:101AA400C8022600BA02C8022600BA026301140062
:101AB4004B02630114007003B1000A001003B1006B
:101AC4000A00BA02B1000A009302B1000A004B02F4
:101AD400C8022600BA02C8021403BA026301140041
:101AE400BA0263011400D20190054C0088012C0451
:101AF40039005D01B1000A00B801B1000A004B02CF
:101B0400C8022600BA02C80214034B02C802260007
:101B1400BA02C8022600BA02C8022600BA02630149
:101B240014004B02630114007003B1000A00100397
:101B3400B1000A00BA02B1000A009302B1000A001F
:101B44004B02C8022600BA02C80226004B02C80291
:101B540026004B02C8022600D20190054C008801E1
:101B6400C80226008801630114005D01B1000A0067
:101B7400B801B1000A004B02C8022600BA02C8022A
:101B840014034B02C8022600BA02C8022600BA0295
:101B9400C8022600BA02630114004B026301140058
:101BA4007003B1000A001003B1000A00BA02B100C8
:101BB4000A009302B1000A004B02C8022600BA02CE
:101BC400C80226004B02C80226004B02C8022600A7
:101BD400D20190054C0088012C043900B801B100F1
:0E1BE4000A005D01B1000A0026019005000014
:101BF2000D0A3D3D3D205069616E6F2055415254A2
:101C0200202B20426F746F6E6573203D3D3D0D0A9F
:101C120000436F6D616E646F733A204E302E2E4E0C
:101C220037207C20433120284C6F736520596F7513
:101C32007273656C66202D20456D696E656D202975
:101C4200207C2043322028537079646572204461DD
:101C52006E6365202D20556E64657274616C652912
:101C6200207C2053202853746F7029207C20480D3B
:101C72000A3E20000D0A2D3E2043312063616E632F
:101C8200656C6164610D0A3E20000D0A2D3E2046FE
:101C9200696E2043310D0A3E20000D0A2D3E20437D
:101CA200322063616E63656C6164610D0A3E2000DF
:101CB2000D0A2D3E2046696E2043320D0A3E200059
:101CC2002D3E204E6F7461204E00204F4B0D0A3E78
:101CD20020002D3E2043312028646F626C65207005
:101CE20069737461290D0A002D3E20433220286455
:101CF2006F626C65207069737461290D0A004F4B25
:101D02002E20557361204E302E2E4E372C2043311B
:101D12002C2043322C2053206F20482E0D0A3E20C7
:101D22000042544E200020505245530D0A3E2000DE
:101D320042544E206E6F6E650D0A3E20000D0A2D34
:091D42003E2053544F500D0A00DD
:101D4B00060126014A015D018801B801EE010B0273
:011D5B000186
:101D5C00EF92FF920F931F93CF93DF93CDB7DEB724
:101D6C00AF970FB6F894DEBF0FBECDBF8CE19DE0F0
:101D7C00A0E089839A83AB8328E431E03D832C83F4
:101D8C001F821E821D86FC01459154918EE19DE0BF
:101D9C00A0E0FC0125913491C9015C874B87009729
:101DAC0019F441E020E002C0422F232F48872987F5
:101DBC00892B11F081E001C082E08A8784ED90E0EC
:101DCC00A0E08E879F87A88B2CE032E03A8B298B82
:101DDC001C8A1B8A1A8EFC014591549186ED90E069
:101DEC00A0E0FC0125913491C901598F488F0097CF
:101DFC0019F441E020E002C0422F232F4D8B2E8B93
:101E0C00892B11F081E001C082E08F8BCCC18A85D7
:101E1C00882309F4C7C0288539852115310521F09F
:101E2C002150310939872887813009F072C08D859E
:101E3C00811147C02B853C852115310541F4109249
:101E4C0080001092810085B18D7F85B938C0C901A1
:101E5C00A0E0B0E0880F991FAA1FBB1F880F991F25
:101E6C00AA1FBB1F9C01AD01220F331F441F551F1E
:101E7C00220F331F441F551F60E074E284EF90E083
:101E8C000E94D715BA01A901415051096109710984
:101E9C004115510501E06007710520F04FEF5FEF30
:101EAC0060E070E084B1826084B980E4809380004B
:101EBC008AE080938100509389004093880081E0F0
:101ECC008D8788859985892B09F06CC010928000CC
:101EDC001092810085B18D7F85B91D8689819A818B
:101EEC00AB812E813F81A901440F551F240F351F53
:101EFC00220F331F820F931FA11D37FDAA95049645
:101F0C00A11DFC01859194919987888782E08A872D
:101F1C0049C08D85882341F0109280001092810079
:101F2C0085B18D7F85B91D8688859985892B09F0AA
:101F3C0039C08E819F8101969F838E832C813D8138
:101F4C008217930710F01A862DC029813A814B8194
:101F5C00BC01660F771F860F971F880F991F790199
:101F6C00042FE80EF91E011D97FD0A95A02FC7013D
:101F7C00F701259134910296A11DFC0145915491D4
:101F8C00CA013C872B87009719F431E020E002C08E
:101F9C00342F252F38872987892B11F081E001C038
:101FAC0082E08A878F89882309F4E9C02D893E89CC
:101FBC002115310521F0215031093E8B2D8B8130BB
:101FCC0009F094C08A8D811169C0E88CF98CE114F8
:101FDC00F10441F41092B0001092B10085B1877FEA
:101FEC0085B95AC08EE0E8E0F1E0DE015B96019025
:101FFC000D928A95E1F787E0E6E1F1E0DE01999632
:10200C0001900D928A95E1F710E02DC0E12FF0E0E0
:10201C00EE0FFF1F81E090E08C0F9D1FE80FF91F62
:10202C00A28DB38D97010E9420169B01AC01220F4B
:10203C00331F441F551F60E074E284EF90E00E9450
:10204C00D715DA01C901211531054105510551F0AA
:10205C0019F00197A109B1098F3F9105A105B105AF
:10206C0031F028F01F5F173088F280E01FEF1F3F20
:10207C0011F48FEF16E094B1986094B992E49093B8
:10208C00B000E9E2F0E0EC0FFD1FE10FF11D9081D3
:10209C009093B1008093B30081E08A8F8D899E89E3
:1020AC00892B09F06CC01092B0001092B10085B170
:1020BC00877F85B91A8E8E859F85A8892B893C8947
:1020CC00A901440F551F240F351F220F331F820FF8
:1020DC00931FA11D37FDAA950496A11DFC018591A6
:1020EC0094919E8B8D8B82E08F8B49C08A8D882337
:1020FC0041F01092B0001092B10085B1877F85B984
:10210C001A8E8D899E89892B09F039C08B899C89FF
:10211C0001969C8B8B8B29893A898217930710F037
:10212C001F8A2DC02E853F854889BC01660F771FFD
:10213C00860F971F880F991F7901042FE80EF91E3F
:10214C00011D97FD0A95A02FC701F7012591349128
:10215C000296A11DFC0145915491CA01398F288F1B
:10216C00009719F431E020E002C0342F252F3D8B6D
:10217C002E8B892B11F081E001C082E08F8B809136
:10218C001E0181110DC08FE99FE00197F1F700C08E
:10219C00000090911E0181E0911103C080E001C00C
:1021AC0081E081110AC080911E01811106C08A85CF
:1021BC0081112DCE8F8981112ACE10928000109220
:1021CC00810085B18D7F85B91092B0001092B1005D
:1021DC0085B1877F85B9AF960FB6F894DEBF0FBE79
:1021EC00CDBFDF91CF911F910F91FF90EF9008958C
:1021FC00EF92FF920F931F93CF93DF93CDB7DEB780
:10220C00AF970FB6F894DEBF0FBECDBF84E798E151
:10221C00A0E089839A83AB8325E930E03D832C834E
:10222C001F821E821D86FC014591549186E798E120
:10223C00A0E0FC0125913491C9015C874B87009784
:10224C0019F441E020E002C0422F232F4887298750
:10225C00892B11F081E001C082E08A878CEC94E13B
:10226C00A0E08E879F87A88B2CE930E03A8B298BD6
:10227C001C8A1B8A1A8EFC01459154918EEC94E1B8
:10228C00A0E0FC0125913491C901598F488F00972A
:10229C0019F441E020E002C0422F232F4D8B2E8BEE
:1022AC00892B11F081E001C082E08F8BCCC18A8533
:1022BC00882309F4C7C0288539852115310521F0FB
:1022CC002150310939872887813009F072C08D85FA
:1022DC00811147C02B853C852115310541F41092A5
:1022EC0080001092810085B18D7F85B938C0C901FD
:1022FC00A0E0B0E0880F991FAA1FBB1F880F991F81
:10230C00AA1FBB1F9C01AD01220F331F441F551F79
:10231C00220F331F441F551F60E074E284EF90E0DE
:10232C000E94D715BA01A9014150510961097109DF
:10233C004115510501E06007710520F04FEF5FEF8B
:10234C0060E070E084B1826084B980E480938000A6
:10235C008AE080938100509389004093880081E04B
:10236C008D8788859985892B09F06CC01092800027
:10237C001092810085B18D7F85B91D8689819A81E6
:10238C00AB812E813F81A901440F551F240F351FAE
:10239C00220F331F820F931FA11D37FDAA950496A0
:1023AC00A11DFC01859194919987888782E08A8789
:1023BC0049C08D85882341F01092800010928100D5
:1023CC0085B18D7F85B91D8688859985892B09F006
:1023DC0039C08E819F8101969F838E832C813D8194
:1023EC008217930710F01A862DC029813A814B81F0
:1023FC00BC01660F771F860F971F880F991F7901F5
:10240C00042FE80EF91E011D97FD0A95A02FC70198
:10241C00F701259134910296A11DFC01459154912F
:10242C00CA013C872B87009719F431E020E002C0E9
:10243C00342F252F38872987892B11F081E001C093
:10244C0082E08A878F89882309F4E9C02D893E8927
:10245C002115310521F0215031093E8B2D8B813016
:10246C0009F094C08A8D811169C0E88CF98CE11453
:10247C00F10441F41092B0001092B10085B1877F45
:10248C0085B95AC08EE0E8E0F1E0DE015B96019080
:10249C000D928A95E1F787E0E6E1F1E0DE0199968D
:1024AC0001900D928A95E1F710E02DC0E12FF0E03C
:1024BC00EE0FFF1F81E090E08C0F9D1FE80FF91FBE
:1024CC00A28DB38D97010E9420169B01AC01220FA7
:1024DC00331F441F551F60E074E284EF90E00E94AC
:1024EC00D715DA01C901211531054105510551F006
:1024FC0019F00197A109B1098F3F9105A105B1050B
:10250C0031F028F01F5F173088F280E01FEF1F3F7B
:10251C0011F48FEF16E094B1986094B992E4909313
:10252C00B000E9E2F0E0EC0FFD1FE10FF11D90812E
:10253C009093B1008093B30081E08A8F8D899E893E
:10254C00892B09F06CC01092B0001092B10085B1CB
:10255C00877F85B91A8E8E859F85A8892B893C89A2
:10256C00A901440F551F240F351F220F331F820F53
:10257C00931FA11D37FDAA950496A11DFC01859101
:10258C0094919E8B8D8B82E08F8B49C08A8D882392
:10259C0041F01092B0001092B10085B1877F85B9DF
:1025AC001A8E8D899E89892B09F039C08B899C895B
:1025BC0001969C8B8B8B29893A898217930710F093
:1025CC001F8A2DC02E853F854889BC01660F771F59
:1025DC00860F971F880F991F7901042FE80EF91E9B
:1025EC00011D97FD0A95A02FC701F7012591349184
:1025FC000296A11DFC0145915491CA01398F288F77
:10260C00009719F431E020E002C0342F252F3D8BC8
:10261C002E8B892B11F081E001C082E08F8B809191
:10262C001E0181110DC08FE99FE00197F1F700C0E9
:10263C00000090911E0181E0911103C080E001C067
:10264C0081E081110AC080911E01811106C08A852A
:10265C0081112DCE8F8981112ACE1092800010927B
:10266C00810085B18D7F85B91092B0001092B100B8
:10267C0085B1877F85B9AF960FB6F894DEBF0FBED4
:10268C00CDBFDF91CF911F910F91FF90EF900895E7
:10269C0084B1806284B90E940F16789487B1807CD3
:1026AC0087B988B18F6388B98AB1837F8AB98BB1B6
:1026BC008C608BB90E942F161FEF95B180E2892791
:1026CC0085B92FEF86E791E0215080409040E1F7EB
:1026DC0000C00000C0911F01CC2309F440C110922E
:1026EC001F01E0E0F1E08081D1819FE9980F9A31E0
:1026FC0008F480528E3409F08CC0D03308F489C0B1
:10270C00D83308F086C010921E0180ED8D0F90E03A
:10271C00880F991F092E000CAA0B855B924EAF4FA8
:10272C00FC015A2F0E9445166115710551F4109247
:10273C0080001092810085B18D7F85B980E090E09A
:10274C0050C0CB01A0E0B0E0880F991FAA1FBB1F9F
:10275C00880F991FAA1FBB1F9C01AD01220F331FAD
:10276C00441F551F220F331F441F551F60E074E296
:10277C0084EF90E00E94D715BA01A901415051098C
:10278C006109710941155105E1E06E07710520F0F1
:10279C004FEF5FEF60E070E084B1826084B980E459
:1027AC00809380008AE0809381005093890040934D
:1027BC00880080E090E015C020911E0121110DC011
:1027CC00EFE9FFE03197F1F700C0000030911E01F6
:1027DC0021E0311103C020E001C02C2F211104C0D5
:1027EC0001968C3D910540F310928000109281006F
:1027FC0085B18D7F85B962EC7CE180E00E94F91592
:10280C008D2F0E944D166CEC7CE180E00E94F91536
:10281C00A2C0833409F049C0D13309F046C01092EC
:10282C001D0110921E016894CC24C7F8D12CF6011E
:10283C0010820F2EF1E8EF2EF12CF02DF701108203
:10284C0085B18D7F85B900EB10E0F8011082C1EBEA
:10285C00D0E0188285B1877F85B964ED7CE180E09A
:10286C000E94F9150E94FE10F6011082F7011082E9
:10287C0085B18D7F85B9F8011082188285B1877F6B
:10288C0085B980911E01882321F066E77CE180E008
:10289C0003C06CE87CE180E00E94F91581E0809334
:1028AC001D0110921E011FEF56C0833409F049C060
:1028BC00D23309F046C010921D0110921E0168948B
:1028CC00CC24C7F8D12CF60110820F2EF1E8EF2E94
:1028DC00F12CF02DF701108285B18D7F85B900EBBD
:1028EC0010E0F8011082C1EBD0E0188285B1877F2F
:1028FC0085B96AEE7CE180E00E94F9150E94AE0E6B
:10290C00F6011082F701108285B18D7F85B9F8012F
:10291C001082188285B1877F85B980911E0188232A
:10292C0021F06CE97CE180E003C062EB7CE180E0AB
:10293C000E94F91581E080931D0110921E011FEF7A
:10294C000AC0883419F40E942F1605C060E07DE19E
:10295C0080E00E94F91510922001109200018091E4
:10296C001D01813009F095C0309B10C0319B10C007
:10297C00329B10C0339B10C0349B10C0359B10C0D1
:10298C004A9B10C04B9910C0C7E00FC0C0E00DC0EF
:10299C00C1E00BC0C2E009C0C3E007C0C4E005C081
:1029AC00C5E003C0C6E001C0CFEF1C1709F471C02D
:1029BC00CF3F09F461C08C2F90E0880F991F092E2E
:1029CC00000CAA0B855B924EAF4FFC015A2F0E9454
:1029DC0045166115710541F410928000109281002A
:1029EC0085B18D7F85B938C0CB01A0E0B0E0880FF0
:1029FC00991FAA1FBB1F880F991FAA1FBB1F9C01E1
:102A0C00AD01220F331F441F551F220F331F441FCC
:102A1C00551F60E074E284EF90E00E94D715BA0174
:102A2C00A901415051096109710941155105F1E0A4
:102A3C006F07710520F04FEF5FEF60E070E084B13D
:102A4C00826084B980E4809380008AE08093810066
:102A5C00509389004093880063E27DE180E00E94FE
:102A6C00F91580E38C0F0E944D1668E27DE180E041
:102A7C000E94F9151C2F0DC010928000109281003D
:102A8C0085B18D7F85B962E37DE180E00E94F91507
:102A9C001C2F80911E01882309F40FCE1092800008
:102AAC001092810085B18D7F85B91092B000109283
:102ABC00B10085B1877F85B96FE37DE180E00E942D
:082ACC00F9150E942F16F9CD47
:102AD4001F920F920FB60F9211248F939F93EF932F
:102AE400FF938091C600833511F08337B1F481E000
:102AF40080931E01109280001092810085B18D7F19
:102B040085B91092B0001092B10085B1877F85B964
:102B140010922001109200013FC08D3011F08A30D4
:102B240071F4809120018823B9F1E0912001F0E053
:102B3400E050FF4F108281E080931F012DC09091DF
:102B44002001973088F4E091200191E09E0F90934A
:102B54002001F0E0E050FF4F8083E0912001F0E09D
:102B6400E050FF4F108204C0109220011092000127
:102B740080912001813049F480910001883611F060
:102B8400883419F481E080931F0180912001823000
:102B940019F481E080931F01FF91EF919F918F9130
:0A2BA4000F900FBE0F901F901895C0
:102BAE00A1E21A2EAA1BBB1BFD010DC0AA1FBB1F43
:102BBE00EE1FFF1FA217B307E407F50720F0A21BB5
:102BCE00B30BE40BF50B661F771F881F991F1A9422
:102BDE0069F760957095809590959B01AC01BD014C
:042BEE00CF01089576
:102BF200CF92DF92EF926B01E82E06C09FEFC91AC7
:102C0200D90AE90A0E944D16F6018491E7FC8081F7
:0C2C12008111F4CFEF90DF90CF90089577
:102C1E00E0ECF0E080818D7F80831092C50087E626
:102C2E008093C40086E08093C20088E98093C1003F
:022C3E000895F7
:102C4000A29FB001B39FC001A39F700D811D1124ED
:0E2C5000911DB29F700D811D1124911D0895DC
:102C5E0062EF7BE180E00E94F91563E17CE180E0A8
:062C6E000E94F915089513
:102C7400EC010E9459160E945816CE010E945A1661
:062C8400CE010E9456166D
:102C8A0057FD03C0659175910895619171910895F9
:0E2C9A009091C00095FFFCCF8093C600089576
:042CA8000C94000088
:042CAC000E9468001A
:022CB000089585
:022CB200089583
:022CB400089581
:102CB600010008002000400080000001000401021D
:052CC6000304050607F0
:00000001FF
