:100000000C9437000C942A010C942A010C942A01B8
:100010000C942A010C942A010C942A010C942A01B4
:100020000C942A010C942A010C942A010C942A01A4
:100030000C942A010C942A010C942A010C942A0194
:100040000C942A010C942A010C942A010C942A0184
:100050000C942A010C942A010C942A010C942A0174
:100060000C942A010C942A01010001028000112441
:100070001FBECFEFD8E0DEBFCDBFE8E6F0E040E046
:1000800017C0B591A59135912591059107FD0CC03B
:1000900095918591EF01F92FE82F05900D92A21708
:1000A000B307D9F7FE0104C01D92A217B307E1F709
:1000B000ED36F40731F70E94E0000C941F01F8942C
:0200C000FFCF70
:0800C20003C3E7FFE7C30300DD
:1000CA00CF92DF92EF92FF920F931F93CF93DF931A
:1000DA008C016A017B0160C086E0C816D104E10484
:1000EA00F10410F4E60102C0C5E0D0E0CE010E949E
:1000FA001101CC1ADD0AE108F10893B121E0392F88
:10010A00327091FD20E081E089278170281709F477
:10011A003FC08091000190910101C80FD91FD0936F
:10012A000101C0930001C837D105B0F11092010155
:10013A001092000131111FC0F80180819181A281C2
:10014A00B3814697A105B10560F080819181A281B2
:10015A00B3814497A109B10980839183A283B383B0
:10016A001BC081E090E0A0E0B0E0F80180839183B9
:10017A00A283B38311C0F80180819181A281B381E6
:10018A004496A11DB11D80839183A283B38304C0C9
:10019A001092010110920001C114D104E104F1048A
:1001AA0009F09ACFDF91CF911F910F91FF90EF90B5
:0601BA00DF90CF900895D4
:1001C000CF93DF9300D000D0CDB7DEB78FEF8AB9E1
:1001D0001BB884B18C7F84B985B1836085B984EF05
:1001E00091E0A0E0B0E089839A83AB83BC8310E008
:1001F00001C010E0812F90E0A0E08E539F4FAF4FE1
:10020000FC018491A7FD80818BB949815A816B8162
:100210007C81CE0101960E9465001F5F183048F76F
:02022000E9CF24
:1002220007C08FEC97E00197F1F700C00000C90109
:0C0232009C0121503109892BA1F708958F
:10023E00EC010E942F010E942E01CE010E9430017E
:06024E00CE010E942C010C
:040254000C94000006
:040258000E945F00A1
:02025C00089503
:02025E00089501
:020260000895FF
:00000001FF
