:020000020000FC
:100000004AC044B1486144B94AB14C674AB916D0B4
:100010000895502F0895C0E0D1E0C50FD11D68812B
:10002000C0E1D1E0C50FD11D788195B1977E962BA7
:1000300095B99BB19378972B9BB90895C0E0D1E017
:1000400048E1499348E0499348E1499348E149939D
:1000500048E0499340E1499340E1499348E149939D
:1000600048E1499348E14993C0E1D1E048E7499329
:1000700040E4499344E3499344E649934CE449936B
:100080004CE649934CE7499340E449934CE7499344
:100090004CE6499308951124B4DF0027BADFBBDF93
:0200A000FDCF92
:00000001FF
